:020000040800F2
:10000000F8090020D5230008E52300082D1F00086B
:100010002F1F0008311F0008E9230008000000001E
:10002000000000000000000000000000ED230008B8
:10003000F123000800000000F5230008331F00082A
:10004000F9230008FD230008012400080524000806
:10005000092400080D2400081124000815240008B4
:10006000192400081D240008212400087B1F000813
:1000700025240008292400082D2400083124000824
:1000800035240008392400083D24000841240008D4
:1000900045240008492400084D2400085124000884
:1000A00055240008592400085D2400086124000834
:1000B000431F00085F1F00086B1F0008652400082D
:1000C000692400086D2400087124000875240008C4
:1000D00079240008632000087D240008812400089A
:1000E00085240008892400088D2400089124000834
:1000F00095240008992400089D240008A1240008E4
:10010000A5240008A9240008AD240008B124000893
:10011000B5240008B9240008BD240008C124000843
:10012000C5240008C9240008CD240008EB1F0008DE
:1001300010B4020052B2002A05D40A01AD4B0400EB
:1001400064B21A5508E00A01AB4B040064B214F023
:100150000F04234403F8042C10BC704710B50400AE
:10016000601EB0F1807F01D301200EE0601EA34924
:1001700008600F215FF0FF30FFF7DAFF0020A04991
:10018000086007209F490860002010BD30B585B089
:10019000684600F063F901984FF47A71B0FBF1F012
:1001A000FFF7DCFF984CD4E900239848984900F009
:1001B000FDF9984AC2E90001D4E90001964AC2E972
:1001C0000001002400F0DCFA4FF4FA7000F038FB74
:1001D000142000F0ACFB00F0F4FB00F075FC00F024
:1001E0007EFB00F080F805002800C0B200F004FD9E
:1001F00000F001FB00F08EFE052000F023FD874992
:100200000880F9E770B504000D00854E85488649E1
:1002100022002B0000F0CAF900F046FF3060306881
:10022000012804DB0121814800F0E2FF03E0012105
:100230007E4800F0D9FF0221306880B200F0F4FC63
:1002400070BD2DE9F04104000D00794E2000290019
:10025000784A794B00F0D0FF00F026FF3060032190
:10026000306880B200F0E0FC062000F0EBFC80B2C9
:10027000316888422EDA02216C4800F0B9FF6F49DC
:10028000087800280ED1012008706D4800686D497B
:100290000860042000F0D6FC0421401C80B200F06D
:1002A000C3FC1EE0674E664F38683168401A01F0A3
:1002B000C6F88046082000F0C5FC804511DB386890
:1002C0003060042000F0BEFC0421401C80B200F02D
:1002D000ABFC06E00020594908700221534800F0A9
:1002E00083FFBDE8F081F8B50121202000F030F94E
:1002F0000F20ADF8000003208DF8020048208DF893
:100300000300514F6946380000F0EAFE0121380031
:1003100000F05CFF04000221380000F057FF0500E8
:100320000421380000F052FF06000821380000F0D8
:100330004DFFAD0015EBC40515EB4605451928002A
:10034000C0B2F2BD38B5414839490A6803689A42DB
:1003500014DB334A1268314BB3F900309A420DDA9C
:1003600000680968401A01F06FF8394CD4E900239D
:1003700000F01CF9374AC2E900010FE02748B0F944
:10038000000027490968401A01F05EF8324CD4E9B0
:10039000002300F00BF92F4AC2E900011E4CD4E9FA
:1003A00000012C4DD5E9002301F016F9C4E9000144
:1003B000184DD4E90001D5E9002301F07FF904D2FA
:1003C000D5E90001C4E900010BE00F4DD5E90001BA
:1003D000D4E9002301F072F903D2D5E90001C4E9A0
:1003E0000001D4E9000100F05FFE80B200F074FA71
:1003F00031BD000000E400E018ED00E014E000E092
:1004000018E000E010E000E0100000209A999999AF
:100410009999D93F880100208001002038000020F0
:10042000A80100209CC420B07268F23F000C01407B
:10043000AC01002052B81E85EB913240EE01002045
:10044000B4010020B0010020001401401800002079
:100450000000002090010020080000202DE9F04F4E
:1004600001000022002500200026474FD7F800C0D9
:100470001CF00C0C6346002B04D0042B05D0082B79
:1004800006D023E0414A0A6022E0414A0A601FE0A8
:100490003A6812F470123B6813F480331800920C1F
:1004A000921C1500002804D13A4A02FB05F20A60AA
:1004B0000BE03A68920304D5344A02FB05F20A6065
:1004C00003E0334A02FB05F20A6001E02F4A0A60AA
:1004D0003C6814F0F0042409DFF8BC9019F804E03B
:1004E0000A6832FA0EF24A603B6813F4E0631B0AB2
:1004F00019F803804A6832FA08F28A603A6812F4FE
:100500006052D20A19F80290D1F804A03AFA09FA16
:10051000C1F80CA03F6817F44047BF0BDFF87CA080
:100520001AF807A0D1F80CB0BBFBFAFBC1F810B069
:10053000BDE8F08F0A00D2B2002A04D0184A13682E
:100540000343136003E0164A136883431360704744
:100550000A00D2B2002A04D0124A1368034313607F
:1005600003E0104A13688343136070470A00D2B255
:10057000002A04D00C4A13680343136003E00A4ABC
:1005800013688343136070470410024000127A001E
:100590000024F40000093D00240000203400002065
:1005A00014100240181002401C10024030B540F2F6
:1005B000FF7C1CEA11541DBF1CEA135564456545B8
:1005C0003FE0641981EA030C6FF35F530CF0004CB9
:1005D00043F48013C90241F0004141EA505EC50274
:1005E0001100A5FB020200284FF00000EEFB0120E5
:1005F0004FF00001E3FB052118BF42F00102401853
:1006000000214941E3FB0E01A4F580640D0302D2F1
:1006100092184041494154F1010470DD450872F1DE
:10062000004250F1000051EB0451A1F5801102D4B9
:1006300041EA0C0130BD40F2FF7E4CEA0E51002031
:1006400030BD0CEA1355644518BF654581EA030CBB
:100650000CF0004C41D050EA410E1CBF52EA430E50
:1006600002E06146002030BD24422C441BD15FEAE9
:10067000050EF6D0090302BF01460020AEF1140EAC
:10068000B1FA81F5AEEB050401FA05FE0C35C5F1B2
:10069000200100FA05F5C8404EEA000E6FF35F53E3
:1006A00043F480139CE733F00043B3FA83F504BFAF
:1006B000B2FA82FE75440B3D641BB5F1200E2FBFCC
:1006C00002FA0EF3AB40C5F1200E22FA0EFE38BF3F
:1006D00043EA0E03AA40641C7CE750EA410E14BFB3
:1006E00052EA430E6FF000014FF4001515EB430F73
:1006F0008EBF194615EB410F9DE7B4D830BDD4F13C
:100700000104B4F120050FDAC4F12005520828BF16
:1007100042F0010210FA05FE01FA05F57244E2BF4B
:10072000E0402843E1400FE0352C9ADCC5F120047D
:1007300052EA400220FA05F218BF42F0010231FAF3
:1007400005F0A1400A43002172F1004250F100007F
:1007500051EB0C0130BD0EE00268436802440830E2
:100760005FEAC37C44BF4B445B1E52F804CB43F8A2
:1007700004CB091FF9D150F8041B0029ECD17047B4
:1007800080B501210820FFF7E3FE0320ADF800004B
:1007900003208DF8020010208DF8030069460248FE
:1007A00000F09EFC01BD00BF000C0140010049B2F9
:1007B000002909D4012210F01F018A406449030076
:1007C0005BB25B0941F82320704710B4020052B2BB
:1007D000002A05D40A015F4B040064B21A5508E0F0
:1007E0000A015D4B040064B214F00F04234403F8C3
:1007F000042C10BC7047E0B501210120FFF7B6FEC4
:10080000684601F007F80020ADF802004720ADF877
:10081000000040F2E730ADF8040069465FF0804028
:1008200000F066FF012201215FF0804001F00DF829
:1008300000211C20FFF7C9FF1C20FFF7B7FF07BDF1
:1008400038B588B0040001210220FFF78FFE012196
:100850000520FFF77DFE8020ADF8000018208DF800
:10086000030003208DF8020069463D4800F038FC83
:1008700001A800F0CFFF0020ADF806000720ADF87A
:1008800004003848210089B290FBF1F0ADF808006F
:10089000324D01A9280000F02BFF6020ADF81000B8
:1008A0000120ADF8120030480088ADF81600002095
:1008B000ADF8180004A9280000F05FFF0821280007
:1008C00000F0DEFF0121280000F0CBFF012128000D
:1008D00000F0ACFF09B030BD2449088070471FB557
:1008E00001210420FFF742FE684600F093FF00203C
:1008F000ADF8020041F61F40ADF80000C720ADF88A
:1009000004001B4C6946200000F0F2FE0122012188
:10091000200000F09AFF0121200000F087FF002155
:100920001E20FFF752FF1E20FFF740FF1FBD01B43E
:1009300010490098086008680028FCD101B0704791
:100940000C490868002802D00868401E08607047FB
:1009500000E100E000E400E018ED00E000040040E9
:1009600000080140405489003A000020380400404B
:1009700000080040DC010020010049B2002909D430
:10098000012210F01F018A408F4903005BB25B090E
:1009900041F82320704710B4020052B2002A05D457
:1009A0000A018A4B040064B21A5508E00A01884B18
:1009B000040064B214F00F04234403F8042C10BCA8
:1009C000704718B591B001210120FFF7B3FD012157
:1009D0004FF40170FFF7BCFD0420ADF800000020CB
:1009E0008DF8030069467B4800F07AFB7A4C2000C2
:1009F00000F064FF7948069079480790002008903D
:100A00000120099000200A9000200B904FF4807084
:100A10000C904FF480600D9020200E904FF4005009
:100A20000F900020109006A9200000F0C0FF0121C7
:100A3000200000F0DAFF00210B20FFF7ACFF0B20B5
:100A4000FFF79AFF01220221200000F0DDFF0020C5
:100A5000019000208DF8080001208DF809005FF456
:100A6000602003900020049001208DF814005D4C5C
:100A700001A9200001F00EF8072301220221200025
:100A800001F076F80121200001F038F80121200062
:100A900001F026F8200001F03FF8200001F041F8B5
:100AA0000028FAD1200001F046F8200001F048F8B3
:100AB0000028FAD10121200001F04CF8012120008A
:100AC00001F048F812B010BD18B591B00121022014
:100AD000FFF730FD012148F20400FFF739FD08203F
:100AE000ADF8000000208DF803006946394800F099
:100AF000F7FA3D4C200000F0E1FE3C4806903C48EF
:100B00000790002008900120099000200A90002002
:100B10000B904FF480700C904FF480600D9020206B
:100B20000E904FF400500F900020109006A9200066
:100B300000F03DFF0121200000F057FF00213B2085
:100B4000FFF729FF3B20FFF717FF012202212000BA
:100B500000F05AFF0020019000208DF808000120CD
:100B60008DF809005FF460200390002004900120BC
:100B70008DF814001F4C01A9200000F08BFF072303
:100B800001220321200000F0F3FF0121200000F0EA
:100B9000B5FF0121200000F0A3FF200000F0BCFF02
:100BA000200000F0BEFF0028FAD1200000F0C3FFB3
:100BB000200000F0C5FF0028FAD10121200000F03C
:100BC000C9FF12B010BD000000E100E000E400E049
:100BD00018ED00E000080140080002404C240140EC
:100BE000D401002000240140580402404C3C014044
:100BF000D8010020003C0140AF490870AF4940F2E5
:100C000001420A8000224A8000228A800022CA8093
:100C100000220A814FF4AF724A81C8228A8164227D
:100C2000CA810A220A82704702000800C0B209285D
:100C300001DB012005E0A1480B00DBB220F8132006
:100C40000020704701000800C0B2092801DB002025
:100C500003E09A48C9B230F81100704780B598494E
:100C60000878082803DA0020087001202BE0954856
:100C70000278914B1B789A4212D00278022A0BD14B
:100C8000C27A037B13EB0223427B120212EB034274
:100C9000807B82188C48026000200870012012E0DE
:100CA0004178032902D100F00FF80CE041780629C1
:100CB00002D100F06AF806E04078102802D100F076
:100CC0009CF800E0012002BD70B500207C4908704E
:100CD0007E4C7C4D0621280000F0FCF82080207816
:100CE00000F0FF00A97988424DD1208880B2000A27
:100CF00080B2E979884246D1A878002841D1697943
:100D0000E87841180A293CDA714E6B480078307057
:100D10000320707068794000B070002069798842C3
:100D200012DA6649EA78121831F8122092B2120AE1
:100D300006EB4003DA70EA78121831F8121006EB6D
:100D400040021171401CE9E768794000C01C0100B5
:100D500089B2300000F0BEF82080687906EB4000D0
:100D60002188C170687906EB4000218889B2090AA0
:100D7000017169794900491D300000F074F90020C3
:100D800002E0012000E0012070BD70B500204C4958
:100D900008704F4C48480078207006206070494D1C
:100DA000A878A070E878E07028792071687960717F
:100DB000464E0621200000F08DF830803088A0716A
:100DC000308880B2000AE071A079A97988420ED1FA
:100DD000E079E97988420AD1E878092807DA2879A0
:100DE000697951EA00213548EA7820F81210082183
:100DF000200000F038F9002070BD2DE9F0413048A6
:100E00000478A41E00210170304D2E4E20000100F8
:100E100089B2300000F05EF82880287800F0FF00EA
:100E2000315D884240D1288880B2000A80B206EB4A
:100E300004014978884237D1254F1F48007838701F
:100E400010207870B078B870F078F8703079387118
:100E50005FF00008F078092819DA002071798842DB
:100E600015DAF1784118092911DA1449F278821853
:100E700006EB4003DB7906EB400C9CF808C01CEB4A
:100E8000032C21F812C018F10108401CE6E787F88E
:100E900005800621380000F01DF828802888B871E8
:100EA000288880B2000AF8710821094800F0DBF8B0
:100EB0000020BDE8F0810000EF0100206801002063
:100EC000F00100203C000020B4010020EC010020D3
:100ED000A000002030B403004FF6FF7000240A0089
:100EE00092B2944213DA1A5D50400022082A0CDABA
:100EF000C50706D580B205004AF2010090EA550008
:100F000001E080B24008521CF0E7641CE7E780B2C1
:100F100030BC704710B586B0012144F20400FFF7E1
:100F200017FB5948016851F0010101604FF400704E
:100F3000ADF8000018208DF8030003208DF80200A2
:100F4000524C6946200000F0CBF84FF48060ADF8B9
:100F5000000003208DF8020004208DF8030069468C
:100F6000200000F0BDF82020ADF8000003208DF82F
:100F7000020010208DF803006946200000F0B0F850
:100F80005FF4E13002900020ADF80C000020ADF8D5
:100F90000E000020ADF810000020ADF814000C2069
:100FA000ADF812003A4C02A9200000F06FFE0121BA
:100FB000200000F0D9FE012240F22551200000F06F
:100FC000E2FE25208DF8040000208DF805000020A9
:100FD0008DF8060001208DF8070001A800F06AFFD7
:100FE00006B010BD01002B480278642A07DA2A4AAD
:100FF0000378D1540278521C0270002000E00120D6
:101000007047F8B50400254D28686428FBD0204EB1
:1010100040F2277700223900300000F0B4FE286843
:10102000002805D18021300000F0EDFE002813D10A
:101030001B4801684A1C02601A4A5454016864291A
:1010400001D1002101602868401C2860012239007C
:10105000300000F098FE05E02100C9B289B23000EE
:1010600000F0C9FEF1BD38B505000C00202107488D
:1010700000F0BAF8002C05D02878FFF7C2FF6D1CED
:10108000641EF7E731BD000018100240000801405F
:1010900000380140F00100203C000020E801002061
:1010A000E001002004010020C1F30A5340F21E4277
:1010B000D31A0CDDCA0283F3070342EA505242F00E
:1010C0000042DA4002EBE17282EAE17070476FEAB7
:1010D000E17203F2E13008B182F000407047000095
:1010E000F0B500220023002400250026002791F8F7
:1010F00003C01CF00F0C91F803E05FEACE6E02D53E
:101100008A7852EA0C0C0A88D2B2002A2AD00268E5
:10111000160000221400082C23D25FF0010E1EFAE4
:1011200004F215000A882A401300AB4217D1A2002E
:1011300015000F22AA401700BE431CFA05F2164301
:10114000CA78282A04D11EFA04FEC0F814E006E08A
:10115000CA78482A03D11EFA04FEC0F810E0641CC5
:10116000D9E706600A88B2F5807F2EDB4268160058
:1011700000221400082C27D25FF0010E14F108029F
:101180001EFA02F215000A882A401300AB4219D158
:10119000A20015000F22AA401700BE431CFA05F258
:1011A0001643CA78282A04D114F108021EFA02F262
:1011B0004261CA78482A05D114F108021EFA02FEDB
:1011C000C0F810E0641CD5E74660F0BD10B4020022
:1011D000002390680C00A4B2204201D0012000E05E
:1011E0000020C0B210BC70470A0092B20261704782
:1011F0000A0092B242617047F0B540F2FF7581EA91
:10120000030C0CF0004C15EA11541DBF15EA1357DE
:10121000AC42AF42E5E0BC41C1F31301C3F3130399
:10122000801A994143F4801304D2641E0018494186
:1012300080185941C90241EA5051B1FBF3F603FB52
:101240001611A2FB0675D7EBC020A94102D2761E6B
:1012500080185941C90241EA5051B1FBF3FE03FB2A
:101260001E11A2FB0E75D7EBC020A94103D2AEF12F
:10127000010E80185941890241EA9051760546EAEB
:101280008E2EB1FBF3F603FB1611A2FB0675D7EB0E
:101290008020A94102D2761E80185941C90241EA34
:1012A00050514EEA060EB1FBF3F603FB1611A2FBFA
:1012B0000675D7EBC020A94102D2761E801859418D
:1012C000C90241EA5051B1FBF3F703FB1711A2FB2E
:1012D0000735D3EBC020A94167F100070CBF0042DE
:1012E00047F0010766F3D5274FEA1E31B80814F519
:1012F000806412DDBD0775F1004250EB0E5051EBDA
:10130000045111F5801F5CBF41EA0C01F0BD4CF0A7
:101310007F6141F0E0410020F0BDBD076D0840EA6B
:101320000E5041F48011D4F10104B4F120060ADA20
:10133000C4F120060200E04001FA06F3E140184340
:10134000B24015430EE0342C13DCC6F1200445EA0C
:1013500040056D0820FA06F2154321FA06F0A14077
:101360000D43002175F1004250F1000051EB0C01DA
:10137000F0BD00205FEA0C01F0BDCFB992185B41CF
:10138000B3FA83F704BFB2FA82F6BF190B3FB7F185
:1013900020062FBF02FA06F3BB40C7F1200622FA4F
:1013A00006F638BF3343BA401CB1E419641E33E774
:1013B0007F4231F00041B1FA81F404BFB0FA80F607
:1013C000A4190B3CB4F120062FBF00FA06F1A1408E
:1013D000C4F1200620FA06F638BF3143A0403C1B7A
:1013E0001AE7AC421ABF05EA1357AF4212E050EABF
:1013F00041061CBF52EA4306BFE750EA41073046A8
:1014000061461CBF41EA0551F0BD52EA430C08BFDA
:10141000C143F0BD00204FF4001616EB410F98BFFA
:1014200016EB430F08BF16EB410F24BFC14305E085
:1014300016EB430F0CBF61464CEA0551F0BD002886
:1014400048BF40427047000010F0004160B148BF03
:101450004042B0FA80F29040D21CC2F5846241EA68
:10146000025202EBD021400570470000841A71EB54
:10147000030604D26E40001BB141121973414FF4B0
:10148000001C1CEB410F34BF7CEB430683E00C0DCA
:10149000A4EB1356362E00F37C80012E45EAC323BD
:1014A00041DC43EA525312BFD20292025B08240588
:1014B00045EAC12141EA5051D2EBC020994125D4DF
:1014C00007D1B0FA80F610FA06F162D0002020367B
:1014D00008E0B1FA81F6B140C6F1200220FA02F22A
:1014E0001143B0404FEAF474B4EB465434F00106B3
:1014F0004FEA74040AD8D6F50016760D04F00044BD
:10150000F04061FA06F25040F1404840C00A40EA1B
:10151000415021F0004128BF5FEA500550F1000022
:1015200044EBD12135E0DB0A45EAC121C90AB6F115
:1015300020050EDD42EA0242120CC5F1200603FA34
:1015400006F6EB4042EA06056D42984161F1000162
:101550000DE062FA06F5F240554063FA06FC82EAB5
:101560000C02F3405A406D42904161EB030111F4CB
:10157000801F05D1641E620502D06D0040414941C3
:1015800021F48011430875F1004350F1000041EB54
:10159000045170BC70471CEB410F15D223F000437F
:1015A00052EA43060BD04FEA4C0CBCEB410F04D877
:1015B0000C0D661E342EB7DDEBE7801A994150EA18
:1015C000410608BF0021E4E708BF1CEB430F28BF1A
:1015D0006FF00001DDE7000070B491EA030F4FF0F7
:1015E00000457FF543AF6B40841A71EB030603D2CD
:1015F000001BB141121973414FF4001C1CEB410F49
:1016000034BF7CEB430442E00C0DA4EB1356352EA3
:101610004FDC45EAC323DB0A45EAC121C912B6F112
:1016200020050DDD63FA05F6EB4086EA030512425C
:1016300018BF45F00105C01851F100010CD213E0AC
:1016400062FA06F5F2405540F3415A40B340F34088
:101650005A408018594107D349085FEA30005FEAD1
:10166000350528BF45F0010501F58011420875F1E7
:10167000004250F1000041EB04514E0016F5001FEE
:1016800070BC38BF70470020090D090570471CEB7E
:10169000410F10D252EA43060BD0BCEB410F05D8E4
:1016A0000C0DAB43661E342EB6DD02E0AB43801852
:1016B000594170BC704770BC7047000041EA030C90
:1016C00050EA4C0C52EA0C0C4FF4001C09D307D022
:1016D0001CEB410F9CBF1CEB430F8B4208BF8242A7
:1016E00070471CEB430FFBD8994208BF90427047EC
:1016F00010B400220488434B98420FD0DFF8A82191
:1017000090420BD0B0F1804F08D03F4A904205D0B4
:101710003E4A904202D03E4A904204D14FF68F7228
:1017200014404A881443DFF87821904208D0DFF84B
:101730007421904204D04FF6FF421440CA881443EB
:1017400004808A8882850A88028598420FD0DFF853
:10175000582190420BD0DFF85421904207D0DFF897
:101760005021904203D0DFF84C21904201D10A7AF7
:1017700002860122828210BC7047F0B40026002746
:101780005FF0000C038C4FF6EF7213400384038C60
:101790008488058B48F6FF7215404FF6FF421540CE
:1017A0000A8855EA02254FF6DF7213400A8953EA88
:1017B00002134A8853EA0213124A904203D0DFF818
:1017C000F820904217D14FF67F7213404A8953EAAE
:1017D00002134FF6BF7213408A8853EA02134FF682
:1017E000FF3214404FF2FF7214408A8954EA820497
:1017F000CA8954EA820484800583CA8802870384E4
:10180000F0BC7047002C014000040040000800407C
:10181000000C00404FF6FF71818000210180002103
:10182000C180002141800021017270470A00D2B2BC
:10183000002A04D0028852F00102028004E00388EA
:101840004FF6FE721340038070471300DBB2002B8B
:1018500003D083890B43838102E083898B43838197
:1018600070470A00D2B2002A04D0028852F08002E7
:10187000028004E003884FF67F72134003807047B4
:1018800010B40023048B4FF2FF72144054EA012479
:10189000048310BC70470A0092B2D24302827047A0
:1018A000001000400014004000340140004001409E
:1018B00000440140004801400034014002684FF6F6
:1018C000FE710A4002600021016000214160002198
:1018D00081600021C1605F49884205D15E490A6884
:1018E00052F00F020A6061E05C49884205D15A4912
:1018F0000A6852F0F0020A6058E05949884205D15E
:1019000055490A6852F470620A604FE055498842AE
:1019100005D151490A6852F470420A6046E05249C2
:10192000884205D14C490A6852F470220A603DE0B1
:101930004E49884205D148490A6852F470020A604B
:1019400034E04B49884205D143490A6852F070623D
:101950000A602BE04749884205D147490A6852F09E
:101960000F020A6022E04549884205D142490A68CF
:1019700052F0F0020A6019E04149884205D13E491F
:101980000A6852F470620A6010E03E49884205D14C
:1019900039490A6852F470420A6007E03A498842BD
:1019A00004D135490A6852F470220A60704710B4B5
:1019B000002304686FF30E148A6814430A6A144300
:1019C0000A6914434A6914438A691443CA6914436F
:1019D0004A6A14438A6A14430460CA6842600A6807
:1019E00082604A68C26010BC70470A00D2B2002A06
:1019F00004D0026852F00102026004E003684FF66E
:101A0000FE721340036070471300DBB2002B03D05B
:101A100003680B43036002E003688B430360704775
:101A2000010000220020CB0002D5184B1B6801E00A
:101A3000174B1B680B4201D0012000E00020C0B210
:101A40007047C10002D50C49086001E002490860F6
:101A50007047000008000240040002401C000240E1
:101A60003000024044000240580002406C00024036
:101A70008000024008040240040402401C040240AA
:101A80003004024044040240580402400004024072
:101A900000000240F0B4002300244568DFF8E42190
:101AA00015400A6815430A7955EA0225456086689B
:101AB000DFF8D4211640CA6816438A6816434A796B
:101AC00056EA42068660C76A37F470070A7C521EDF
:101AD00014432200D2B257EA0257C762F0BC7047E3
:101AE0000A00D2B2002A04D0826852F00102826059
:101AF00003E0826852085200826070470A00D2B246
:101B0000002A04D0826852F48072826003E0826806
:101B100032F4807282607047816851F00801816000
:101B20007047010000228868000701D5012000E00D
:101B30000020C0B27047816851F004018160704795
:101B4000010000228868400701D5012000E0002044
:101B5000C0B270470A00D2B2002A04D0826852F4A0
:101B6000A002826003E0826832F4A00282607047C3
:101B70002DE9F04100275FF0000C0C00E4B20A2CC4
:101B800016DBC5680726B1F10A0E032404FB0EFE1E
:101B900016FA0EFE35EA0E0598465FFA88F8B1F19E
:101BA0000A060324664318FA06F63543C56011E0B9
:101BB00005690726032404FB01F416FA04F4A5437F
:101BC0009E465FFA8EFE032606FB01F61EFA06F617
:101BD000354305611400E4B2072C19DA476B5FF056
:101BE0001F0CB2F1010E052404FB0EFE1CFA0EFEC2
:101BF00037EA0E0788465FFA88F8B2F1010C05242F
:101C000004FB0CFC18FA0CFC5CEA0707476336E09F
:101C10001400E4B20D2C19DA076B5FF01F0CB2F15F
:101C2000070E052404FB0EFE1CFA0EFE37EA0E0713
:101C300088465FFA88F8B2F1070C052404FB0CFC17
:101C400018FA0CFC5CEA0707076318E0C76A5FF044
:101C50001F0CB2F10D0E052404FB0EFE1CFA0EFE45
:101C600037EA0E0788465FFA88F8B2F10D0C0524B2
:101C700004FB0CFC18FA0CFC5CEA0707C762BDE821
:101C8000F0810000FFFEF0FFFDF7F1FF2DE9F84FB6
:101C900086B004000D00002600275FF000085FF00A
:101CA00000095FF0000AA8890028A346218A4CF6A3
:101CB000FF700140E8880143009100982082A189CB
:101CC0004EF6F3100140A888014328890143688932
:101CD000014300910098A081A18A4FF6FF40014086
:101CE000A889014300910098A08201A8FEF7B6FBE5
:101CF0001C48834501D1049900E00399A0890004A0
:101D000007D5192000FB01F02A685200B0FBF2F25F
:101D100006E0192000FB01F02A689200B0FBF2F205
:101D20006420B2FBF0F6360133001B097FF063003C
:101D300000FB0323A089000408D5D80032306427B3
:101D4000B0FBF7F010F00700064307E0180132304F
:101D50006427B0FBF7F010F00F000643268107B0B0
:101D6000BDE8F08F003801400A00D2B2002A04D04A
:101D7000828952F40052828104E083894DF6FF7219
:101D80001340838170472DE9F0410023002500278F
:101D90005FF0000E0C0040F66A16A4B2B442804612
:101DA0000C00E4B26409E4B20E00B6B216F01F06ED
:101DB0005FF0010C1CFA06FC012C02D118F10C0892
:101DC00006E0022C02D118F1100801E018F1140805
:101DD0001300DBB2002B06D0D8F800305CEA030316
:101DE000C8F8003005E0D8F8003033EA0C03C8F832
:101DF0000030BDE8F081CA05D20D8280704780882E
:101E0000C005C00D704702000023080080B2B0F585
:101E1000007F1088084201D0012000E00020C0B2FD
:101E20007047F0B4040000270020002200260B00B9
:101E300040F66A159BB2AB420D00EDB26D09EDB2F2
:101E40000B009BB213F01F035FF0010C1CFA03F3AD
:101E5000012D02D1A089034006E0022D02D1208A83
:101E6000034001E0A08A03400A0092B2120A92B233
:101E70001CFA02F220880240002B03D0002A01D075
:101E8000012000E00020C0B2F0BC704770B4002216
:101E900000240B0040F66A159BB2AB420B009BB2CC
:101EA0001B0A01259D402E00B6B2F643068070BC89
:101EB00070470000F0B4002200230F24C1780029ED
:101EC0001FD01649096811F4E061D1F5E061090AF3
:101ED000D1F104052B00CC4045789D408678264002
:101EE00035432D012A000E4D0678AA5501250678A6
:101EF00016F01F06B5400B4E07787F1146F82750A5
:101F000009E00121057815F01F05A940064D067866
:101F1000761145F82610F0BC704700000CED00E08B
:101F200000E400E000E100E080E100E0FEE7FEE721
:101F3000FEE780B5FEF704FD75480168491C0160A5
:101F400001BD80B501215FF08040FFF7A4FC0021B6
:101F50005FF08040FFF76AFCFEF780FE01BD80B5B0
:101F600001216C48FFF797FC01BD80B501216A484B
:101F7000FFF791FCFEF7E6F901BD70B50220FFF70F
:101F80004FFD01282DD1654C216865480068411836
:101F90002160644D2868401C2860634829680268F5
:101FA00091421ED1614E21680068B1FBF0F000F053
:101FB000DDF8C6E90001D6E90001FEF723F90020AB
:101FC0002860002020605A480168491C01600168AF
:101FD0004FF47A7041434E480068B1FBF0F0554928
:101FE00008600220FFF72DFD70BD2DE9F047524C2F
:101FF0002000FFF715FD01282ED1504D29685048CB
:102000000068411829604F4E3068401C3060DFF88E
:1020100038A13068DAF8001088421DD14B4F28688B
:1020200000F0A4F880468946DAF8000000F09EF837
:102030000022474BFFF7E0F802000B0040464946FC
:10204000FFF7DAF8C7E90001D7E90001FEF7F9F870
:1020500000203060002028602000FFF7F2FCBDE87F
:10206000F08738B53B4C208880060DD500203A49D2
:10207000088001215FF08040FFF7D8FB2000FFF7C8
:10208000BEFEC0B2FEF7AEFF40F227752900200069
:10209000FFF7C7FE012825D129002000FFF7F6FE33
:1020A0002E490868002812D00868401E08602C4D90
:1020B0002868411C29602B49095C89B22000FFF780
:1020C0009AFE286864280DD1002028600AE00022CA
:1020D00029002000FFF757FE012240F22661200070
:1020E000FFF751FE40F2266529002000FFF799FE18
:1020F00000280CD029002000FFF7C8FE20211A4834
:10210000FFF776F8002229002000FFF73CFE31BDE2
:10211000D00100200004004000080040C001002061
:10212000D4010020C40100201C00002098010020E0
:10213000B8010020BC01002000000210C8010020EE
:10214000D8010020CC01002020000020A0010020A8
:10215000000024400038014024000040E801002035
:10216000E4010020040100200008014050B1B0FA51
:1021700080F18840C91CC1F58461090501EBD021BB
:10218000400570470146704780B54249086850F0E5
:1021900001000860404A13684048034013600B6820
:1021A0003F4803400B60086830F4802008601068E6
:1021B00030F4FE0010605FF41F003A49086000F040
:1021C00005F85FF000603849086001BD80B500F097
:1021D00001F801BD82B000200190002000902D493F
:1021E000086850F480300860086810F400300090EF
:1021F0000198401C01900098002803D10198B0F587
:10220000A06FF1D10868800302D50120009001E0A1
:10221000002000900098012839D12448026852F02B
:10222000100202600268920892000260026852F096
:1022300002020260184802680260026802600268D6
:1022400052F480620260026832F4804202600268E6
:1022500052F400420260026832F47C1202600268AA
:1022600052F4F81202600A6852F080720A600A683A
:102270009201FCD50168890889000160016851F06C
:1022800002010160016811F00C010829FAD102B0C5
:102290007047000000100240041002400000FFF8E8
:1022A000FFFFF6FE0810024008ED00E000200240AB
:1022B000000000000000E03F9A9999999999A93F80
:1022C000000000000094D140FA000000AC030000C0
:1022D000AC0300000000000001020304010203043B
:1022E0000607080902040608F401623E30B400251E
:1022F00012E050F8042BD30744BF4A44521E091F72
:10230000042942F8045BFAD213468C0744BF1580B7
:102310009B1CC90748BF1D7050F8041B0029E8D159
:1023200030BC704710B5074979441831064C7C44DD
:10233000163404E00A68081D114488470146A1428A
:10234000F8D110BD0800000028000000A1FFFFFF29
:10235000B80100003C00002000000000FBE3FFFF8C
:102360003C0000004CFFFFFF0000002000000000C8
:1023700000F00DF8002801D0FFF7D4FFAFF3008084
:102380000020AFF30080FDF701FF00F002F801200C
:10239000704700F001B800000746384600F002F828
:1023A000FBE7000080B5AFF30080024A110018205F
:1023B000ABBEFBE7260002000548014603B46846B1
:1023C00080F30988AFF30080AFF30080FFF7D0FF00
:1023D000A5EDF5FE01488047014800478921000826
:1023E000B9230008FFF7FEBFFFF7FEBFFFF7FEBFF0
:1023F000FFF7FEBFFFF7FEBFFFF7FEBFFFF7FEBF11
:10240000FFF7FEBFFFF7FEBFFFF7FEBFFFF7FEBF00
:10241000FFF7FEBFFFF7FEBFFFF7FEBFFFF7FEBFF0
:10242000FFF7FEBFFFF7FEBFFFF7FEBFFFF7FEBFE0
:10243000FFF7FEBFFFF7FEBFFFF7FEBFFFF7FEBFD0
:10244000FFF7FEBFFFF7FEBFFFF7FEBFFFF7FEBFC0
:10245000FFF7FEBFFFF7FEBFFFF7FEBFFFF7FEBFB0
:10246000FFF7FEBFFFF7FEBFFFF7FEBFFFF7FEBFA0
:10247000FFF7FEBFFFF7FEBFFFF7FEBFFFF7FEBF90
:10248000FFF7FEBFFFF7FEBFFFF7FEBFFFF7FEBF80
:10249000FFF7FEBFFFF7FEBFFFF7FEBFFFF7FEBF70
:1024A000FFF7FEBFFFF7FEBFFFF7FEBFFFF7FEBF60
:1024B000FFF7FEBFFFF7FEBFFFF7FEBFFFF7FEBF50
:1024C000FFF7FEBFFFF7FEBFFFF7FEBFFFF7FEBF40
:04000005080023B913
:00000001FF
