:020000040800F2
:10000000700A002009300008193000082D2B000864
:100010002F2B0008312B00081D30000800000000C5
:100020000000000000000000000000002130000877
:10003000253000080000000029300008332B00089C
:100040002D30000831300008353000083930000804
:100050003D300008413000084530000849300008B4
:100060004D3000085130000855300008B12B000811
:10007000593000085D300008613000086530000824
:10008000693000086D3000087130000875300008D4
:10009000793000087D300008813000088530000884
:1000A000893000088D300008913000089530000834
:1000B000432B00085F2B00086B2B000899300008C9
:1000C0009D300008A1300008A5300008A9300008C4
:1000D000AD300008992C0008B1300008B530000898
:1000E000B9300008BD300008C1300008C530000834
:1000F000C9300008CD300008D1300008D5300008E4
:10010000D9300008DD3000087B2B0008E130000802
:10011000E5300008E9300008ED300008F130000853
:10012000F5300008F9300008FD300008212C0008E7
:1001300010B4020052B2002A06D40A01DFF83C389B
:10014000040064B21A5509E00A01DFF834380400EB
:1001500064B214F00F04234403F8042C10BC70475D
:1001600010B50400601EB0F1807F01D3012011E0C2
:10017000601EDFF8101808600F215FF0FF30FFF7F6
:10018000D7FF0020DFF8001808600720DFF8FC1711
:100190000860002010BD30B585B0684600F03EFC18
:1001A00001984FF47A71B0FBF1F0FFF7D9FF00F03E
:1001B000EDFC00F00FFD00F042FBDFF8D447DFF864
:1001C000D407006820600F21208800F026FE10214F
:1001D000608800F022FEDFF8C0070068206011216F
:1001E000208800F01AFE1221608800F016FEDFF869
:1001F000AC07006820601321208800F00EFE142157
:10020000608800F00AFEDFF898070068206015217A
:10021000208800F002FE1621608800F0FEFD002418
:10022000032C1FDADFF87C572021280001F020F88A
:10023000642001F016F91021280001F019F864205B
:1002400001F00FF92021280001F00EF8642001F0E0
:1002500008F91021280001F007F8642001F001F9E5
:10026000641CDDE7DFF84047D4E90023DFF83C07F2
:10027000DFF83C1701F01AF9C4E90001DFF8340790
:10028000D0E90023DFF83007C0E900234FF4FA700B
:1002900001F048F8142001F0E4F801F016FA01F03A
:1002A00093FA01F08DF8DFF8144700F010F9207090
:1002B000207800F08FFD01F010F801F01DFB01F037
:1002C000A7F8052000F0B7FDDFF8F4160880092034
:1002D00000F0B1FD002813D0DFF8E8464FF40051DC
:1002E000200000F0C1FF4FF47A7001F0BAF84FF42B
:1002F0000051200000F0BCFF0921002000F08DFD1E
:100300000E2000F098FD0028DBD000F0B7F90E2198
:10031000002000F082FDD4E7F8B504000D00DFF8FE
:10032000A806C0E90045DFF89006D0E90023DFF811
:100330008466D6E9000101F0A9FB04D10020DFF8B2
:100340008C16086018E0DFF84C06006801F0AEFB80
:1003500022002B0001F0AAF806000F00DFF8380693
:10036000006801F0A3FB32003B0001F0C3FB01F089
:10037000F1FCDFF858160860DFF854060078002812
:1003800014D1042000F057FD002804D1DFF83C060A
:100390000068012805DB1021DFF8080600F068FF7F
:1003A00004E01021DFF8FC0500F05EFF0121DFF81A
:1003B0001C06006880B200F030FDF1BD2DE9F84365
:1003C00004000D00DFF80C06C0E90045DFF8086600
:1003D000DFF8C805006801F069FB22002B0001F07E
:1003E00065F880468946DFF8B805006801F05EFBD5
:1003F00042464B4601F07EFB01F0ACFC306002212E
:100400000F002000290001F0A5FC390080B200F0A7
:1004100004FD062000F00FFD80B23168884239DA11
:10042000DFF880852021404600F022FFDFF8AC7520
:100430003878002818D1012038700020DFF8A01586
:1004400008700020DFF89C150860DFF89C05006844
:10045000DFF898150860032000F0EDFC0321401C34
:1004600080B200F0DAFC1EE0DFF87C050068DFF8FF
:100470007C150968401A01F088FC8146082000F0CC
:10048000DAFC81450FDB002038702021404600F067
:10049000EBFE08E00020DFF8441508702021DFF8AB
:1004A000040500F0E1FEDFF83805007800280CD1E3
:1004B000DFF8300501683268914206DA3168016080
:1004C0000221006880B200F0A8FCBDE8F183F8B515
:1004D0000121202000F01CFB0F20ADF800000320BC
:1004E0008DF8020048208DF80300DFF8B8746946E3
:1004F000380000F035FE0121380000F0A7FE0400AE
:100500000221380000F0A2FE05000421380000F0AE
:100510009DFE06000821380000F098FEE400D4F1AA
:100520000F04B4EB8504B4EB4604241A2000C0B2D7
:10053000F2BD38B5042000F07EFC002805D0DFF8BD
:100540008014B1F90000002808D1DFF86804D0E970
:100550000023DFF86404C0E9002357E0DFF89004CB
:10056000DFF8742413680468A34216DBDFF85C34F8
:100570001B68B1F90040A3420FDA00681168401A05
:1005800001F008FCDFF86C44D4E9002300F08EFF92
:10059000DFF86424C2E9000111E0B1F90000DFF8DE
:1005A0002C140968401A01F0F5FBDFF85044D4E937
:1005B000002300F07BFFDFF84024C2E90001DFF8F0
:1005C000F843D4E90023DFF83054D5E9000101F005
:1005D00091FAC4E90001DFF8DC53D4E90001D5E960
:1005E000002301F0E9FB04D2D5E90001C4E90001D0
:1005F0000CE0DFF8B453D5E90001D4E9002301F0A1
:10060000DBFB03D2D5E90001C4E90001DFF8A84310
:10061000D4E90001E44DD5E9002301F0E7FB002215
:10062000DFF8DC3300F042FFDFF8D823C2E9000135
:10063000D4E9000101F08EFB80B200F0BEFE31BDB6
:10064000E148D0E90023DFF8C003C0E90023704788
:10065000DD48D0E90023DFF8B403C0E90023704788
:10066000DC48D0E90023EA48C0E900237047D948B4
:10067000D0E90023E748C0E9002370472DE9F84F8F
:100680000E2000F0D8FB0400200080B2012846D1E3
:100690000B2000F0D0FB07000A2000F0CCFB8246C4
:1006A000BC4DD94EBFB2380001F0C4FC804689462B
:1006B0001FFA8AFA504601F0BDFC02000B004046CA
:1006C000494601F0D5FA80468946D04AD2E9000170
:1006D000D6E9002301F0CCFA02000B00404649465F
:1006E00001F084FB01F0B4FC28600A2000F0A3FBB9
:1006F00080B201F09FFC80468946286801F0D6F957
:10070000D6E9002300F0D2FE02000B004046494625
:1007100001F0AEFA01F09CFC9F49086049E020001E
:1007200080B2022845D10D2000F085FB07000C2087
:1007300000F081FB8046994DB54EBFB2380001F004
:1007400079FC82468B461FFA88F8404601F072FC1D
:1007500080468946AF4AD2E90001D6E9002301F07C
:1007600087FA02000B004046494601F03FFB0200B9
:100770000B005046594601F07BFA01F069FC2860F5
:100780000C2000F058FB80B201F054FC80468946F2
:10079000286801F08BF9D6E9002300F087FE0200FB
:1007A0000B004046494601F063FA01F051FC7C49D8
:1007B000086000F093F8764D7648006828600F21B5
:1007C000288800F02AFB1021688800F026FB724878
:1007D000006828601121288800F01FFB122168881A
:1007E00000F01BFB6D48006828601321288800F08A
:1007F00014FB1421688800F010FB69480068286029
:100800001521288800F009FB1621688800F005FBF7
:10081000644D2021280000F02BFD1021280000F05D
:1008200027FD4FF47A7000F01CFE2021280000F014
:100830001BFD1021280000F017FDBDE8F18F10B559
:10084000754C002000F05AFA2070012000F056FA92
:100850006070022000F052FAA070032000F04EFAFF
:10086000E07020684B490860042000F047FA2070CF
:10087000052000F043FA6070062000F03FFAA070F7
:10088000072000F03BFAE070206843490860082028
:1008900000F034FA2070092000F030FA60700A206D
:1008A00000F02CFAA0700B2000F028FAE07020680D
:1008B0003A4908600C2000F021FA20700D2000F069
:1008C0001DFA60700E2000F019FAA0700F2000F0E1
:1008D00015FAE07020683249086010BD10B54E4C22
:1008E0002C48006820600021207800F0C2F9012126
:1008F000607800F0BEF90221A07800F0BAF9032177
:10090000E07800F0B6F924480068206004212078DF
:1009100000F0AFF90521607800F0ABF90621A0786E
:1009200000F0A7F90721E07800F0A3F91B48006860
:1009300020600821207800F09CF90921607800F0FF
:1009400098F90A21A07800F094F90B21E07800F0E2
:1009500090F91348006820600C21207800F089F994
:100960000D21607800F085F90E21A07800F081F962
:100970000F21E07800F07DF910BD000000E400E0F8
:1009800018ED00E014E000E018E000E010E000E006
:100990001C0200201C000020140200202000002067
:1009A0001802002000140140100000209A99999923
:1009B0009999D93FB0010020A801002065020020CC
:1009C00060020020000C0140C0010020A0010020B6
:1009D00067020020D80100200802002064020020E5
:1009E000400000200C020020240200201002002001
:1009F0001800002000000020B8010020080000209E
:100A000000004440F0010020C8010020D001002077
:100A1000E0010020E8010020200200202DE9F04F35
:100A2000010000220025002000264E4FD7F800C00C
:100A30001CF00C0C6346002B04D0042B05D0082BB3
:100A400006D023E0484A0A6022E0484A0A601FE0D4
:100A50003A6812F470123B6813F480331800920C59
:100A6000921C1500002804D1414A02FB05F20A60DD
:100A70000BE03A68920304D53B4A02FB05F20A6098
:100A800003E03A4A02FB05F20A6001E0364A0A60D6
:100A90003C6814F0F0042409DFF8D89019F804E059
:100AA0000A6832FA0EF24A603B6813F4E0631B0AEC
:100AB00019F803804A6832FA08F28A603A6812F438
:100AC0006052D20A19F80290D1F804A03AFA09FA51
:100AD000C1F80CA03F6817F44047BF0BDFF898A09F
:100AE0001AF807A0D1F80CB0BBFBFAFBC1F810B0A4
:100AF000BDE8F08F0A00D2B2002A04D01F4A136862
:100B00000343136003E01D4A136883431360704777
:100B10000A00D2B2002A04D0194A136803431360B2
:100B200003E0174A13688343136070470A00D2B288
:100B3000002A04D0134A13680343136003E0114AE8
:100B400013688343136070470A00D2B2002A04D0AE
:100B50000D4A13680343136003E00B4A1368834391
:100B6000136070470410024000127A000024F40061
:100B700000093D002C0000203C0000201410024021
:100B8000181002401C1002401010024080B50121D4
:100B90000820FFF7BDFF01212020FFF7B9FF30201B
:100BA000ADF8000003208DF8020010208DF803003E
:100BB0006946064800F0D4FA4FF40050ADF8000042
:100BC0006946034800F0CCFA01BD00BF00140140A3
:100BD000000C014018B585B001215FF40010FFF74B
:100BE000A5FF01210920FFF793FFC020ADF8000009
:100BF00003208DF802001C208DF803006E4C69461E
:100C0000200000F0ADFA2020ADF8000003208DF8A0
:100C1000020010208DF803006946200000F0A0FAC1
:100C200000222021200000F027FB644C200001F06E
:100C300043FA0020ADF808004FF48040ADF80A00F8
:100C40000121ADF80C104FF48061ADF80E10ADF835
:100C500010005B4801900121200001F0BFFA01A9BA
:100C6000200001F044FA0121200001F0E4FA06B06E
:100C700010BDF8B504000D00504E0121300001F008
:100C8000BCFA5049300001F0F9FA0028F9D00022EE
:100C9000A021300001F0E5FA4B49300001F0EEFAF6
:100CA0000028F9D0290089B2090AC9B2300001F040
:100CB000D1FA464F3900300001F0E0FA0028F8D0B0
:100CC0002900C9B2300001F0C5FA3900300001F046
:100CD000D5FA0028F9D02100C9B2300001F0BAFAE3
:100CE0003900300001F0CAFA0028F9D001213000A3
:100CF00001F092FA052000F0B4FBF1BDF8B5040054
:100D00002E4E5FF40031300001F0D0FA0028F7D108
:100D10000121300001F071FA2A4D2900300001F064
:100D2000ADFA0028F8D00022A021300001F099FA95
:100D30002549300001F0A2FA0028F9D0210089B23B
:100D4000090AC9B2300001F085FA204F390030009D
:100D500001F094FA0028F8D02100C9B2300001F067
:100D600079FA3900300001F089FA0028F9D0012120
:100D7000300001F042FA2900300001F07FFA00282B
:100D8000F9D00122A021300001F06BFA10493000A7
:100D900001F074FA0028F9D0300001F05FFA050084
:100DA0000021300001F047FA0121300001F034FA4F
:100DB0002800C0B2F2BD0000000C01400054004009
:100DC000A0860100010003008200070084000700E4
:100DD00040000300C9490870C94940F201420A8035
:100DE00000224A8000228A800022CA8000220A81D2
:100DF00000224A81C8228A816422CA810A220A8288
:100E000000224A8200228A820022CA8200220A83A9
:100E100000224A8300228A83704702000800C0B281
:100E2000172801DB012005E0B5480B00DBB220F8F4
:100E300013200020704701000800C0B2172801DB12
:100E4000002003E0AE48C9B230F81100704710B579
:100E5000AC490878082803DA0020087001203AE03D
:100E6000A94A1078A54B1B78984221D01078022807
:100E70001AD1D07A137B13EB0023547B240214EB9A
:100E80000344907B0419A1480460D07D137E13EBCA
:100E90000023507E927E12EB00220A2092FBF0F09B
:100EA00010EB03409A4A106000200870012012E005
:100EB0005078032802D100F00FF80CE05078062893
:100EC00002D100F06DF806E05078102802D100F051
:100ED000B6F800E0012010BD70B500208949087007
:100EE0008C4C894D0621280000F01AF920802078CA
:100EF00000F0FF00A979884250D1208880B2000A12
:100F000080B2E979884249D1A878002844D169792A
:100F1000E878411818293FDA7F4E78480078307019
:100F20000320707068794000B070002069798842B1
:100F300012DA7349EA78121831F8122092B2120AC2
:100F400006EB4003DA70EA78121831F8121006EB5B
:100F500040021171401CE9E768794000C01C0100A3
:100F600089B2300000F0DCF82080687906EB4000A0
:100F70002188C170687906EB4000218889B2090A8E
:100F8000017169794900491D300000F05EFD0120C2
:100F900062490870002002E0012000E0012070BDDD
:100FA00070B50020574908705B4C54480078207099
:100FB00006206070544DA878A070E878E070287919
:100FC000207168796071534E0621200000F0A8F866
:100FD00030803088A071308880B2000AE071A0793A
:100FE000A97988420ED1E079E97988420AD1E87876
:100FF000172807DA2879697951EA00214048EA7808
:1010000020F81210E8780A2802D1FFF719FB10E047
:10101000E8780B2802D1FFF71BFB0AE0E8780C28E0
:1010200002D1FFF71DFB04E0E8780D2801D1FFF79E
:101030001EFB0821200000F008FD002070BD2DE9F6
:10104000F04130480478A41E00210170314D2E4E2D
:101050002000010089B2300000F062F82880287872
:1010600000F0FF00315D884240D1288880B2000A3C
:1010700080B206EB04014978884237D1264F1F48D9
:101080000078387010207870B078B870F078F87008
:10109000307938715FF00008F078172819DA0020ED
:1010A0007179884215DAF1784118172911DA144953
:1010B000F278821806EB4003DB7906EB400C9CF8D3
:1010C00008C01CEB032C21F812C018F10108401CC9
:1010D000E6E787F805800621380000F021F828802F
:1010E0002888B871288880B2000AF87108210A4857
:1010F00000F0ABFC0020BDE8F0810000660200209B
:10110000700100206802002044000020240200201A
:101110002802002062020020A800002040000020D9
:1011200030B403004FF6FF7000240A0092B29442DC
:1011300013DA1A5D50400022082A0CDAC50706D5DA
:1011400080B205004AF2010090EA550001E080B249
:101150004008521CF0E7641CE7E780B230BC7047DF
:10116000F0B500220023002400250026002791F876
:1011700003C01CF00F0C91F803E05FEACE6E02D5BD
:101180008A7852EA0C0C0A88D2B2002A2AD0026865
:10119000160000221400082C23D25FF0010E1EFA64
:1011A00004F215000A882A401300AB4217D1A200AE
:1011B00015000F22AA401700BE431CFA05F2164381
:1011C000CA78282A04D11EFA04FEC0F814E006E00A
:1011D000CA78482A03D11EFA04FEC0F810E0641C45
:1011E000D9E706600A88B2F5807F2EDB42681600D8
:1011F00000221400082C27D25FF0010E14F108021F
:101200001EFA02F215000A882A401300AB4219D1D7
:10121000A20015000F22AA401700BE431CFA05F2D7
:101220001643CA78282A04D114F108021EFA02F2E1
:101230004261CA78482A05D114F108021EFA02FE5A
:10124000C0F810E0641CD5E74660F0BD10B40200A1
:10125000002390680C00A4B2204201D0012000E0DD
:101260000020C0B210BC70470A0092B20261704701
:101270000A0092B2426170471300DBB2002B03D028
:101280000B009BB2036102E00B009BB2436170470D
:10129000010049B2002909D4012210F01F018A403F
:1012A000784903005BB25B0941F82320704710B412
:1012B000020052B2002A05D40A01734B040064B242
:1012C0001A5508E00A01714B040064B214F00F04CF
:1012D000234403F8042C10BC7047E0B50121012021
:1012E000FFF724FC684601F095F80020ADF80200F5
:1012F0004720ADF8000040F2E730ADF80400694641
:101300005FF0804000F0F4FF012201215FF0804097
:1013100001F09BF800211C20FFF7C9FF1C20FFF7FC
:10132000B7FF07BD38B588B0040001210220FFF7E0
:10133000FDFB01A801F06EF80020ADF806000720C3
:10134000ADF804005348210089B290FBF1F0ADF8EC
:1013500008004F4D01A9280000F0CAFF6020ADF839
:1013600010000120ADF812000020ADF81600022098
:10137000ADF8180004A9280000F0FFFF082128009C
:1013800001F07EF80121280001F06BF8012128000E
:1013900001F04CF801210520FFF7BAFB8020ADF8E1
:1013A000000018208DF8030003208DF80200694624
:1013B0003948FFF7D5FE09B030BD3849088070477D
:1013C0001FB501210420FFF7B1FB684601F022F8A8
:1013D0000020ADF8020041F61F40ADF80000C72024
:1013E000ADF804002E4C6946200000F081FF012278
:1013F0000121200001F029F80121200001F016F858
:1014000000211E20FFF753FF1E20FFF741FF1FBDE5
:101410001FB501210820FFF789FB684600F0FAFF9D
:101420000020ADF8020041F61F40ADF8000041F287
:101430008730ADF804001B4C6946200000F058FFCF
:1014400001220121200001F000F80121200000F01C
:10145000EDFF00213220FFF72AFF3220FFF718FFAF
:101460001FBD01B410490098086008680028FCD12D
:1014700001B070470C490868002802D00868401E77
:101480000860704700E100E000E400E018ED00E0D3
:101490000004004040548900000801403804004026
:1014A00000080040000C00405002002030B540F21F
:1014B000FF7C1CEA11541DBF1CEA135564456545A9
:1014C0003FE0641981EA030C6FF35F530CF0004CAA
:1014D00043F48013C90241F0004141EA505EC50265
:1014E0001100A5FB020200284FF00000EEFB0120D6
:1014F0004FF00001E3FB052118BF42F00102401844
:1015000000214941E3FB0E01A4F580640D0302D2E2
:1015100092184041494154F1010470DD450872F1CF
:10152000004250F1000051EB0451A1F5801102D4AA
:1015300041EA0C0130BD40F2FF7E4CEA0E51002022
:1015400030BD0CEA1355644518BF654581EA030CAC
:101550000CF0004C41D050EA410E1CBF52EA430E41
:1015600002E06146002030BD24422C441BD15FEADA
:10157000050EF6D0090302BF01460020AEF1140E9D
:10158000B1FA81F5AEEB050401FA05FE0C35C5F1A3
:10159000200100FA05F5C8404EEA000E6FF35F53D4
:1015A00043F480139CE733F00043B3FA83F504BFA0
:1015B000B2FA82FE75440B3D641BB5F1200E2FBFBD
:1015C00002FA0EF3AB40C5F1200E22FA0EFE38BF30
:1015D00043EA0E03AA40641C7CE750EA410E14BFA4
:1015E00052EA430E6FF000014FF4001515EB430F64
:1015F0008EBF194615EB410F9DE7B4D830BDD4F12D
:101600000104B4F120050FDAC4F12005520828BF07
:1016100042F0010210FA05FE01FA05F57244E2BF3C
:10162000E0402843E1400FE0352C9ADCC5F120046E
:1016300052EA400220FA05F218BF42F0010231FAE4
:1016400005F0A1400A43002172F1004250F1000070
:1016500051EB0C0130BD0EE00268436802440830D3
:101660005FEAC37C44BF4B445B1E52F804CB43F893
:1016700004CB091FF9D150F8041B0029ECD17047A5
:10168000010049B2002909D4012210F01F018A404B
:101690008D4903005BB25B0941F82320704710B409
:1016A000020052B2002A05D40A01884B040064B239
:1016B0001A5508E00A01864B040064B214F00F04C6
:1016C000234403F8042C10BC704718B591B00121D5
:1016D0000120FFF70FFA01214FF40170FFF718FA0C
:1016E0000420ADF8000000208DF803006946794819
:1016F000FFF736FD784C200000F0E0FE77480690BA
:1017000077480790002008900120099000200A9057
:1017100000200B904FF480700C904FF480600D907F
:1017200020200E904FF400500F900020109006A93A
:10173000200000F03CFF0121200000F056FF0021B6
:101740000B20FFF7ACFF0B20FFF79AFF01220221CD
:10175000200000F059FF0020019000208DF80800C3
:1017600001208DF809005FF46020039000200490B0
:1017700001208DF814005B4C01A9200000F08AFFC5
:10178000072301220221200000F0F2FF01212000A6
:1017900000F0B4FF0121200000F0A2FF200000F0C3
:1017A000BBFF200000F0BDFF0028FAD1200000F0B0
:1017B000C2FF200000F0C4FF0028FAD10121200060
:1017C00000F0C8FF12B010BD18B591B00121022081
:1017D000FFF790F9012148F20400FFF799F908207A
:1017E000ADF8000000208DF8030069463948FFF786
:1017F000B7FC3D4C200000F061FE3C4806903C48A0
:101800000790002008900120099000200A900020F5
:101810000B904FF480700C904FF480600D9020205E
:101820000E904FF400500F900020109006A9200059
:1018300000F0BDFE0121200000F0D7FE00213B207A
:10184000FFF72DFF3B20FFF71BFF012202212000A5
:1018500000F0DAFE0020019000208DF80800012041
:101860008DF809005FF460200390002004900120AF
:101870008DF814001F4C01A9200000F00BFF072376
:1018800001220321200000F073FF0121200000F05D
:1018900035FF0121200000F023FF200000F03CFF75
:1018A000200000F03EFF0028FAD1200000F043FFA6
:1018B000200000F045FF0028FAD10121200000F0AF
:1018C00049FF12B010BD000000E100E000E400E0BC
:1018D00018ED00E000080140080002404C240140DF
:1018E0004802002000240140580402404C3C0140C2
:1018F0004C020020003C014010B586B0012144F2AA
:101900000400FFF705F95948016851F00101016031
:101910004FF40070ADF8000018208DF8030003208C
:101920008DF80200524C69462000FFF719FC4FF475
:101930008060ADF8000003208DF8020004208DF8CF
:10194000030069462000FFF70BFC2020ADF80000E3
:1019500003208DF8020010208DF803006946200056
:10196000FFF7FEFB5FF4E13002900020ADF80C00C1
:101970000020ADF80E000020ADF810000020ADF8FA
:1019800014000C20ADF812003A4C02A9200000F01F
:101990007DFF0121200000F0E7FF012240F22551E8
:1019A000200000F0F0FF25208DF8040000208DF8C5
:1019B000050000208DF8060001208DF8070001A821
:1019C00001F078F806B010BD01002B480278642AB7
:1019D00007DA2A4A0378D1540278521C0270002098
:1019E00000E001207047F8B50400254D2868642800
:1019F000FBD0204E40F2277700223900300000F063
:101A0000C2FF2868002805D18021300000F0FBFFCC
:101A1000002813D11B4801684A1C02601A4A54541A
:101A20000168642901D1002101602868401C2860F8
:101A300001223900300000F0A6FF05E02100C9B204
:101A400089B2300000F0D7FFF1BD38B505000C00B9
:101A500020210748FFF708FC002C05D02878FFF765
:101A6000C2FF6D1C641EF7E731BD00001810024074
:101A700000080140003801406802002044000020B6
:101A80005C020020540200200C010020904205D18D
:101A9000994204D041EA030C50EA4C0C70474FF4D1
:101AA000001C1CEB410F38BF89427047C0F3C7517F
:101AB00081B1FF2906D0C110400721F0E04101F1BA
:101AC0006051704741020CBF40F4E0016FF00041EB
:101AD0000020704700F0004100020AD0B0FA80FCFC
:101AE00000FA0CF001F16051A1EB0C5101EBD02197
:101AF0004005704770B491EA030F4FF0004540F184
:101B0000BF806B40841A71EB030604D26E40001B49
:101B1000B141121973414FF4001C1CEB410F34BF4B
:101B20007CEB430683E00C0DA4EB1356362E00F33A
:101B30007C80012E45EAC32341DC43EA525312BFA5
:101B4000D20292025B08240545EAC12141EA5051C4
:101B5000D2EBC020994125D407D1B0FA80F610FA13
:101B600006F162D00020203608E0B1FA81F6B140DB
:101B7000C6F1200220FA02F21143B0404FEAF47499
:101B8000B4EB465434F001064FEA74040AD8D6F593
:101B90000016760D04F00044F04061FA06F2504061
:101BA000F1404840C00A40EA415021F0004128BFBE
:101BB0005FEA500550F1000044EBD12135E0DB0A2B
:101BC00045EAC121C90AB6F120050EDD42EA02420A
:101BD000120CC5F1200603FA06F6EB4042EA0605B0
:101BE0006D42984161F100010DE062FA06F5F240A4
:101BF000554063FA06FC82EA0C02F3405A406D42FB
:101C0000904161EB030111F4801F05D1641E620550
:101C100002D06D004041494121F48011430875F123
:101C2000004350F1000041EB045170BC70471CEBC5
:101C3000410F15D223F0004352EA43060BD04FEA7E
:101C40004C0CBCEB410F04D80C0D661E342EB7DDD6
:101C5000EBE7801A994150EA410608BF0021E4E70A
:101C600008BF1CEB430F28BF6FF00001DDE7000049
:101C700070B491EA030F4FF000457FF543AF6B401E
:101C8000841A71EB030603D2001BB1411219734190
:101C90004FF4001C1CEB410F34BF7CEB430442E0CB
:101CA0000C0DA4EB1356352E4FDC45EAC323DB0A9B
:101CB00045EAC121C912B6F120050DDD63FA05F62A
:101CC000EB4086EA0305124218BF45F00105C01833
:101CD00051F100010CD213E062FA06F5F2405540D2
:101CE000F3415A40B340F3405A408018594107D35A
:101CF00049085FEA30005FEA350528BF45F0010575
:101D000001F58011420875F1004250F1000041EBED
:101D100004514E0016F5001F70BC38BF70470020FC
:101D2000090D090570471CEB410F10D252EA43061A
:101D30000BD0BCEB410F05D80C0DAB43661E342E07
:101D4000B6DD02E0AB438018594170BC704770BCEF
:101D500070470000C1F30A5340F21E42D31A0CDD53
:101D6000CA0283F3070342EA505242F00042DA40CB
:101D700002EBE17282EAE17070476FEAE17203F20E
:101D8000E13008B182F000407047002848BF40426F
:101D90007047000010F0004160B148BF4042B0FA07
:101DA00080F29040D21CC2F5846241EA025202EBFA
:101DB000D02140057047000041EA030C50EA4C0C6A
:101DC00052EA0C0C4FF4001C09D307D01CEB410F56
:101DD0009CBF1CEB430F8B4208BF824270471CEB39
:101DE000430FFBD8994208BF90427047F0B540F2CC
:101DF000FF7581EA030C0CF0004C15EA11541DBF6D
:101E000015EA1357AC42AF42E5E0BC41C1F3130100
:101E1000C3F31303801A994143F4801304D2641E60
:101E20000018494180185941C90241EA5051B1FB9B
:101E3000F3F603FB1611A2FB0675D7EBC020A941F0
:101E400002D2761E80185941C90241EA5051B1FBB5
:101E5000F3FE03FB1E11A2FB0E75D7EBC020A941B8
:101E600003D2AEF1010E80185941890241EA905126
:101E7000760546EA8E2EB1FBF3F603FB1611A2FBA4
:101E80000675D7EB8020A94102D2761E80185941F1
:101E9000C90241EA50514EEA060EB1FBF3F603FBCC
:101EA0001611A2FB0675D7EBC020A94102D2761EFF
:101EB00080185941C90241EA5051B1FBF3F703FBC5
:101EC0001711A2FB0735D3EBC020A94167F100072A
:101ED0000CBF004247F0010766F3D5274FEA1E31D9
:101EE000B80814F5806412DDBD0775F1004250EBAF
:101EF0000E5051EB045111F5801F5CBF41EA0C01FB
:101F0000F0BD4CF07F6141F0E0410020F0BDBD0725
:101F10006D0840EA0E5041F48011D4F10104B4F18F
:101F200020060ADAC4F120060200E04001FA06F3B6
:101F3000E1401843B24015430EE0342C13DCC6F1E7
:101F4000200445EA40056D0820FA06F2154321FAFF
:101F500006F0A1400D43002175F1004250F1000050
:101F600051EB0C01F0BD00205FEA0C01F0BDCFB9D0
:101F700092185B41B3FA83F704BFB2FA82F6BF1935
:101F80000B3FB7F120062FBF02FA06F3BB40C7F1A3
:101F9000200622FA06F638BF3343BA401CB1E419D2
:101FA000641E33E77F4231F00041B1FA81F404BF8F
:101FB000B0FA80F6A4190B3CB4F120062FBF00FA4A
:101FC00006F1A140C4F1200620FA06F638BF3143DD
:101FD000A0403C1B1AE7AC421ABF05EA1357AF42B8
:101FE00012E050EA41061CBF52EA4306BFE750EA3E
:101FF0004107304661461CBF41EA0551F0BD52EA37
:10200000430C08BFC143F0BD00204FF4001616EB8F
:10201000410F98BF16EB430F08BF16EB410F24BFCB
:10202000C14305E016EB430F0CBF61464CEA055176
:10203000F0BD000050B1B0FA80F18840C91CC1F574
:102040008461090501EBD0214005704701467047C6
:1020500001F000428B1AA3F16051B1F5801F0ADB39
:10206000B1F17F6F1FD242EAC102C10071F100419C
:1020700042EB507070470B15C3F10903212B10D2AE
:10208000890241EA905180020128494141F0004112
:1020900021FA03F0C3F12003994071F1004150414E
:1020A0007047100070476FF0000013EB103F5CBFEB
:1020B000000E42EAC050704710B504004348844205
:1020C0000AD101215FF40010FEF73EFD00215FF40C
:1020D0000010FEF739FD09E001215FF48000FEF7F2
:1020E00033FD00215FF48000FEF72EFD10BD2DE9C9
:1020F000F84785B005000E0000275FF000085FF08C
:102100000409DFF8CCA0AC884FF6C07004406846E4
:10211000FEF784FC02992F48B1FBF0F21443AC8027
:102120002B884FF6FE7003402B8000233068DFF8C9
:10213000A8C060450DD230684000B1FBF0F420002B
:1021400080B2042801DA042004002343501C2884B0
:1021500023E0F0884BF6FF74A04205D134680320D9
:102160004443B1FBF4F406E0346819204443B1FB66
:10217000F4F454F48044200501D154F001042343C5
:1021800053F400431700BFB24FF4967047434FF427
:102190007A7097FBF0F0401C2884AB83288850F0BD
:1021A000010028802F884FF6F5300740B08807439C
:1021B000708907432F80B6F80CC0308950EA0C0CA8
:1021C000A5F808C006B0BDE8F08700000054004044
:1021D00000127A0040420F00A18601000A00D2B22C
:1021E000002A04D0028852F00102028004E0038831
:1021F0004FF6FE721340038070470A00D2B2002AE5
:1022000004D0028852F48072028004E003884FF602
:10221000FF621340038070470A00D2B2002A04D044
:10222000028852F40072028004E003884FF6FF52E5
:102230001340038070470A00D2B2002A04D00288FB
:1022400052F48062028004E003884FF6FF321340AC
:10225000038070470A00D2B202827047008AC0B27F
:1022600070471300DBB2002B02D051F0010101E0F6
:1022700011F0FE010B00DBB203827047F0B50200E3
:102280000020002500270023968AB2F818C05FEAD4
:102290000C4C5CEA060424F07F4411EA040E8E45DF
:1022A00001D1012000E00020C0B2F0BD82B00200E8
:1022B0000023002001900020009000920800000FF1
:1022C000019021F07F410198002803D0009814303C
:1022D000009003E0090C0098183000900098006806
:1022E000084201D0012000E00020C0B202B07047D7
:1022F00010B400220488434B98420FD0DFF8A82185
:1023000090420BD0B0F1804F08D03F4A904205D0A8
:102310003E4A904202D03E4A904204D14FF68F721C
:1023200014404A881443DFF87821904208D0DFF83F
:102330007421904204D04FF6FF421440CA881443DF
:1023400004808A8882850A88028598420FD0DFF847
:10235000582190420BD0DFF85421904207D0DFF88B
:102360005021904203D0DFF84C21904201D10A7AEB
:1023700002860122828210BC7047F0B4002600273A
:102380005FF0000C038C4FF6EF7213400384038C54
:102390008488058B48F6FF7215404FF6FF421540C2
:1023A0000A8855EA02254FF6DF7213400A8953EA7C
:1023B00002134A8853EA0213124A904203D0DFF80C
:1023C000F820904217D14FF67F7213404A8953EAA2
:1023D00002134FF6BF7213408A8853EA02134FF676
:1023E000FF3214404FF2FF7214408A8954EA82048B
:1023F000CA8954EA820484800583CA8802870384D8
:10240000F0BC7047002C0140000400400008004070
:10241000000C00404FF6FF718180002101800021F7
:10242000C180002141800021017270470A00D2B2B0
:10243000002A04D0028852F00102028004E00388DE
:102440004FF6FE721340038070471300DBB2002B7F
:1024500003D083890B43838102E083898B4383818B
:1024600070470A00D2B2002A04D0028852F08002DB
:10247000028004E003884FF67F72134003807047A8
:1024800010B40023048B4FF2FF72144054EA01246D
:10249000048310BC70470A0092B2D2430282704794
:1024A0000010004000140040003401400040014092
:1024B00000440140004801400034014002684FF6EA
:1024C000FE710A400260002101600021416000218C
:1024D00081600021C1605F49884205D15E490A6878
:1024E00052F00F020A6061E05C49884205D15A4906
:1024F0000A6852F0F0020A6058E05949884205D152
:1025000055490A6852F470620A604FE055498842A2
:1025100005D151490A6852F470420A6046E05249B6
:10252000884205D14C490A6852F470220A603DE0A5
:102530004E49884205D148490A6852F470020A603F
:1025400034E04B49884205D143490A6852F0706231
:102550000A602BE04749884205D147490A6852F092
:102560000F020A6022E04549884205D142490A68C3
:1025700052F0F0020A6019E04149884205D13E4913
:102580000A6852F470620A6010E03E49884205D140
:1025900039490A6852F470420A6007E03A498842B1
:1025A00004D135490A6852F470220A60704710B4A9
:1025B000002304686FF30E148A6814430A6A1443F4
:1025C0000A6914434A6914438A691443CA69144363
:1025D0004A6A14438A6A14430460CA6842600A68FB
:1025E00082604A68C26010BC70470A00D2B2002AFA
:1025F00004D0026852F00102026004E003684FF662
:10260000FE721340036070471300DBB2002B03D04F
:1026100003680B43036002E003688B430360704769
:10262000010000220020CB0002D5184B1B6801E0FE
:10263000174B1B680B4201D0012000E00020C0B204
:102640007047C10002D50C49086001E002490860EA
:102650007047000008000240040002401C000240D5
:102660003000024044000240580002406C0002402A
:102670008000024008040240040402401C0402409E
:102680003004024044040240580402400004024066
:1026900000000240F0B4002300244568DFF8E42184
:1026A00015400A6815430A7955EA0225456086688F
:1026B000DFF8D4211640CA6816438A6816434A795F
:1026C00056EA42068660C76A37F470070A7C521ED3
:1026D00014432200D2B257EA0257C762F0BC7047D7
:1026E0000A00D2B2002A04D0826852F0010282604D
:1026F00003E0826852085200826070470A00D2B23A
:10270000002A04D0826852F48072826003E08268FA
:1027100032F4807282607047816851F008018160F4
:102720007047010000228868000701D5012000E001
:102730000020C0B27047816851F004018160704789
:10274000010000228868400701D5012000E0002038
:10275000C0B270470A00D2B2002A04D0826852F494
:10276000A002826003E0826832F4A00282607047B7
:102770002DE9F04100275FF0000C0C00E4B20A2CB8
:1027800016DBC5680726B1F10A0E032404FB0EFE12
:1027900016FA0EFE35EA0E0598465FFA88F8B1F192
:1027A0000A060324664318FA06F63543C56011E0AD
:1027B00005690726032404FB01F416FA04F4A54373
:1027C0009E465FFA8EFE032606FB01F61EFA06F60B
:1027D000354305611400E4B2072C19DA476B5FF04A
:1027E0001F0CB2F1010E052404FB0EFE1CFA0EFEB6
:1027F00037EA0E0788465FFA88F8B2F1010C052423
:1028000004FB0CFC18FA0CFC5CEA0707476336E093
:102810001400E4B20D2C19DA076B5FF01F0CB2F153
:10282000070E052404FB0EFE1CFA0EFE37EA0E0707
:1028300088465FFA88F8B2F1070C052404FB0CFC0B
:1028400018FA0CFC5CEA0707076318E0C76A5FF038
:102850001F0CB2F10D0E052404FB0EFE1CFA0EFE39
:1028600037EA0E0788465FFA88F8B2F10D0C0524A6
:1028700004FB0CFC18FA0CFC5CEA0707C762BDE815
:10288000F0810000FFFEF0FFFDF7F1FF2DE9F84FAA
:1028900086B004000D00002600275FF000085FF0FE
:1028A00000095FF0000AA8890028A346218A4CF697
:1028B000FF700140E8880143009100982082A189BF
:1028C0004EF6F3100140A888014328890143688926
:1028D000014300910098A081A18A4FF6FF4001407A
:1028E000A889014300910098A08201A8FEF796F8FC
:1028F0001C48834501D1049900E00399A089000494
:1029000007D5192000FB01F02A685200B0FBF2F253
:1029100006E0192000FB01F02A689200B0FBF2F2F9
:102920006420B2FBF0F6360133001B097FF0630030
:1029300000FB0323A089000408D5D80032306427A7
:10294000B0FBF7F010F00700064307E01801323043
:102950006427B0FBF7F010F00F000643268107B0A4
:10296000BDE8F08F003801400A00D2B2002A04D03E
:10297000828952F40052828104E083894DF6FF720D
:102980001340838170472DE9F04100230025002783
:102990005FF0000E0C0040F66A16A4B2B442804606
:1029A0000C00E4B26409E4B20E00B6B216F01F06E1
:1029B0005FF0010C1CFA06FC012C02D118F10C0886
:1029C00006E0022C02D118F1100801E018F11408F9
:1029D0001300DBB2002B06D0D8F800305CEA03030A
:1029E000C8F8003005E0D8F8003033EA0C03C8F826
:1029F0000030BDE8F081CA05D20D82807047808822
:102A0000C005C00D704702000023080080B2B0F579
:102A1000007F1088084201D0012000E00020C0B2F1
:102A20007047F0B4040000270020002200260B00AD
:102A300040F66A159BB2AB420D00EDB26D09EDB2E6
:102A40000B009BB213F01F035FF0010C1CFA03F3A1
:102A5000012D02D1A089034006E0022D02D1208A77
:102A6000034001E0A08A03400A0092B2120A92B227
:102A70001CFA02F220880240002B03D0002A01D069
:102A8000012000E00020C0B2F0BC704770B400220A
:102A900000240B0040F66A159BB2AB420B009BB2C0
:102AA0001B0A01259D402E00B6B2F643068070BC7D
:102AB00070470000F0B4002200230F24C1780029E1
:102AC0001FD01649096811F4E061D1F5E061090AE7
:102AD000D1F104052B00CC4045789D4086782640F6
:102AE00035432D012A000E4D0678AA55012506789A
:102AF00016F01F06B5400B4E07787F1146F8275099
:102B000009E00121057815F01F05A940064D06785A
:102B1000761145F82610F0BC704700000CED00E07F
:102B200000E400E000E100E080E100E0FEE7FEE715
:102B3000FEE780B5FEF79EFC84480168491C0160F1
:102B400001BD80B501215FF08040FFF7A4FC0021AA
:102B50005FF08040FFF76AFCFEF779F901BD80B5B0
:102B600001217B48FFF797FC01BD80B50121794821
:102B7000FFF791FCFDF7DDFC01BD80B50121764832
:102B8000FFF789FC754801780A290DDB0521002033
:102B9000FEF743F904210020FEF73FF97048016871
:102BA00091F01001016002E00178491C017001BD43
:102BB00070B50220FFF734FD01282DD1694C216842
:102BC0006948006841182160684D2868401C2860E9
:102BD00067482968026891421ED1664E21680068E4
:102BE000B1FBF0F0FFF726FAC6E90001D6E90001D3
:102BF000FDF792FB00202860002020605E480168FD
:102C0000491C016001684FF47A7041434F480068E5
:102C1000B1FBF0F0594908600220FFF712FD70BDCA
:102C20002DE9F047564C2000FFF7FAFC01282ED181
:102C3000544D29685448006841182960534E306843
:102C4000401C3060DFF848A13068DAF80010884294
:102C50001DD1504F2868FFF7EDF980468946DAF814
:102C60000000FFF7E7F900224B4BFFF7BFF8020027
:102C70000B0040464946FFF7B9F8C7E90001D7E91C
:102C80000001FDF79BFB0020306000202860200041
:102C9000FFF7D7FCBDE8F08738B5404C20888006A8
:102CA00010D500203E49088001215FF08040FFF7E9
:102CB000BDFB2000FFF7A3FEC0B2FEF785FE00209B
:102CC0002649087040F2277529002000FFF7A9FE69
:102CD000012825D129002000FFF7D8FE31490868D6
:102CE000002812D00868401E08602F4D2868411C3B
:102CF00029602E49095C89B22000FFF77CFE286814
:102D000064280DD1002028600AE00022290020005C
:102D1000FFF739FE012240F226612000FFF733FE63
:102D200040F2266529002000FFF77BFE00280CD02A
:102D300029002000FFF7AAFE20211D48FEF798FA7F
:102D4000002229002000FFF71EFE31BD44020020B2
:102D50000004004000080040000C00406702002012
:102D60000C140140340200204802002038020020E8
:102D700024000020F80100202C0200203002002056
:102D8000000002103C0200204C0200204002002003
:102D900028000020000200200000244000380140EC
:102DA000240000405C020020580200200C0100209A
:102DB0000008014080B54249086850F001000860F1
:102DC000404A13684048034013600B683F48034083
:102DD0000B60086830F480200860106830F4FE0052
:102DE00010605FF41F003A49086000F005F85FF0DA
:102DF00000603849086001BD80B500F001F801BDF0
:102E000082B000200190002000902D49086850F405
:102E100080300860086810F4003000900198401C71
:102E200001900098002803D10198B0F5A06FF1D16E
:102E30000868800302D50120009001E00020009086
:102E40000098012839D12448026852F0100202602B
:102E50000268920892000260026852F00202026068
:102E600018480268026002680260026852F48062D8
:102E70000260026832F480420260026852F400424A
:102E80000260026832F47C120260026852F4F812A6
:102E900002600A6852F080720A600A689201FCD5EA
:102EA0000168890889000160016851F00201016030
:102EB000016811F00C010829FAD102B07047000036
:102EC00000100240041002400000FFF8FFFFF6FE71
:102ED0000810024008ED00E0002002403333333395
:102EE0003333E33F7B14AE47E17AA43F0000000098
:102EF0000094D140FA000000B81EC53F1F852B3F4B
:102F0000AC030000AC030000000000000102030459
:102F10000102030406070809020406080100000074
:102F200030B4002512E050F8042BD30744BF4A44C4
:102F3000521E091F042942F8045BFAD213468C077B
:102F400044BF15809B1CC90748BF1D7050F8041B67
:102F50000029E8D130BC704710B5074979441831D1
:102F6000064C7C44163404E00A68081D1144884766
:102F70000146A142F8D110BD080000002800000061
:102F8000A1FFFFFF28020000440000200000000015
:102F9000C7E6FFFF4400000044FFFFFF00000020E1
:102FA0000000000000F00DF8002801D0FFF7D4FF6A
:102FB000AFF300800020AFF30080FDF7ECF800F0E5
:102FC00002F80120704700F001B8000007463846BB
:102FD00000F002F8FBE7000080B5AFF30080024A82
:102FE00011001820ABBEFBE7260002000548014691
:102FF00003B4684680F30988AFF30080AFF3008024
:10300000FFF7D0FFA5EDF5FE0148804701480047D6
:10301000B52D0008ED2F0008FFF7FEBFFFF7FEBF3C
:10302000FFF7FEBFFFF7FEBFFFF7FEBFFFF7FEBFD4
:10303000FFF7FEBFFFF7FEBFFFF7FEBFFFF7FEBFC4
:10304000FFF7FEBFFFF7FEBFFFF7FEBFFFF7FEBFB4
:10305000FFF7FEBFFFF7FEBFFFF7FEBFFFF7FEBFA4
:10306000FFF7FEBFFFF7FEBFFFF7FEBFFFF7FEBF94
:10307000FFF7FEBFFFF7FEBFFFF7FEBFFFF7FEBF84
:10308000FFF7FEBFFFF7FEBFFFF7FEBFFFF7FEBF74
:10309000FFF7FEBFFFF7FEBFFFF7FEBFFFF7FEBF64
:1030A000FFF7FEBFFFF7FEBFFFF7FEBFFFF7FEBF54
:1030B000FFF7FEBFFFF7FEBFFFF7FEBFFFF7FEBF44
:1030C000FFF7FEBFFFF7FEBFFFF7FEBFFFF7FEBF34
:1030D000FFF7FEBFFFF7FEBFFFF7FEBFFFF7FEBF24
:1030E000FFF7FEBFFFF7FEBFFFF7FEBFFFF7FEBF14
:1030F000FFF7FEBFFFF7FEBFFFF7FEBFFFF7FEBF04
:0400000508002FEDD3
:00000001FF
