:020000040800F2
:10000000000A00203526000845260008FD1E0008CD
:10001000FF1E0008011F000849260008000000001C
:100020000000000000000000000000004D26000855
:10003000512600080000000055260008031F000894
:10004000592600085D26000861260008652600087C
:10005000692600086D26000871260008752600082C
:10006000792600087D26000881260008811F0008E7
:1000700085260008892600088D260008912600089C
:1000800095260008992600089D260008A12600084C
:10009000A5260008A9260008AD260008B1260008FC
:1000A000B5260008B9260008BD260008C1260008AC
:1000B000131F00082F1F00083B1F0008C52600085B
:1000C000C9260008CD260008D1260008D52600083C
:1000D000D926000869200008DD260008E12600086E
:1000E000E5260008E9260008ED260008F1260008AC
:1000F000F5260008F9260008FD260008012700085B
:1001000005270008092700084B1F00080D270008D5
:100110001127000815270008192700081D270008C7
:10012000212700082527000829270008F11F0008BB
:1001300010B4020052B2002A06D40A01DFF8F433E8
:10014000040064B21A5509E00A01DFF8EC33040038
:1001500064B214F00F04234403F8042C10BC70475D
:1001600010B50400601EB0F1807F01D3012011E0C2
:10017000601EDFF8C81308600F215FF0FF30FFF743
:10018000D7FF0020DFF8B81308600720DFF8B413AA
:100190000860002010BD30B585B0684600F010FA48
:1001A00001984FF47A71B0FBF1F0FFF7D9FF00F03E
:1001B000AFFA0024032C1FDADFF88C530221280049
:1001C00000F044FB642000F02FFC0121280000F027
:1001D0003DFB642000F028FC0221280000F032FBE7
:1001E000642000F021FC0121280000F02BFB64209A
:1001F00000F01AFC641CDDE7DFF85043D4E900236B
:100200000020DFF84C1300F037FCDFF84823C2E988
:100210000001D4E90001DFF84023C2E900014FF4F6
:10022000FA7000F061FB142000F0FEFB00F033FDDB
:1002300000F0B4FD00F0A7FBC84C00F0EAF8207015
:10024000207800F043FE00F02AFB00F0E3FF00F00E
:10025000C2FB052000F061FEC1490880092000F0C2
:100260005CFE0028F5D0B84C4FF40051200000F09F
:10027000E9FA4FF47A7000F0D7FB4FF400512000F8
:1002800000F0E4FA0921002000F039FEE1E770B542
:1002900004000D00B048D0E90023AC4ED6E90001BF
:1002A00001F082F803D10020AE4908600DE0AE48AD
:1002B000AE4922002B0000F0DFFB0022AC4B01F026
:1002C00083F801F0B1F9A7490860AA48007800282E
:1002D00011D1042000F021FE002803D1A1480068BC
:1002E000012804DB0121984800F0B0FA03E0012165
:1002F000954800F0A7FA01219A48006880B200F002
:10030000FEFD70BD2DE9F84304000D00200029001A
:100310000022994B01F0A4F913D2984E98489949BC
:1003200022002B0000F0A8FB0022974B01F04CF8B4
:1003300001F07AF930603068002810D50020306074
:100340000DE09248924922002B0000F095FB00221C
:10035000904B01F039F801F067F9884908600620F0
:1003600000F0DBFD854E80B23168884232DADFF87A
:10037000D8810221404600F069FA874F387800287A
:1003800014D101203870002084490870002084496D
:1003900008608448006884490860032000F0BDFDBF
:1003A0000321401C80B200F0AAFD1AE07D480068DD
:1003B0007D490968401A01F06DF98146082000F076
:1003C000ACFD81450DDB002038700221404600F075
:1003D00039FA06E000207049087002215A4800F0FE
:1003E00031FA6E48007800280CD16D4801683268F7
:1003F00091420CDA316801600221006880B200F09D
:100400007EFD04E00221306880B200F078FDBDE896
:10041000F183F8B50121202000F04CF90F20ADF850
:10042000000003208DF8020048208DF803005F4F84
:100430006946380000F082F90121380000F0F4F933
:1004400004000221380000F0EFF905000421380013
:1004500000F0EAF906000821380000F0E5F9E400B0
:10046000D4F10F04B4EB8504B4EB4604241A200045
:10047000C0B2F2BD38B53A49B1F90000002805D143
:100480003248D0E900233448C0E9002348483B4AB9
:1004900013680468A34213DB324B1B68B1F90040B8
:1004A000A3420DDA00681168401A01F0F7F8414CD8
:1004B000D4E9002300F0E0FA3F4AC2E900010EE06F
:1004C000B1F9000027490968401A01F0E7F83B4CF0
:1004D000D4E9002300F0D0FA374AC2E900011E4CEB
:1004E000D4E90001344DD5E9002301F02BF8C4E92B
:1004F0000001184DD4E90001D5E9002301F0B0F85E
:1005000004D2D5E90001C4E900010BE00F4DD5E9A3
:100510000001D4E9002301F0A3F803D2D5E90001DA
:10052000C4E90001D4E9000101F07EF880B200F0D6
:1005300027FA31BD00E400E018ED00E014E000E02F
:1005400018E000E010E000E0000C01401000002086
:100550000000E03F8801002080010020F901002018
:10056000F4010020A8010020E561A1D634EFF83F96
:1005700000001A40FB01002000E88340AC0100208D
:10058000613255302AA9B33F000012C0A01A2FDDF6
:100590002406B13F0000F83FF80100203A00002097
:1005A000B0010020B8010020B40100200014014077
:1005B000180000200000002090010020080000200A
:1005C0002DE9F04F01000022002500200026474FB2
:1005D000D7F800C01CF00C0C6346002B04D0042B91
:1005E00005D0082B06D023E0414A0A6022E0414AA8
:1005F0000A601FE03A6812F470123B6813F480330B
:100600001800920C921C1500002804D13A4A02FBF3
:1006100005F20A600BE03A68920304D5344A02FB03
:1006200005F20A6003E0334A02FB05F20A6001E0CA
:100630002F4A0A603C6814F0F0042409DFF8BC90EB
:1006400019F804E00A6832FA0EF24A603B6813F4C3
:10065000E0631B0A19F803804A6832FA08F28A60DC
:100660003A6812F46052D20A19F80290D1F804A044
:100670003AFA09FAC1F80CA03F6817F44047BF0BDB
:10068000DFF87CA01AF807A0D1F80CB0BBFBFAFB8E
:10069000C1F810B0BDE8F08F0A00D2B2002A04D031
:1006A000184A13680343136003E0164A1368834330
:1006B000136070470A00D2B2002A04D0124A1368AD
:1006C0000343136003E0104A1368834313607047C9
:1006D0000A00D2B2002A04D00C4A13680343136004
:1006E00003E00A4A13688343136070470410024012
:1006F00000127A000024F40000093D0024000020CC
:100700003400002014100240181002401C10024057
:1007100080B501210820FFF7CDFF42F20300ADF8BC
:10072000000003208DF8020010208DF803006946B8
:10073000014800F003F801BD000C0140F0B50022B3
:100740000023002400250026002791F803C01CF098
:100750000F0C91F803E05FEACE6E02D58A7852EA78
:100760000C0C0A88D2B2002A2AD002681600002295
:100770001400082C23D25FF0010E1EFA04F21500BB
:100780000A882A401300AB4217D1A20015000F229D
:10079000AA401700BE431CFA05F21643CA78282A5D
:1007A00004D11EFA04FEC0F814E006E0CA78482A14
:1007B00003D11EFA04FEC0F810E0641CD9E70660FD
:1007C0000A88B2F5807F2EDB4268160000221400F2
:1007D000082C27D25FF0010E14F108021EFA02F273
:1007E00015000A882A401300AB4219D1A200150057
:1007F0000F22AA401700BE431CFA05F21643CA781E
:10080000282A04D114F108021EFA02F24261CA78C1
:10081000482A05D114F108021EFA02FEC0F810E0C1
:10082000641CD5E74660F0BD10B402000023906858
:100830000C00A4B2204201D0012000E00020C0B290
:1008400010BC70470A0092B2026170470A0092B26F
:1008500042617047010049B2002909D4012210F019
:100860001F018A40794903005BB25B0941F82320EC
:10087000704710B4020052B2002A05D40A01744B2A
:10088000040064B21A5508E00A01724B040064B215
:1008900014F00F04234403F8042C10BC7047E0B597
:1008A00001210120FFF714FF684600F09BFF0020A4
:1008B000ADF802004720ADF8000040F2E730ADF897
:1008C000040069465FF0804000F0FAFE0122012139
:1008D0005FF0804000F0A1FF00211C20FFF7C9FF5E
:1008E0001C20FFF7B7FF07BD38B588B00400012111
:1008F0000220FFF7EDFE01A800F074FF0020ADF824
:1009000006000720ADF804005448210089B290FB8E
:10091000F1F0ADF80800504D01A9280000F0D0FE1C
:100920006020ADF810000120ADF812004C4800889E
:10093000ADF816000020ADF8180004A9280000F05A
:1009400004FF0821280000F083FF0121280000F0A7
:1009500070FF0121280000F051FF01210520FFF761
:10096000A9FE8020ADF8000018208DF803000320B8
:100970008DF8020069463B48FFF7E0FE09B030BD44
:100980003949088070471FB501210420FFF7A0FEF8
:10099000684600F027FF0020ADF8020041F61F4036
:1009A000ADF80000C720ADF80400304C69462000C7
:1009B00000F086FE01220121200000F02EFF01211F
:1009C000200000F01BFF00211E20FFF752FF1E2019
:1009D000FFF740FF1FBD1FB501210820FFF778FE7C
:1009E000684600F0FFFE0020ADF8020041F61F400F
:1009F000ADF8000041F28730ADF804001C4C6946A8
:100A0000200000F05DFE01220121200000F005FF22
:100A10000121200000F0F2FE00213220FFF729FF23
:100A20003220FFF717FF1FBD01B41249009808607C
:100A300008680028FCD101B070470E4908680028FA
:100A400002D00868401E08607047000000E100E026
:100A500000E400E018ED00E000040040405489008C
:100A60003800002000080140380400400008004021
:100A7000000C0040E401002030B540F2FF7C1CEA8D
:100A800011541DBF1CEA1355644565453FE06419C8
:100A900081EA030C6FF35F530CF0004C43F48013B6
:100AA000C90241F0004141EA505EC5021100A5FBB8
:100AB000020200284FF00000EEFB01204FF0000181
:100AC000E3FB052118BF42F0010240180021494113
:100AD000E3FB0E01A4F580640D0302D2921840419D
:100AE000494154F1010470DD450872F1004250F1B2
:100AF000000051EB0451A1F5801102D441EA0C0130
:100B000030BD40F2FF7E4CEA0E51002030BD0CEAB1
:100B10001355644518BF654581EA030C0CF0004C81
:100B200041D050EA410E1CBF52EA430E02E061463A
:100B3000002030BD24422C441BD15FEA050EF6D0C4
:100B4000090302BF01460020AEF1140EB1FA81F58F
:100B5000AEEB050401FA05FE0C35C5F1200100FAE3
:100B600005F5C8404EEA000E6FF35F5343F480135F
:100B70009CE733F00043B3FA83F504BFB2FA82FE78
:100B800075440B3D641BB5F1200E2FBF02FA0EF326
:100B9000AB40C5F1200E22FA0EFE38BF43EA0E0329
:100BA000AA40641C7CE750EA410E14BF52EA430E8F
:100BB0006FF000014FF4001515EB430F8EBF19467F
:100BC00015EB410F9DE7B4D830BDD4F10104B4F169
:100BD00020050FDAC4F12005520828BF42F00102B7
:100BE00010FA05FE01FA05F57244E2BFE040284321
:100BF000E1400FE0352C9ADCC5F1200452EA4002B6
:100C000020FA05F218BF42F0010231FA05F0A140C6
:100C10000A43002172F1004250F1000051EB0C0137
:100C200030BD0EE002684368024408305FEAC37CCE
:100C300044BF4B445B1E52F804CB43F804CB091F5E
:100C4000F9D150F8041B0029ECD17047010049B2DA
:100C5000002909D4012210F01F018A408F490300A6
:100C60005BB25B0941F82320704710B4020052B216
:100C7000002A05D40A018A4B040064B21A5508E020
:100C80000A01884B040064B214F00F04234403F8F3
:100C9000042C10BC704718B591B001210120FFF75A
:100CA000FBFC01214FF40170FFF704FD0420ADF8B7
:100CB000000000208DF8030069467B48FFF73EFDE9
:100CC0007A4C200000F0E2FD7948069079480790C0
:100CD000002008900120099000200A9000200B902D
:100CE0004FF480700C904FF480600D9020200E9097
:100CF0004FF400500F900020109006A9200000F043
:100D00003EFE0121200000F058FE00210B20FFF7DD
:100D1000ACFF0B20FFF79AFF01220221200000F018
:100D20005BFE0020019000208DF8080001208DF866
:100D300009005FF4602003900020049001208DF8EA
:100D400014005D4C01A9200000F08CFE0723012255
:100D50000221200000F0F4FE0121200000F0B6FE88
:100D60000121200000F0A4FE200000F0BDFE2000C4
:100D700000F0BFFE0028FAD1200000F0C4FE2000E1
:100D800000F0C6FE0028FAD10121200000F0CAFEC2
:100D90000121200000F0C6FE12B010BD18B591B0C0
:100DA00001210220FFF778FC012148F20400FFF73F
:100DB00081FC0820ADF8000000208DF80300694692
:100DC0003948FFF7BBFC3D4C200000F05FFD3C487C
:100DD00006903C48079000200890012009900020D0
:100DE0000A9000200B904FF480700C904FF48060BC
:100DF0000D9020200E904FF400500F900020109086
:100E000006A9200000F0BBFD0121200000F0D5FD67
:100E100000213B20FFF729FF3B20FFF717FF0122AE
:100E20000221200000F0D8FD0020019000208DF864
:100E3000080001208DF809005FF460200390002075
:100E4000049001208DF814001F4C01A9200000F02F
:100E500009FE072301220321200000F071FE012179
:100E6000200000F033FE0121200000F021FE2000D0
:100E700000F03AFE200000F03CFE0028FAD12000ED
:100E800000F041FE200000F043FE0028FAD10121CD
:100E9000200000F047FE12B010BD000000E100E0AD
:100EA00000E400E018ED00E0000801400800024006
:100EB0004C240140DC010020002401405804024081
:100EC0004C3C0140E0010020003C0140B849087062
:100ED000B84940F201420A8000224A8000228A80FA
:100EE0000022CA8000220A8100224A81C8228A8107
:100EF0006422CA810A220A8200224A8270470200C2
:100F00000800C0B20A2801DB012005E0A9480B0057
:100F1000DBB220F813200020704701000800C0B2A7
:100F20000A2801DB002003E0A248C9B230F8110012
:100F3000704710B5A0490878082803DA0020087027
:100F400001203AE09D4A1078994B1B78984221D0B5
:100F5000107802281AD1D07A137B13EB0023547B2C
:100F6000240214EB0344907B041995480460D07D5F
:100F7000137E13EB0023507E927E12EB00220A2098
:100F800092FBF0F010EB03408E4A106000200870D6
:100F9000012012E05078032802D100F00FF80CE095
:100FA0005078062802D100F06DF806E0507810283D
:100FB00002D100F09FF800E0012010BD70B50020C4
:100FC0007D490870804C7D4D0621280000F002F913
:100FD0002080207800F0FF00A979884250D1208835
:100FE00080B2000A80B2E979884249D1A878002805
:100FF00044D16979E87841180B293FDA734E6C487F
:10100000007830700320707068794000B070002064
:101010006979884212DA6749EA78121831F81220A1
:1010200092B2120A06EB4003DA70EA78121831F82D
:10103000121006EB40021171401CE9E7687940008C
:10104000C01C010089B2300000F0C4F8208068792B
:1010500006EB40002188C170687906EB40002188CA
:1010600089B2090A017169794900491D300000F00F
:101070007AF9012056490870002002E0012000E0C2
:10108000012070BD70B500204B4908704F4C484896
:101090000078207006206070484DA878A070E8782D
:1010A000E0702879207168796071474E0621200030
:1010B00000F090F830803088A071308880B2000A4B
:1010C000E071A079A97988420ED1E079E979884266
:1010D0000AD1E8780A2807DA2879697951EA0021E3
:1010E0003448EA7820F812100821200000F03BF97B
:1010F000002070BD2DE9F0412F480478A41E002186
:101100000170314D2D4E2000010089B2300000F0F9
:1011100061F82880287800F0FF00315D884240D1D6
:10112000288880B2000A80B206EB04014978884220
:1011300037D1264F1E480078387010207870B0786C
:10114000B870F078F870307938715FF00008F07896
:101150000A2819DA00207179884215DAF1784118E5
:101160000A2911DA1349F278821806EB4003DB7979
:1011700006EB400C9CF808C01CEB032C21F812C0B5
:1011800018F10108401CE6E787F8058006213800C1
:1011900000F020F828802888B871288880B2000ADA
:1011A000F8710821094800F0DEF80020BDE8F08160
:1011B000FA01002068010020FC0100203C00002012
:1011C000B8010020BC010020F6010020A000002092
:1011D0003A00002030B403004FF6FF7000240A00EC
:1011E00092B2944213DA1A5D50400022082A0CDAB7
:1011F000C50706D580B205004AF2010090EA550005
:1012000001E080B24008521CF0E7641CE7E780B2BE
:1012100030BC704710B586B0012144F20400FFF7DE
:1012200049FA5948016851F0010101604FF400701A
:10123000ADF8000018208DF8030003208DF802009F
:10124000524C69462000FFF779FA4FF48060ADF800
:10125000000003208DF8020004208DF80300694689
:101260002000FFF76BFA2020ADF8000003208DF876
:10127000020010208DF8030069462000FFF75EFA97
:101280005FF4E13002900020ADF80C000020ADF8D2
:101290000E000020ADF810000020ADF814000C2066
:1012A000ADF812003A4C02A9200000F0D7FC012151
:1012B000200000F041FD012240F22551200000F005
:1012C0004AFD25208DF8040000208DF8050000203F
:1012D0008DF8060001208DF8070001A800F0D2FD6E
:1012E00006B010BD01002B480278642A07DA2A4AAA
:1012F0000378D1540278521C0270002000E00120D3
:101300007047F8B50400254D28686428FBD0204EAE
:1013100040F2277700223900300000F01CFD2868D9
:10132000002805D18021300000F055FD002813D1A0
:101330001B4801684A1C02601A4A54540168642917
:1013400001D1002101602868401C28600122390079
:10135000300000F000FD05E02100C9B289B2300084
:1013600000F031FDF1BD38B505000C002021074823
:10137000FFF768FA002C05D02878FFF7C2FF6D1C34
:10138000641EF7E731BD000018100240000801405C
:1013900000380140FC0100203C000020F00100204A
:1013A000E801002004010020904205D1994204D0B8
:1013B00041EA030C50EA4C0C70474FF4001C1CEB44
:1013C000410F38BF8942704770B491EA030F4FF064
:1013D000004540F1BF806B40841A71EB030604D2D4
:1013E0006E40001BB141121973414FF4001C1CEBFD
:1013F000410F34BF7CEB430683E00C0DA4EB135686
:10140000362E00F37C80012E45EAC32341DC43EAFB
:10141000525312BFD20292025B08240545EAC12151
:1014200041EA5051D2EBC020994125D407D1B0FAFE
:1014300080F610FA06F162D00020203608E0B1FAFA
:1014400081F6B140C6F1200220FA02F21143B04009
:101450004FEAF474B4EB465434F001064FEA7404D6
:101460000AD8D6F50016760D04F00044F04061FA73
:1014700006F25040F1404840C00A40EA415021F095
:10148000004128BF5FEA500550F1000044EBD12134
:1014900035E0DB0A45EAC121C90AB6F120050EDDB7
:1014A00042EA0242120CC5F1200603FA06F6EB40AE
:1014B00042EA06056D42984161F100010DE062FAD1
:1014C00006F5F240554063FA06FC82EA0C02F3404E
:1014D0005A406D42904161EB030111F4801F05D128
:1014E000641E620502D06D004041494121F4801123
:1014F000430875F1004350F1000041EB045170BC0A
:1015000070471CEB410F15D223F0004352EA43060B
:101510000BD04FEA4C0CBCEB410F04D80C0D661EEF
:10152000342EB7DDEBE7801A994150EA410608BF37
:101530000021E4E708BF1CEB430F28BF6FF0000158
:10154000DDE7000070B491EA030F4FF000457FF52E
:1015500043AF6B40841A71EB030603D2001BB14109
:10156000121973414FF4001C1CEB410F34BF7CEB8C
:10157000430442E00C0DA4EB1356352E4FDC45EA34
:10158000C323DB0A45EAC121C912B6F120050DDDEE
:1015900063FA05F6EB4086EA0305124218BF45F0F0
:1015A0000105C01851F100010CD213E062FA06F5F2
:1015B000F2405540F3415A40B340F3405A4080183E
:1015C000594107D349085FEA30005FEA350528BF73
:1015D00045F0010501F58011420875F1004250F116
:1015E000000041EB04514E0016F5001F70BC38BFDF
:1015F00070470020090D090570471CEB410F10D200
:1016000052EA43060BD0BCEB410F05D80C0DAB439F
:10161000661E342EB6DD02E0AB438018594170BC23
:10162000704770BC70470000C1F30A5340F21E427D
:10163000D31A0CDDCA0283F3070342EA505242F088
:101640000042DA4002EBE17282EAE17070476FEA31
:10165000E17203F2E13008B182F00040704700000F
:1016600041EA030C50EA4C0C52EA0C0C4FF4001CFB
:1016700009D307D01CEB410F9CBF1CEB430F8B42DF
:1016800008BF824270471CEB430FFBD8994208BF4A
:1016900090427047002848BF4042704710F0004118
:1016A00060B148BF4042B0FA80F29040D21CC2F50F
:1016B000846241EA025202EBD021400570470000EB
:1016C00010B400220488434B98420FD0DFF8A821C1
:1016D00090420BD0B0F1804F08D03F4A904205D0E5
:1016E0003E4A904202D03E4A904204D14FF68F7259
:1016F00014404A881443DFF87821904208D0DFF87C
:101700007421904204D04FF6FF421440CA8814431B
:1017100004808A8882850A88028598420FD0DFF883
:10172000582190420BD0DFF85421904207D0DFF8C7
:101730005021904203D0DFF84C21904201D10A7A27
:1017400002860122828210BC7047F0B40026002776
:101750005FF0000C038C4FF6EF7213400384038C90
:101760008488058B48F6FF7215404FF6FF421540FE
:101770000A8855EA02254FF6DF7213400A8953EAB8
:1017800002134A8853EA0213124A904203D0DFF848
:10179000F820904217D14FF67F7213404A8953EADE
:1017A00002134FF6BF7213408A8853EA02134FF6B2
:1017B000FF3214404FF2FF7214408A8954EA8204C7
:1017C000CA8954EA820484800583CA880287038414
:1017D000F0BC7047002C01400004004000080040AD
:1017E000000C00404FF6FF71818000210180002134
:1017F000C180002141800021017270470A00D2B2ED
:10180000002A04D0028852F00102028004E003881A
:101810004FF6FE721340038070471300DBB2002BBB
:1018200003D083890B43838102E083898B438381C7
:1018300070470A00D2B2002A04D0028852F0800217
:10184000028004E003884FF67F72134003807047E4
:1018500010B40023048B4FF2FF72144054EA0124A9
:10186000048310BC70470A0092B2D24302827047D0
:1018700000100040001400400034014000400140CE
:1018800000440140004801400034014002684FF626
:10189000FE710A40026000210160002141600021C8
:1018A00081600021C1605F49884205D15E490A68B4
:1018B00052F00F020A6061E05C49884205D15A4942
:1018C0000A6852F0F0020A6058E05949884205D18E
:1018D00055490A6852F470620A604FE055498842DF
:1018E00005D151490A6852F470420A6046E05249F3
:1018F000884205D14C490A6852F470220A603DE0E2
:101900004E49884205D148490A6852F470020A607B
:1019100034E04B49884205D143490A6852F070626D
:101920000A602BE04749884205D147490A6852F0CE
:101930000F020A6022E04549884205D142490A68FF
:1019400052F0F0020A6019E04149884205D13E494F
:101950000A6852F470620A6010E03E49884205D17C
:1019600039490A6852F470420A6007E03A498842ED
:1019700004D135490A6852F470220A60704710B4E5
:10198000002304686FF30E148A6814430A6A144330
:101990000A6914434A6914438A691443CA6914439F
:1019A0004A6A14438A6A14430460CA6842600A6837
:1019B00082604A68C26010BC70470A00D2B2002A36
:1019C00004D0026852F00102026004E003684FF69E
:1019D000FE721340036070471300DBB2002B03D08C
:1019E00003680B43036002E003688B4303607047A6
:1019F000010000220020CB0002D5184B1B6801E03B
:101A0000174B1B680B4201D0012000E00020C0B240
:101A10007047C10002D50C49086001E00249086026
:101A20007047000008000240040002401C00024011
:101A30003000024044000240580002406C00024066
:101A40008000024008040240040402401C040240DA
:101A500030040240440402405804024000040240A2
:101A600000000240F0B4002300244568DFF8E421C0
:101A700015400A6815430A7955EA022545608668CB
:101A8000DFF8D4211640CA6816438A6816434A799B
:101A900056EA42068660C76A37F470070A7C521E0F
:101AA00014432200D2B257EA0257C762F0BC704713
:101AB0000A00D2B2002A04D0826852F00102826089
:101AC00003E0826852085200826070470A00D2B276
:101AD000002A04D0826852F48072826003E0826837
:101AE00032F4807282607047816851F00801816031
:101AF0007047010000228868000701D5012000E03E
:101B00000020C0B27047816851F0040181607047C5
:101B1000010000228868400701D5012000E0002074
:101B2000C0B270470A00D2B2002A04D0826852F4D0
:101B3000A002826003E0826832F4A00282607047F3
:101B40002DE9F04100275FF0000C0C00E4B20A2CF4
:101B500016DBC5680726B1F10A0E032404FB0EFE4E
:101B600016FA0EFE35EA0E0598465FFA88F8B1F1CE
:101B70000A060324664318FA06F63543C56011E0E9
:101B800005690726032404FB01F416FA04F4A543AF
:101B90009E465FFA8EFE032606FB01F61EFA06F647
:101BA000354305611400E4B2072C19DA476B5FF086
:101BB0001F0CB2F1010E052404FB0EFE1CFA0EFEF2
:101BC00037EA0E0788465FFA88F8B2F1010C05245F
:101BD00004FB0CFC18FA0CFC5CEA0707476336E0D0
:101BE0001400E4B20D2C19DA076B5FF01F0CB2F190
:101BF000070E052404FB0EFE1CFA0EFE37EA0E0744
:101C000088465FFA88F8B2F1070C052404FB0CFC47
:101C100018FA0CFC5CEA0707076318E0C76A5FF074
:101C20001F0CB2F10D0E052404FB0EFE1CFA0EFE75
:101C300037EA0E0788465FFA88F8B2F10D0C0524E2
:101C400004FB0CFC18FA0CFC5CEA0707C762BDE851
:101C5000F0810000FFFEF0FFFDF7F1FF2DE9F84FE6
:101C600086B004000D00002600275FF000085FF03A
:101C700000095FF0000AA8890028A346218A4CF6D3
:101C8000FF700140E8880143009100982082A189FB
:101C90004EF6F3100140A888014328890143688962
:101CA000014300910098A081A18A4FF6FF400140B6
:101CB000A889014300910098A08201A8FEF780FC4A
:101CC0001C48834501D1049900E00399A0890004D0
:101CD00007D5192000FB01F02A685200B0FBF2F290
:101CE00006E0192000FB01F02A689200B0FBF2F236
:101CF0006420B2FBF0F6360133001B097FF063006D
:101D000000FB0323A089000408D5D80032306427E3
:101D1000B0FBF7F010F00700064307E0180132307F
:101D20006427B0FBF7F010F00F000643268107B0E0
:101D3000BDE8F08F003801400A00D2B2002A04D07A
:101D4000828952F40052828104E083894DF6FF7249
:101D50001340838170472DE9F041002300250027BF
:101D60005FF0000E0C0040F66A16A4B2B442804642
:101D70000C00E4B26409E4B20E00B6B216F01F061D
:101D80005FF0010C1CFA06FC012C02D118F10C08C2
:101D900006E0022C02D118F1100801E018F1140835
:101DA0001300DBB2002B06D0D8F800305CEA030346
:101DB000C8F8003005E0D8F8003033EA0C03C8F862
:101DC0000030BDE8F081CA05D20D8280704780885E
:101DD000C005C00D704702000023080080B2B0F5B6
:101DE000007F1088084201D0012000E00020C0B22E
:101DF0007047F0B4040000270020002200260B00EA
:101E000040F66A159BB2AB420D00EDB26D09EDB222
:101E10000B009BB213F01F035FF0010C1CFA03F3DD
:101E2000012D02D1A089034006E0022D02D1208AB3
:101E3000034001E0A08A03400A0092B2120A92B263
:101E40001CFA02F220880240002B03D0002A01D0A5
:101E5000012000E00020C0B2F0BC704770B4002246
:101E600000240B0040F66A159BB2AB420B009BB2FC
:101E70001B0A01259D402E00B6B2F643068070BCB9
:101E800070470000F0B4002200230F24C17800291D
:101E90001FD01649096811F4E061D1F5E061090A23
:101EA000D1F104052B00CC4045789D408678264032
:101EB00035432D012A000E4D0678AA5501250678D6
:101EC00016F01F06B5400B4E07787F1146F82750D5
:101ED00009E00121057815F01F05A940064D067897
:101EE000761145F82610F0BC704700000CED00E0BC
:101EF00000E400E000E100E080E100E0FEE7FEE752
:101F0000FEE780B5FEF799FD84480168491C016031
:101F100001BD80B501215FF08040FFF7A4FC0021E6
:101F20005FF08040FFF76AFCFFF703F801BD80B562
:101F300001217B48FFF797FC01BD80B5012179485D
:101F4000FFF791FCFEF796FA01BD80B501217648B6
:101F5000FFF789FC754801780A290DDB052100206F
:101F6000FEF7CDFF04210020FEF7C9FF704801688D
:101F700091F00101016002E00178491C017001BD8E
:101F800070B50220FFF734FD01282DD1694C21687E
:101F90006948006841182160684D2868401C286025
:101FA00067482968026891421ED1664E2168006820
:101FB000B1FBF0F000F0E6F8C6E90001D6E9000157
:101FC000FEF765F900202860002020605E48016867
:101FD000491C016001684FF47A7041434F48006822
:101FE000B1FBF0F0594908600220FFF712FD70BD07
:101FF0002DE9F047564C2000FFF7FAFC01282ED1BE
:10200000544D29685448006841182960534E30687F
:10201000401C3060DFF848A13068DAF800108842D0
:102020001DD1504F286800F0ADF880468946DAF897
:10203000000000F0A7F800224B4B00F0B1F80200BE
:102040000B004046494600F0ABF8C7E90001D7E96C
:102050000001FEF757F900203060002028602000C2
:10206000FFF7D7FCBDE8F08738B5404C20888006E4
:1020700010D500203E49088001215FF08040FFF725
:10208000BDFB2000FFF7A3FEC0B2FFF72BF9002035
:102090002649087040F2277529002000FFF7A9FEA5
:1020A000012825D129002000FFF7D8FE3149086812
:1020B000002812D00868401E08602F4D2868411C77
:1020C00029602E49095C89B22000FFF77CFE286850
:1020D00064280DD1002028600AE000222900200099
:1020E000FFF739FE012240F226612000FFF733FEA0
:1020F00040F2266529002000FFF77BFE00280CD067
:1021000029002000FFF7AAFE20211D48FEF79EFBB4
:10211000002229002000FFF71EFE31BDD80100205B
:102120000004004000080040000C0040FB010020BB
:102130000C0C0140C8010020DC010020CC01002073
:102140001C00002098010020C0010020C4010020D4
:1021500000000210D0010020E0010020D401002086
:1021600020000020A0010020000024400038014091
:1021700024000040F0010020EC01002004010020B8
:102180000008014050B1B0FA80F18840C91CC1F587
:102190008461090501EBD021400570470146704775
:1021A000F0B540F2FF7581EA030C0CF0004C15EA23
:1021B00011541DBF15EA1357AC42AF42E5E0BC41D4
:1021C000C1F31301C3F31303801A994143F480133D
:1021D00004D2641E0018494180185941C90241EADD
:1021E0005051B1FBF3F603FB1611A2FB0675D7EBBA
:1021F000C020A94102D2761E80185941C90241EA85
:102200005051B1FBF3FE03FB1E11A2FB0E75D7EB81
:10221000C020A94103D2AEF1010E801859418902B4
:1022200041EA9051760546EA8E2EB1FBF3F603FBA8
:102230001611A2FB0675D7EB8020A94102D2761EAB
:1022400080185941C90241EA50514EEA060EB1FBCD
:10225000F3F603FB1611A2FB0675D7EBC020A941CC
:1022600002D2761E80185941C90241EA5051B1FB91
:10227000F3F703FB1711A2FB0735D3EBC020A941ED
:1022800067F100070CBF004247F0010766F3D5274E
:102290004FEA1E31B80814F5806412DDBD0775F1F0
:1022A000004250EB0E5051EB045111F5801F5CBF02
:1022B00041EA0C01F0BD4CF07F6141F0E0410020AB
:1022C000F0BDBD076D0840EA0E5041F48011D4F115
:1022D0000104B4F120060ADAC4F120060200E0404D
:1022E00001FA06F3E1401843B24015430EE0342CE6
:1022F00013DCC6F1200445EA40056D0820FA06F219
:10230000154321FA06F0A1400D43002175F100426A
:1023100050F1000051EB0C01F0BD00205FEA0C0110
:10232000F0BDCFB992185B41B3FA83F704BFB2FA9C
:1023300082F6BF190B3FB7F120062FBF02FA06F352
:10234000BB40C7F1200622FA06F638BF3343BA4035
:102350001CB1E419641E33E77F4231F00041B1FA49
:1023600081F404BFB0FA80F6A4190B3CB4F1200646
:102370002FBF00FA06F1A140C4F1200620FA06F6AC
:1023800038BF3143A0403C1B1AE7AC421ABF05EAF4
:102390001357AF4212E050EA41061CBF52EA43060F
:1023A000BFE750EA4107304661461CBF41EA05518C
:1023B000F0BD52EA430C08BFC143F0BD00204FF40A
:1023C000001616EB410F98BF16EB430F08BF16EB34
:1023D000410F24BFC14305E016EB430F0CBF61461C
:1023E0004CEA0551F0BD000080B54249086850F044
:1023F00001000860404A13684048034013600B68BE
:102400003F4803400B60086830F480200860106883
:1024100030F4FE0010605FF41F003A49086000F0DD
:1024200005F85FF000603849086001BD80B500F034
:1024300001F801BD82B000200190002000902D49DC
:10244000086850F480300860086810F4003000908C
:102450000198401C01900098002803D10198B0F524
:10246000A06FF1D10868800302D50120009001E03F
:10247000002000900098012839D12448026852F0C9
:10248000100202600268920892000260026852F034
:102490000202026018480268026002680260026874
:1024A00052F480620260026832F480420260026884
:1024B00052F400420260026832F47C120260026848
:1024C00052F4F81202600A6852F080720A600A68D8
:1024D0009201FCD50168890889000160016851F00A
:1024E00002010160016811F00C010829FAD102B063
:1024F0007047000000100240041002400000FFF886
:10250000FFFFF6FE0810024008ED00E00020024048
:10251000333333333333E33FB81E85EB51B8AE3F2B
:10252000000000000094D140FA000000AC0300005D
:10253000AC030000000000000102030401020304D8
:1025400006070809020406085046010030B40025B9
:1025500012E050F8042BD30744BF4A44521E091F0F
:10256000042942F8045BFAD213468C0744BF158055
:102570009B1CC90748BF1D7050F8041B0029E8D1F7
:1025800030BC704710B5074979441831064C7C447B
:10259000163404E00A68081D114488470146A14228
:1025A000F8D110BD0800000028000000A1FFFFFFC7
:1025B000C40100003C0000200000000067E6FFFFAF
:1025C0003C0000004CFFFFFF000000200000000066
:1025D00000F00DF8002801D0FFF7D4FFAFF3008022
:1025E0000020AFF30080FDF7D6FD00F002F80120D7
:1025F000704700F001B800000746384600F002F8C6
:10260000FBE7000080B5AFF30080024A11001820FC
:10261000ABBEFBE7260002000548014603B468464E
:1026200080F30988AFF30080AFF30080FFF7D0FF9D
:10263000A5EDF5FE0148804701480047E923000861
:1026400019260008FFF7FEBFFFF7FEBFFFF7FEBF2A
:10265000FFF7FEBFFFF7FEBFFFF7FEBFFFF7FEBFAE
:10266000FFF7FEBFFFF7FEBFFFF7FEBFFFF7FEBF9E
:10267000FFF7FEBFFFF7FEBFFFF7FEBFFFF7FEBF8E
:10268000FFF7FEBFFFF7FEBFFFF7FEBFFFF7FEBF7E
:10269000FFF7FEBFFFF7FEBFFFF7FEBFFFF7FEBF6E
:1026A000FFF7FEBFFFF7FEBFFFF7FEBFFFF7FEBF5E
:1026B000FFF7FEBFFFF7FEBFFFF7FEBFFFF7FEBF4E
:1026C000FFF7FEBFFFF7FEBFFFF7FEBFFFF7FEBF3E
:1026D000FFF7FEBFFFF7FEBFFFF7FEBFFFF7FEBF2E
:1026E000FFF7FEBFFFF7FEBFFFF7FEBFFFF7FEBF1E
:1026F000FFF7FEBFFFF7FEBFFFF7FEBFFFF7FEBF0E
:10270000FFF7FEBFFFF7FEBFFFF7FEBFFFF7FEBFFD
:10271000FFF7FEBFFFF7FEBFFFF7FEBFFFF7FEBFED
:0C272000FFF7FEBFFFF7FEBFFFF7FEBF94
:0400000508002619B0
:00000001FF
