:020000040800F2
:10000000500A0020B9290008C9290008C1240008A5
:10001000C3240008C5240008CD2900080000000002
:10002000000000000000000000000000D1290008CE
:10003000D529000800000000D9290008C7240008BD
:10004000DD290008E1290008E5290008E929000860
:10005000ED290008F1290008F5290008F929000810
:10006000FD290008012A0008052A00084525000886
:10007000092A00080D2A0008112A0008152A00087C
:10008000192A00081D2A0008212A0008252A00082C
:10009000292A00082D2A0008312A0008352A0008DC
:1000A000392A00083D2A0008412A0008452A00088C
:1000B000D7240008F3240008FF240008492A000878
:1000C0004D2A0008512A0008552A0008592A00081C
:1000D0005D2A00082D260008612A0008652A00080C
:1000E000692A00086D2A0008712A0008752A00088C
:1000F000792A00087D2A0008812A0008852A00083C
:10010000892A00088D2A00080F250008912A000876
:10011000952A0008992A00089D2A0008A12A0008AB
:10012000A52A0008A92A0008AD2A0008B52500085C
:1001300010B4020052B2002A06D40A01DFF86C356E
:10014000040064B21A5509E00A01DFF864350400BE
:1001500064B214F00F04234403F8042C10BC70475D
:1001600010B50400601EB0F1807F01D3012011E0C2
:10017000601EDFF8401508600F215FF0FF30FFF7C9
:10018000D7FF0020DFF8301508600720DFF82C15B6
:100190000860002010BD30B585B0684600F0CCFA8C
:1001A00001984FF47A71B0FBF1F0FFF7D9FF00F03E
:1001B0006BFB0024032C1FDADFF8045520212800F4
:1001C00000F00EFC642000F0F9FC1021280000F083
:1001D00007FC642000F0F2FC2021280000F0FCFB6A
:1001E000642000F0EBFC1021280000F0F5FB6420F7
:1001F00000F0E4FC641CDDE7DFF8C844D4E9002328
:100200000020DFF8C41400F001FDDFF8C024C2E9CB
:100210000001D4E90001DFF8B824C2E900014FF47D
:10022000FA7000F02BFC142000F0C8FC00F0FDFD7B
:1002300000F07EFE00F071FCDFF8984400F001F958
:100240002070207800F00CFF00F0F3FB01F0CEF8F6
:1002500000F08BFC052000F034FFDFF87C140880F0
:10026000092000F02EFF002813D0DFF870444FF46F
:100270000051200000F0B0FB4FF47A7000F09EFCBB
:100280004FF40051200000F0ABFB0921002000F0EA
:100290000AFF0E2000F015FF0028DBD000F07EF9E9
:1002A0000E21002000F0FFFED4E7F8B504000D0099
:1002B000DFF82C04C0E90045DFF81404D0E900237E
:1002C000DFF80064D6E9000101F05AF904D10020FA
:1002D000DFF81014086018E0DFF80C04006801F083
:1002E0005FF922002B0000F091FC06000F00DFF800
:1002F000FC03006801F054F932003B0001F074F98E
:1003000001F0A2FADFF8DC130860DFF8E4030078FC
:10031000002814D1042000F0D4FE002804D1DFF816
:10032000C4030068012805DB1021DFF8940300F006
:1003300057FB04E01021DFF8880300F04DFB01219A
:10034000DFF8A003006880B200F0ADFEF1BD2DE93A
:10035000F84304000D00DFF89C03C0E90045DFF816
:100360009863DFF89803006801F01AF922002B0067
:1003700000F04CFC80468946DFF88403006801F0F9
:100380000FF942464B4601F02FF901F05DFA30605B
:10039000062000F096FE80B23168884232DADFF83B
:1003A00020832021404600F01BFBD64F38780028E0
:1003B00014D1012038700020D34908700020D3499F
:1003C0000860D3480068D3490860032000F079FE34
:1003D0000321401C80B200F066FE1AE0CC480068A1
:1003E000CC490968401A01F04AFA8146082000F019
:1003F00068FE81450DDB002038702021404600F06A
:10040000EBFA06E00020BF4908702021AC4800F05C
:10041000E3FABD48007800280CD1BC480168326876
:1004200091420CDA316801600221006880B200F06C
:100430003AFE04E00221306880B200F034FEBDE8EC
:10044000F183F8B50121202000F0F0F90F20ADF87C
:10045000000003208DF8020048208DF80300984F1B
:100460006946380000F034FA0121380000F0A6FA9D
:1004700004000221380000F0A1FA05000421380030
:1004800000F09CFA06000821380000F097FAE4001A
:10049000D4F10F04B4EB8504B4EB4604241A200015
:1004A000C0B2F2BD38B58C49B1F90000002805D1C1
:1004B0008448D0E900238648C0E9002396488E4A44
:1004C00013680468A34213DB864B1B68B1F9004034
:1004D000A3420DDA00681168401A01F0D5F98F4C7B
:1004E000D4E9002300F092FB8D4AC2E900010EE03E
:1004F000B1F900007B490968401A01F0C5F9894C3F
:10050000D4E9002300F082FB854AC2E90001704C67
:10051000D4E90001824DD5E9002301F023F9C4E9B3
:1005200000016A4DD4E90001D5E9002301F0BEF9CC
:1005300004D2D5E90001C4E900010BE0614DD5E921
:100540000001D4E9002301F0B1F903D2D5E900019B
:10055000C4E90001D4E9000101F076F980B200F0AD
:10056000D9FA31BD5E48D0E900236F48C0E90023C5
:1005700070475B48D0E900236C48C0E9002370470E
:100580005C48D0E900236A48C0E900237047594815
:10059000D0E900236748C0E9002370472DE9F843FC
:1005A0000B2000F08EFD04000A2000F08AFD0700F9
:1005B0004D4D5D4E5D4AD2E90001D6E9002301F0C0
:1005C000D1F880468946A4B2BFB2E41B200001F0F6
:1005D0005BF902000B004046494601F081F901F049
:1005E000A3FA28600A2000F06CFD80B201F0D0FA76
:1005F000296801F0DBFA00F0D3FF02000B00D6E916
:10060000000101F0AFF801F08FFA384908600D20C1
:1006100000F057FD04000C2000F053FD0700374D9B
:10062000434E444AD2E90001D6E9002301F09AF88A
:1006300080468946A4B2BFB2E41B200001F024F931
:1006400002000B004046494601F04AF901F06CFAFD
:1006500028600C2000F035FD80B201F099FA29687D
:1006600001F0A4FA00F09CFF02000B00D6E90001A3
:1006700001F078F801F058FA21490860104C202167
:10068000200000F0ADF91021200000F0A9F94FF48E
:100690007A7000F093FA2021200000F09DF91021DB
:1006A000200000F099F9BDE8F183000000E400E0CB
:1006B00018ED00E014E000E018E000E010E000E0D9
:1006C00000140140100000200000E03FA0010020C5
:1006D000980100204502002040020020000C01404B
:1006E000B0010020900100201C000020FC0100202F
:1006F00047020020C8010020F00100202000002057
:10070000000200204402002042000020F4010020EA
:1007100004020020F8010020180000200000002042
:10072000A801002008000020B8010020C00100201E
:10073000D0010020D80100202DE9F04F0100002257
:10074000002500200026474FD7F800C01CF00C0CF5
:100750006346002B04D0042B05D0082B06D023E0E1
:10076000414A0A6022E0414A0A601FE03A6812F4F6
:1007700070123B6813F480331800920C921C150021
:10078000002804D13A4A02FB05F20A600BE03A68FD
:10079000920304D5344A02FB05F20A6003E0334AAF
:1007A00002FB05F20A6001E02F4A0A603C6814F07F
:1007B000F0042409DFF8BC9019F804E00A6832FA62
:1007C0000EF24A603B6813F4E0631B0A19F80380D9
:1007D0004A6832FA08F28A603A6812F46052D20A21
:1007E00019F80290D1F804A03AFA09FAC1F80CA05D
:1007F0003F6817F44047BF0BDFF87CA01AF807A04A
:10080000D1F80CB0BBFBFAFBC1F810B0BDE8F08F1B
:100810000A00D2B2002A04D0184A136803431360B6
:1008200003E0164A13688343136070470A00D2B28C
:10083000002A04D0124A13680343136003E0104AED
:1008400013688343136070470A00D2B2002A04D0B1
:100850000C4A13680343136003E00A4A1368834396
:10086000136070470410024000127A000024F40064
:1008700000093D002C0000203C0000201410024024
:10088000181002401C10024080B501210820FFF71B
:10089000CDFF01212020FFF7C9FF3020ADF8000077
:1008A00003208DF8020010208DF8030069460648E9
:1008B00000F00EF84FF40050ADF800006946034810
:1008C00000F006F801BD00BF00140140000C01401B
:1008D000F0B500220023002400250026002791F80F
:1008E00003C01CF00F0C91F803E05FEACE6E02D556
:1008F0008A7852EA0C0C0A88D2B2002A2AD00268FE
:10090000160000221400082C23D25FF0010E1EFAFC
:1009100004F215000A882A401300AB4217D1A20046
:1009200015000F22AA401700BE431CFA05F2164319
:10093000CA78282A04D11EFA04FEC0F814E006E0A2
:10094000CA78482A03D11EFA04FEC0F810E0641CDD
:10095000D9E706600A88B2F5807F2EDB4268160070
:1009600000221400082C27D25FF0010E14F10802B7
:100970001EFA02F215000A882A401300AB4219D170
:10098000A20015000F22AA401700BE431CFA05F270
:100990001643CA78282A04D114F108021EFA02F27A
:1009A0004261CA78482A05D114F108021EFA02FEF3
:1009B000C0F810E0641CD5E74660F0BD10B402003A
:1009C000002390680C00A4B2204201D0012000E076
:1009D0000020C0B210BC70470A0092B2026170479A
:1009E0000A0092B242617047010049B2002909D45D
:1009F000012210F01F018A40794903005BB25B09B4
:100A000041F82320704710B4020052B2002A05D4E6
:100A10000A01744B040064B21A5508E00A01724BD3
:100A2000040064B214F00F04234403F8042C10BC37
:100A30007047E0B501210120FFF706FF684601F08D
:100A4000B3F90020ADF802004720ADF8000040F2F5
:100A5000E730ADF8040069465FF0804001F012F91C
:100A6000012201215FF0804001F0B9F900211C2032
:100A7000FFF7C9FF1C20FFF7B7FF07BD38B588B0E7
:100A8000040001210220FFF7DFFE01A801F08CF92C
:100A90000020ADF806000720ADF8040054482100FE
:100AA00089B290FBF1F0ADF80800504D01A9280083
:100AB00001F0E8F86020ADF810000120ADF8120058
:100AC0004C480088ADF816000020ADF8180004A9C5
:100AD000280001F01CF90821280001F09BF90121F0
:100AE000280001F088F90121280001F069F90121AD
:100AF0000520FFF79BFE8020ADF8000018208DF840
:100B0000030003208DF8020069463B48FFF7E0FE32
:100B100009B030BD3949088070471FB50121042054
:100B2000FFF792FE684601F03FF90020ADF80200A1
:100B300041F61F40ADF80000C720ADF80400304C6E
:100B40006946200001F09EF801220121200001F0F9
:100B500046F90121200001F033F900211E20FFF7A2
:100B600052FF1E20FFF740FF1FBD1FB501210820C7
:100B7000FFF76AFE684601F017F90020ADF80200A1
:100B800041F61F40ADF8000041F28730ADF8040097
:100B90001C4C6946200001F075F80122012120005B
:100BA00001F01DF90121200001F00AF90021322095
:100BB000FFF729FF3220FFF717FF1FBD01B41249CD
:100BC0000098086008680028FCD101B070470E4901
:100BD0000868002802D00868401E086070470000BE
:100BE00000E100E000E400E018ED00E00004004057
:100BF00040548900400000200008014038040040B3
:100C000000080040000C00403002002030B540F2E7
:100C1000FF7C1CEA11541DBF1CEA13556445654551
:100C20003FE0641981EA030C6FF35F530CF0004C52
:100C300043F48013C90241F0004141EA505EC5020D
:100C40001100A5FB020200284FF00000EEFB01207E
:100C50004FF00001E3FB052118BF42F001024018EC
:100C600000214941E3FB0E01A4F580640D0302D28B
:100C700092184041494154F1010470DD450872F178
:100C8000004250F1000051EB0451A1F5801102D453
:100C900041EA0C0130BD40F2FF7E4CEA0E510020CB
:100CA00030BD0CEA1355644518BF654581EA030C55
:100CB0000CF0004C41D050EA410E1CBF52EA430EEA
:100CC00002E06146002030BD24422C441BD15FEA83
:100CD000050EF6D0090302BF01460020AEF1140E46
:100CE000B1FA81F5AEEB050401FA05FE0C35C5F14C
:100CF000200100FA05F5C8404EEA000E6FF35F537D
:100D000043F480139CE733F00043B3FA83F504BF48
:100D1000B2FA82FE75440B3D641BB5F1200E2FBF65
:100D200002FA0EF3AB40C5F1200E22FA0EFE38BFD8
:100D300043EA0E03AA40641C7CE750EA410E14BF4C
:100D400052EA430E6FF000014FF4001515EB430F0C
:100D50008EBF194615EB410F9DE7B4D830BDD4F1D5
:100D60000104B4F120050FDAC4F12005520828BFB0
:100D700042F0010210FA05FE01FA05F57244E2BFE5
:100D8000E0402843E1400FE0352C9ADCC5F1200417
:100D900052EA400220FA05F218BF42F0010231FA8D
:100DA00005F0A1400A43002172F1004250F1000019
:100DB00051EB0C0130BD0EE002684368024408307C
:100DC0005FEAC37C44BF4B445B1E52F804CB43F83C
:100DD00004CB091FF9D150F8041B0029ECD170474E
:100DE000010049B2002909D4012210F01F018A40F4
:100DF0008F4903005BB25B0941F82320704710B4B0
:100E0000020052B2002A05D40A018A4B040064B2DF
:100E10001A5508E00A01884B040064B214F00F046C
:100E2000234403F8042C10BC704718B591B001217D
:100E30000120FFF7EDFC01214FF40170FFF7F6FCF4
:100E40000420ADF8000000208DF8030069467B48BF
:100E5000FFF73EFD7A4C200000F0FAFF794806903B
:100E600079480790002008900120099000200A90FE
:100E700000200B904FF480700C904FF480600D9028
:100E800020200E904FF400500F900020109006A9E3
:100E9000200001F056F80121200001F070F8002137
:100EA0000B20FFF7ACFF0B20FFF79AFF0122022176
:100EB000200001F073F80020019000208DF8080058
:100EC00001208DF809005FF4602003900020049059
:100ED00001208DF814005D4C01A9200001F0A4F858
:100EE000072301220221200001F00CF9012120003A
:100EF00001F0CEF80121200001F0BCF8200001F043
:100F0000D5F8200001F0D7F80028FAD1200001F030
:100F1000DCF8200001F0DEF80028FAD101212000E1
:100F200001F0E2F80121200001F0DEF812B010BD5E
:100F300018B591B001210220FFF76AFC012148F2A7
:100F40000400FFF773FC0820ADF8000000208DF8C6
:100F5000030069463948FFF7BBFC3D4C200000F018
:100F600077FF3C4806903C480790002008900120FD
:100F7000099000200A9000200B904FF480700C9094
:100F80004FF480600D9020200E904FF400500F9091
:100F90000020109006A9200000F0D3FF01212000BE
:100FA00000F0EDFF00213B20FFF729FF3B20FFF77A
:100FB00017FF01220221200000F0F0FF0020019025
:100FC00000208DF8080001208DF809005FF46020F2
:100FD00003900020049001208DF814001F4C01A9FB
:100FE000200001F021F8072301220321200001F055
:100FF00089F80121200001F04BF80121200001F0C7
:1010000039F8200001F052F8200001F054F80028CF
:10101000FAD1200001F059F8200001F05BF8002817
:10102000FAD10121200001F05FF812B010BD0000DC
:1010300000E100E000E400E018ED00E000080140FD
:10104000080002404C2401402802002000240140F6
:10105000580402404C3C01402C020020003C01405E
:10106000C9490870C94940F201420A8000224A80F9
:1010700000228A800022CA8000220A8100224A813E
:10108000C8228A816422CA810A220A8200224A82F4
:1010900000228A820022CA8200220A8300224A8316
:1010A00000228A83704702000800C0B20F2801DBCB
:1010B000012005E0B5480B00DBB220F8132000202A
:1010C000704701000800C0B20F2801DB002003E0D8
:1010D000AE48C9B230F81100704710B5AC49087875
:1010E000082803DA0020087001203AE0A94A1078A5
:1010F000A54B1B78984221D0107802281AD1D07ABB
:10110000137B13EB0023547B240214EB0344907BEA
:101110000419A1480460D07D137E13EB0023507E98
:10112000927E12EB00220A2092FBF0F010EB0340BB
:101130009A4A106000200870012012E050780328BD
:1011400002D100F00FF80CE05078062802D100F030
:101150006DF806E05078102802D100F0B6F800E0F3
:10116000012010BD70B50020894908708C4C894D54
:101170000621280000F01AF92080207800F0FF00F6
:10118000A979884250D1208880B2000A80B2E979DA
:10119000884249D1A878002844D16979E878411873
:1011A00010293FDA7F4E7848007830700320707045
:1011B00068794000B07000206979884212DA73497A
:1011C000EA78121831F8122092B2120A06EB4003A4
:1011D000DA70EA78121831F8121006EB4002117139
:1011E000401CE9E768794000C01C010089B230006A
:1011F00000F0DCF82080687906EB40002188C1709F
:10120000687906EB4000218889B2090A0171697981
:101210004900491D300000F092F901206249087030
:10122000002002E0012000E0012070BD70B5002028
:10123000574908705B4C5448007820700620607055
:10124000544DA878A070E878E0702879207168790A
:101250006071534E0621200000F0A8F830803088DD
:10126000A071308880B2000AE071A079A979884223
:101270000ED1E079E97988420AD1E8780F2807DAB7
:101280002879697951EA00214048EA7820F812105B
:10129000E8780A2802D1FFF765F910E0E8780B2812
:1012A00002D1FFF766F90AE0E8780C2802D1FFF7CF
:1012B00067F904E0E8780D2801D1FFF768F9082103
:1012C000200000F03CF9002070BD2DE9F0413048CD
:1012D0000478A41E00210170314D2E4E2000010023
:1012E00089B2300000F062F82880287800F0FF0012
:1012F000315D884240D1288880B2000A80B206EB76
:1013000004014978884237D1264F1F480078387049
:1013100010207870B078B870F078F8703079387143
:101320005FF00008F0780F2819DA00207179884200
:1013300015DAF17841180F2911DA1449F278821878
:1013400006EB4003DB7906EB400C9CF808C01CEB75
:10135000032C21F812C018F10108401CE6E787F8B9
:1013600005800621380000F021F828802888B8710F
:10137000288880B2000AF87108210A4800F0DFF8D6
:101380000020BDE8F081000046020020700100202E
:10139000480200204400002004020020080200202F
:1013A00042020020A80000204200002030B40300C8
:1013B0004FF6FF7000240A0092B2944213DA1A5DCD
:1013C00050400022082A0CDAC50706D580B2050075
:1013D0004AF2010090EA550001E080B24008521C38
:1013E000F0E7641CE7E780B230BC704710B586B008
:1013F000012144F20400FFF719FA5948016851F03D
:10140000010101604FF40070ADF8000018208DF864
:10141000030003208DF80200524C69462000FFF7BC
:1014200057FA4FF48060ADF8000003208DF80200F9
:1014300004208DF8030069462000FFF749FA2020B8
:10144000ADF8000003208DF8020010208DF8030095
:1014500069462000FFF73CFA5FF4E130029000207B
:10146000ADF80C000020ADF80E000020ADF8100023
:101470000020ADF814000C20ADF812003A4C02A97F
:10148000200000F0CDFE0121200000F037FF0122F6
:1014900040F22551200000F040FF25208DF8040087
:1014A00000208DF8050000208DF8060001208DF841
:1014B000070001A800F0C8FF06B010BD01002B48CE
:1014C0000278642A07DA2A4A0378D1540278521C37
:1014D0000270002000E001207047F8B50400254D9F
:1014E00028686428FBD0204E40F22777002239007C
:1014F000300000F012FF2868002805D1802130005C
:1015000000F04BFF002813D11B4801684A1C026001
:101510001A4A54540168642901D1002101602868E5
:10152000401C286001223900300000F0F6FE05E082
:101530002100C9B289B2300000F027FFF1BD38B5F3
:1015400005000C0020210748FFF746FA002C05D0C3
:101550002878FFF7C2FF6D1C641EF7E731BD00005D
:1015600018100240000801400038014048020020E5
:10157000440000203C020020340200200C01002026
:10158000904205D1994204D041EA030C50EA4C0C38
:1015900070474FF4001C1CEB410F38BF8942704765
:1015A000C0F3C75181B1FF2906D0C110400721F017
:1015B000E04101F16051704741020CBF40F4E0018D
:1015C0006FF000410020704700F0004100020AD097
:1015D000B0FA80FC00FA0CF001F16051A1EB0C5163
:1015E00001EBD0214005704770B491EA030F4FF032
:1015F000004540F1BF806B40841A71EB030604D2B2
:101600006E40001BB141121973414FF4001C1CEBDA
:10161000410F34BF7CEB430683E00C0DA4EB135663
:10162000362E00F37C80012E45EAC32341DC43EAD9
:10163000525312BFD20292025B08240545EAC1212F
:1016400041EA5051D2EBC020994125D407D1B0FADC
:1016500080F610FA06F162D00020203608E0B1FAD8
:1016600081F6B140C6F1200220FA02F21143B040E7
:101670004FEAF474B4EB465434F001064FEA7404B4
:101680000AD8D6F50016760D04F00044F04061FA51
:1016900006F25040F1404840C00A40EA415021F073
:1016A000004128BF5FEA500550F1000044EBD12112
:1016B00035E0DB0A45EAC121C90AB6F120050EDD95
:1016C00042EA0242120CC5F1200603FA06F6EB408C
:1016D00042EA06056D42984161F100010DE062FAAF
:1016E00006F5F240554063FA06FC82EA0C02F3402C
:1016F0005A406D42904161EB030111F4801F05D106
:10170000641E620502D06D004041494121F4801100
:10171000430875F1004350F1000041EB045170BCE7
:1017200070471CEB410F15D223F0004352EA4306E9
:101730000BD04FEA4C0CBCEB410F04D80C0D661ECD
:10174000342EB7DDEBE7801A994150EA410608BF15
:101750000021E4E708BF1CEB430F28BF6FF0000136
:10176000DDE7000070B491EA030F4FF000457FF50C
:1017700043AF6B40841A71EB030603D2001BB141E7
:10178000121973414FF4001C1CEB410F34BF7CEB6A
:10179000430442E00C0DA4EB1356352E4FDC45EA12
:1017A000C323DB0A45EAC121C912B6F120050DDDCC
:1017B00063FA05F6EB4086EA0305124218BF45F0CE
:1017C0000105C01851F100010CD213E062FA06F5D0
:1017D000F2405540F3415A40B340F3405A4080181C
:1017E000594107D349085FEA30005FEA350528BF51
:1017F00045F0010501F58011420875F1004250F1F4
:10180000000041EB04514E0016F5001F70BC38BFBC
:1018100070470020090D090570471CEB410F10D2DD
:1018200052EA43060BD0BCEB410F05D80C0DAB437D
:10183000661E342EB6DD02E0AB438018594170BC01
:10184000704770BC70470000C1F30A5340F21E425B
:10185000D31A0CDDCA0283F3070342EA505242F066
:101860000042DA4002EBE17282EAE17070476FEA0F
:10187000E17203F2E13008B182F0004070470028C5
:1018800048BF40427047000010F0004160B148BFBF
:101890004042B0FA80F29040D21CC2F5846241EA24
:1018A000025202EBD02140057047000041EA030CD0
:1018B00050EA4C0C52EA0C0C4FF4001C09D307D030
:1018C0001CEB410F9CBF1CEB430F8B4208BF8242B5
:1018D00070471CEB430FFBD8994208BF90427047FA
:1018E000F0B540F2FF7581EA030C0CF0004C15EAEC
:1018F00011541DBF15EA1357AC42AF42E5E0BC419D
:10190000C1F31301C3F31303801A994143F4801305
:1019100004D2641E0018494180185941C90241EAA5
:101920005051B1FBF3F603FB1611A2FB0675D7EB82
:10193000C020A94102D2761E80185941C90241EA4D
:101940005051B1FBF3FE03FB1E11A2FB0E75D7EB4A
:10195000C020A94103D2AEF1010E8018594189027D
:1019600041EA9051760546EA8E2EB1FBF3F603FB71
:101970001611A2FB0675D7EB8020A94102D2761E74
:1019800080185941C90241EA50514EEA060EB1FB96
:10199000F3F603FB1611A2FB0675D7EBC020A94195
:1019A00002D2761E80185941C90241EA5051B1FB5A
:1019B000F3F703FB1711A2FB0735D3EBC020A941B6
:1019C00067F100070CBF004247F0010766F3D52717
:1019D0004FEA1E31B80814F5806412DDBD0775F1B9
:1019E000004250EB0E5051EB045111F5801F5CBFCB
:1019F00041EA0C01F0BD4CF07F6141F0E041002074
:101A0000F0BDBD076D0840EA0E5041F48011D4F1DD
:101A10000104B4F120060ADAC4F120060200E04015
:101A200001FA06F3E1401843B24015430EE0342CAE
:101A300013DCC6F1200445EA40056D0820FA06F2E1
:101A4000154321FA06F0A1400D43002175F1004233
:101A500050F1000051EB0C01F0BD00205FEA0C01D9
:101A6000F0BDCFB992185B41B3FA83F704BFB2FA65
:101A700082F6BF190B3FB7F120062FBF02FA06F31B
:101A8000BB40C7F1200622FA06F638BF3343BA40FE
:101A90001CB1E419641E33E77F4231F00041B1FA12
:101AA00081F404BFB0FA80F6A4190B3CB4F120060F
:101AB0002FBF00FA06F1A140C4F1200620FA06F675
:101AC00038BF3143A0403C1B1AE7AC421ABF05EABD
:101AD0001357AF4212E050EA41061CBF52EA4306D8
:101AE000BFE750EA4107304661461CBF41EA055155
:101AF000F0BD52EA430C08BFC143F0BD00204FF4D3
:101B0000001616EB410F98BF16EB430F08BF16EBFC
:101B1000410F24BFC14305E016EB430F0CBF6146E4
:101B20004CEA0551F0BD000001F000428B1AA3F110
:101B30006051B1F5801F0ADBB1F17F6F1FD242EA1D
:101B4000C102C10071F1004142EB507070470B15AA
:101B5000C3F10903212B10D2890241EA905180027E
:101B60000128494141F0004121FA03F0C3F120036B
:101B7000994071F1004150417047100070476FF07B
:101B8000000013EB103F5CBF000E42EAC0507047EC
:101B900050B1B0FA80F18840C1F19D01C90502063B
:101BA00072F1004241EB102070470000FF2212EA60
:101BB000D05C1DBF12EAD153944593422BE09C4464
:101BC000D30780EA010243EA002043EA01211A40D8
:101BD000A1FB0030C04238BF00187CF17F010BDB55
:101BE000FE294ADA5B0842EAC15153EA006373F105
:101BF000004C51EB10207047D1F1080CDCF12001B2
:101C00002FDB5B0810FA01F10B4320FA0CF073F1A3
:101C100000415041704794451CBF02EAD1539342A2
:101C200080EA010202F000421DD0400019D04900B4
:101C300017D05BB9634514D00902B1FA81F399401A
:101C4000BCEB030CC00140F00040C1E70002B0FA59
:101C500080FC10FA0CF0B3EB0C0CC90141F0004110
:101C6000B6E71000704740000AD0490008D010F1D4
:101C7000807F94BF11F1807F02E042F0FF40704707
:101C8000D043704710B400220488434B98420FD0D1
:101C9000DFF8A82190420BD0B0F1804F08D03F4A26
:101CA000904205D03E4A904202D03E4A904204D132
:101CB0004FF68F7214404A881443DFF8782190421F
:101CC00008D0DFF87421904204D04FF6FF42144050
:101CD000CA88144304808A8882850A8802859842CB
:101CE0000FD0DFF8582190420BD0DFF854219042FA
:101CF00007D0DFF85021904203D0DFF84C2190420A
:101D000001D10A7A02860122828210BC7047F0B4A7
:101D1000002600275FF0000C038C4FF6EF72134093
:101D20000384038C8488058B48F6FF7215404FF6B8
:101D3000FF4215400A8855EA02254FF6DF7213402C
:101D40000A8953EA02134A8853EA0213124A90425C
:101D500003D0DFF8F820904217D14FF67F7213407E
:101D60004A8953EA02134FF6BF7213408A8853EA36
:101D700002134FF6FF3214404FF2FF7214408A896B
:101D800054EA8204CA8954EA820484800583CA889A
:101D900002870384F0BC7047002C0140000400401F
:101DA00000080040000C00404FF6FF7181800021C8
:101DB00001800021C1800021418000210172704713
:101DC0000A00D2B2002A04D0028852F00102028036
:101DD00004E003884FF6FE7213400380704713003F
:101DE000DBB2002B03D083890B43838102E083891C
:101DF0008B43838170470A00D2B2002A04D0028844
:101E000052F08002028004E003884FF67F72134094
:101E10000380704710B40023048B4FF2FF7214400C
:101E200054EA0124048310BC70470A0092B2D243E2
:101E3000028270470010004000140040003401404E
:101E4000004001400044014000480140003401408E
:101E500002684FF6FE710A40026000210160002115
:101E60004160002181600021C1605F49884205D145
:101E70005E490A6852F00F020A6061E05C498842DC
:101E800005D15A490A6852F0F0020A6058E05949EF
:101E9000884205D155490A6852F470620A604FE0E1
:101EA0005549884205D151490A6852F470420A6086
:101EB00046E05249884205D14C490A6852F47022E2
:101EC0000A603DE04E49884205D148490A6852F40B
:101ED00070020A6034E04B49884205D143490A68E0
:101EE00052F070620A602BE04749884205D14749A9
:101EF0000A6852F00F020A6022E04549884205D183
:101F000042490A6852F0F0020A6019E041498842E9
:101F100005D13E490A6852F470620A6010E03E49F9
:101F2000884205D139490A6852F470420A6007E0D4
:101F30003A49884204D135490A6852F470220A604D
:101F4000704710B4002304686FF30E148A681443BA
:101F50000A6A14430A6914434A6914438A69144398
:101F6000CA6914434A6A14438A6A14430460CA68FB
:101F700042600A6882604A68C26010BC70470A000A
:101F8000D2B2002A04D0026852F00102026004E0DA
:101F900003684FF6FE721340036070471300DBB214
:101FA000002B03D003680B43036002E003688B43FC
:101FB00003607047010000220020CB0002D5184BBF
:101FC0001B6801E0174B1B680B4201D0012000E0A9
:101FD0000020C0B27047C10002D50C49086001E082
:101FE00002490860704700000800024004000240F7
:101FF0001C000240300002404400024058000240F1
:102000006C000240800002400804024004040240C8
:102010001C040240300402404404024058040240C0
:102020000004024000000240F0B400230024456890
:10203000DFF8E42115400A6815430A7955EA0225BC
:1020400045608668DFF8D4211640CA6816438A685E
:1020500016434A7956EA42068660C76A37F4700723
:102060000A7C521E14432200D2B257EA0257C762BA
:10207000F0BC70470A00D2B2002A04D0826852F045
:102080000102826003E08268520852008260704759
:102090000A00D2B2002A04D0826852F480728260B0
:1020A00003E0826832F4807282607047816851F088
:1020B000080181607047010000228868000701D58F
:1020C000012000E00020C0B27047816851F0040197
:1020D00081607047010000228868400701D5012017
:1020E00000E00020C0B270470A00D2B2002A04D03B
:1020F000826852F4A002826003E0826832F4A00297
:10210000826070472DE9F04100275FF0000C0C0061
:10211000E4B20A2C16DBC5680726B1F10A0E0324C7
:1021200004FB0EFE16FA0EFE35EA0E0598465FFA1F
:1021300088F8B1F10A060324664318FA06F6354317
:10214000C56011E005690726032404FB01F416FAB3
:1021500004F4A5439E465FFA8EFE032606FB01F6B5
:102160001EFA06F6354305611400E4B2072C19DAAD
:10217000476B5FF01F0CB2F1010E052404FB0EFE4D
:102180001CFA0EFE37EA0E0788465FFA88F8B2F1AD
:10219000010C052404FB0CFC18FA0CFC5CEA070794
:1021A000476336E01400E4B20D2C19DA076B5FF0D8
:1021B0001F0CB2F1070E052404FB0EFE1CFA0EFEE6
:1021C00037EA0E0788465FFA88F8B2F1070C052453
:1021D00004FB0CFC18FA0CFC5CEA0707076318E028
:1021E000C76A5FF01F0CB2F10D0E052404FB0EFE52
:1021F0001CFA0EFE37EA0E0788465FFA88F8B2F13D
:102200000D0C052404FB0CFC18FA0CFC5CEA070717
:10221000C762BDE8F0810000FFFEF0FFFDF7F1FFAF
:102220002DE9F84F86B004000D00002600275FF06E
:1022300000085FF000095FF0000AA8890028A346A3
:10224000218A4CF6FF700140E88801430091009814
:102250002082A1894EF6F3100140A8880143288905
:1022600001436889014300910098A081A18A4FF63B
:10227000FF400140A889014300910098A08201A875
:10228000FEF75AFA1C48834501D1049900E00399EE
:10229000A089000407D5192000FB01F02A6852002C
:1022A000B0FBF2F206E0192000FB01F02A68920070
:1022B000B0FBF2F26420B2FBF0F6360133001B09EA
:1022C0007FF0630000FB0323A089000408D5D80039
:1022D00032306427B0FBF7F010F00700064307E048
:1022E000180132306427B0FBF7F010F00F000643FE
:1022F000268107B0BDE8F08F003801400A00D2B255
:10230000002A04D0828952F40052828104E0838939
:102310004DF6FF721340838170472DE9F041002391
:10232000002500275FF0000E0C0040F66A16A4B2EC
:10233000B44280460C00E4B26409E4B20E00B6B2C6
:1023400016F01F065FF0010C1CFA06FC012C02D1EE
:1023500018F10C0806E0022C02D118F1100801E077
:1023600018F114081300DBB2002B06D0D8F80030A7
:102370005CEA0303C8F8003005E0D8F8003033EA1F
:102380000C03C8F80030BDE8F081CA05D20D828088
:1023900070478088C005C00D704702000023080008
:1023A00080B2B0F5007F1088084201D0012000E023
:1023B0000020C0B27047F0B40400002700200022C3
:1023C00000260B0040F66A159BB2AB420D00EDB241
:1023D0006D09EDB20B009BB213F01F035FF0010C0F
:1023E0001CFA03F3012D02D1A089034006E0022D5F
:1023F00002D1208A034001E0A08A03400A0092B281
:10240000120A92B21CFA02F220880240002B03D07A
:10241000002A01D0012000E00020C0B2F0BC7047CB
:1024200070B4002200240B0040F66A159BB2AB4248
:102430000B009BB21B0A01259D402E00B6B2F6434D
:10244000068070BC70470000F0B4002200230F2407
:10245000C17800291FD01649096811F4E061D1F54F
:10246000E061090AD1F104052B00CC4045789D407C
:102470008678264035432D012A000E4D0678AA5550
:102480000125067816F01F06B5400B4E07787F1120
:1024900046F8275009E00121057815F01F05A940ED
:1024A000064D0678761145F82610F0BC70470000FE
:1024B0000CED00E000E400E000E100E080E100E07D
:1024C000FEE7FEE7FEE780B5FEF781FB8448016882
:1024D000491C016001BD80B501215FF08040FFF71C
:1024E000A4FC00215FF08040FFF76AFCFEF7F5FDD9
:1024F00001BD80B501217B48FFF797FC01BD80B588
:1025000001217948FFF791FCFDF7CCFF01BD80B5B3
:1025100001217648FFF789FC754801780A290DDB0F
:1025200005210020FEF7BFFD04210020FEF7BBFDC2
:102530007048016891F01001016002E00178491CC7
:10254000017001BD70B50220FFF734FD01282DD1C7
:10255000694C21686948006841182160684D286805
:10256000401C286067482968026891421ED1664E67
:1025700021680068B1FBF0F000F0E6F8C6E9000160
:10258000D6E90001FDF791FE0020286000202060C0
:102590005E480168491C016001684FF47A7041434C
:1025A0004F480068B1FBF0F0594908600220FFF77E
:1025B00012FD70BD2DE9F047564C2000FFF7FAFCE4
:1025C00001282ED1544D29685448006841182960CB
:1025D000534E3068401C3060DFF848A13068DAF8AC
:1025E000001088421DD1504F286800F0ADF8804699
:1025F0008946DAF8000000F0A7F800224B4BFFF7FD
:102600006FF902000B0040464946FFF769F9C7E938
:102610000001D7E90001FDF79AFE0020306000209C
:1026200028602000FFF7D7FCBDE8F08738B5404CA4
:102630002088800610D500203E49088001215FF0E7
:102640008040FFF7BDFB2000FFF7A3FEC0B2FEF7FE
:1026500035FF00202649087040F227752900200028
:10266000FFF7A9FE012825D129002000FFF7D8FE99
:1026700031490868002812D00868401E08602F4DB4
:102680002868411C29602E49095C89B22000FFF7A7
:102690007CFE286864280DD1002028600AE0002212
:1026A00029002000FFF739FE012240F226612000B8
:1026B000FFF733FE40F2266529002000FFF77BFE7E
:1026C00000280CD029002000FFF7AAFE20211D4879
:1026D000FEF786F9002229002000FFF71EFE31BD1B
:1026E000240200200004004000080040000C0040CC
:1026F000470200200C140140140200202802002090
:102700001802002024000020E00100200C0200201C
:1027100010020020000002101C0200202C020020E9
:102720002002002028000020E801002000002440B2
:1027300000380140240000403C0200203802002004
:102740000C0100200008014050B1B0FA80F188402F
:10275000C91CC1F58461090501EBD0214005704712
:102760000146704780B54249086850F00100086092
:10277000404A13684048034013600B683F480340D9
:102780000B60086830F480200860106830F4FE00A8
:1027900010605FF41F003A49086000F005F85FF030
:1027A00000603849086001BD80B500F001F801BD46
:1027B00082B000200190002000902D49086850F45C
:1027C00080300860086810F4003000900198401CC8
:1027D00001900098002803D10198B0F5A06FF1D1C5
:1027E0000868800302D50120009001E000200090DD
:1027F0000098012839D12448026852F01002026082
:102800000268920892000260026852F002020260BE
:1028100018480268026002680260026852F480622E
:102820000260026832F480420260026852F40042A0
:102830000260026832F47C120260026852F4F812FC
:1028400002600A6852F080720A600A689201FCD540
:102850000168890889000160016851F00201016086
:10286000016811F00C010829FAD102B0704700008C
:1028700000100240041002400000FFF8FFFFF6FEC7
:102880000810024008ED00E00020024033333333EB
:102890003333E33FB81E85EB51B8AE3F0000000074
:1028A0000094D140FA0000000000C03F8FC2753D87
:1028B000AC030000AC0300000000000001020304B0
:1028C0000102030406070809020406085046010035
:1028D00030B4002512E050F8042BD30744BF4A441B
:1028E000521E091F042942F8045BFAD213468C07D2
:1028F00044BF15809B1CC90748BF1D7050F8041BBE
:102900000029E8D130BC704710B507497944183127
:10291000064C7C44163404E00A68081D11448847BC
:102920000146A142F8D110BD0800000028000000B7
:10293000A1FFFFFF0802000044000020000000008B
:1029400077E4FFFF4400000044FFFFFF0000002089
:102950000000000000F00DF8002801D0FFF7D4FFC0
:10296000AFF300800020AFF30080FDF714FC00F00F
:1029700002F80120704700F001B800000746384611
:1029800000F002F8FBE7000080B5AFF30080024AD8
:1029900011001820ABBEFBE72600020005480146E7
:1029A00003B4684680F30988AFF30080AFF300807A
:1029B000FFF7D0FFA5EDF5FE01488047014800472D
:1029C000652700089D290008FFF7FEBFFFF7FEBF3F
:1029D000FFF7FEBFFFF7FEBFFFF7FEBFFFF7FEBF2B
:1029E000FFF7FEBFFFF7FEBFFFF7FEBFFFF7FEBF1B
:1029F000FFF7FEBFFFF7FEBFFFF7FEBFFFF7FEBF0B
:102A0000FFF7FEBFFFF7FEBFFFF7FEBFFFF7FEBFFA
:102A1000FFF7FEBFFFF7FEBFFFF7FEBFFFF7FEBFEA
:102A2000FFF7FEBFFFF7FEBFFFF7FEBFFFF7FEBFDA
:102A3000FFF7FEBFFFF7FEBFFFF7FEBFFFF7FEBFCA
:102A4000FFF7FEBFFFF7FEBFFFF7FEBFFFF7FEBFBA
:102A5000FFF7FEBFFFF7FEBFFFF7FEBFFFF7FEBFAA
:102A6000FFF7FEBFFFF7FEBFFFF7FEBFFFF7FEBF9A
:102A7000FFF7FEBFFFF7FEBFFFF7FEBFFFF7FEBF8A
:102A8000FFF7FEBFFFF7FEBFFFF7FEBFFFF7FEBF7A
:102A9000FFF7FEBFFFF7FEBFFFF7FEBFFFF7FEBF6A
:102AA000FFF7FEBFFFF7FEBFFFF7FEBFFFF7FEBF5A
:040000050800299D29
:00000001FF
