:020000040800F2
:10000000800A0020A5300008B5300008C12B000888
:10001000C32B0008C52B0008B93000080000000001
:10002000000000000000000000000000BD300008DB
:10003000C130000800000000C5300008C72B0008D0
:10004000C9300008CD300008D1300008D530000894
:10005000D9300008DD300008E1300008E530000844
:10006000E9300008ED300008F1300008452C0008A8
:10007000F5300008F9300008FD30000801310008B3
:1000800005310008093100080D3100081131000860
:1000900015310008193100081D3100082131000810
:1000A00025310008293100082D31000831310008C0
:1000B000D72B0008F32B0008FF2B00083531000870
:1000C000393100083D310008413100084531000850
:1000D000493100082D2D00084D310008513100082C
:1000E00055310008593100085D31000861310008C0
:1000F00065310008693100086D3100087131000870
:1001000075310008793100080F2C00087D31000896
:100110008131000885310008893100088D310008DF
:10012000913100089531000899310008B52C00087C
:1001300010B4020052B2002A06D40A01DFF868386F
:10014000040064B21A5509E00A01DFF860380400BF
:1001500064B214F00F04234403F8042C10BC70475D
:1001600010B50400601EB0F1807F01D3012011E0C2
:10017000601EDFF83C1808600F215FF0FF30FFF7CA
:10018000D7FF0020DFF82C1808600720DFF82818B8
:100190000860002010BD30B585B0684600F05CFCFA
:1001A00001984FF47A71B0FBF1F0FFF7D9FFDFF857
:1001B0000C4800F081F92070207800F005FD00F077
:1001C000F5FE00F017FF00F050FBDFF8F447DFF812
:1001D000F407006820600F21208800F02DFD102119
:1001E000608800F029FDDFF8E00700682060112139
:1001F000208800F021FD1221608800F01DFDDFF84D
:10020000CC07006820601321208800F015FD142120
:10021000608800F011FDDFF8B80700682060152144
:10022000208800F009FD1621608800F005FD0024FB
:10023000032C1FDADFF89C572021280001F062F818
:10024000642001F058F91021280001F05BF86420C7
:1002500001F051F92021280001F050F8642001F04C
:100260004AF91021280001F049F8642001F043F90F
:10027000641CDDE7DFF86047D4E90023DFF85C07A2
:10028000DFF85C1701F05CF9C4E90001DFF85407FE
:10029000D0E90023DFF85007C0E900234FF4FA70DB
:1002A00001F08AF8142001F026F901F058FA01F063
:1002B000D5FA01F0CFF801F05AF801F067FB01F030
:1002C000F1F8052000F0C6FCDFF8201708800E20AA
:1002D00000F0C0FC0028F4D000F0CDF90E21002081
:1002E00000F0AAFCEDE7F8B504000D00DFF8000708
:1002F000C0E90045DFF8F006D0E90023DFF8E46646
:10030000D6E9000101F00CFC04D10020DFF8E4166E
:10031000086018E0DFF8AC06006801F011FC22006C
:100320002B0001F00DF906000F00DFF89C060068B5
:1003300001F006FC32003B0001F026FC01F054FD08
:10034000DFF8B0160860DFF8B0060078002814D196
:10035000042000F07FFC002804D1DFF89806006834
:10036000012805DB1021DFF86C0600F0CBFF04E06C
:100370001021DFF8600600F0C1FF0121DFF87406EC
:10038000006880B200F058FCF1BD2DE9F84304008C
:100390000D00DFF86806C0E90045DFF86466DFF8A5
:1003A0002C06006801F0CCFB22002B0001F0C8F8FD
:1003B00080468946DFF81806006801F0C1FB424616
:1003C0004B4601F0E1FB01F00FFD00B230603068F8
:1003D000002801D500203060062000F03BFC80B2F0
:1003E000316888423FDADFF8EC852021404600F092
:1003F00089FF4FF40051DFF80C0600F07FFFDFF8B3
:1004000008763878002818D1012038700020DFF8ED
:10041000FC1508700020DFF8F8150860DFF8F40517
:100420000068DFF8F4150860032000F013FC0321D6
:10043000401C80B200F000FC24E0DFF8D805006822
:10044000DFF8D4150968401A01F0E9FC814608205C
:1004500000F000FC814515DB00203870202140466B
:1004600000F04CFF0EE00020DFF89C150870202102
:10047000DFF8600500F042FF4FF40051DFF884051B
:1004800000F040FFDFF88405007800280DD1DFF888
:1004900080050168326891420CDA316801600221FE
:1004A000006880B200F0C8FB04E00221306880B22E
:1004B00000F0C2FBBDE8F183F8B50121202000F077
:1004C00045FB0F20ADF8000003208DF80200482006
:1004D0008DF80300DFF8FC746946380000F08AFEEE
:1004E0000121380000F0FCFE04000221380000F079
:1004F000F7FE05000421380000F0F2FE0600082196
:10050000380000F0EDFEE400D4F10F04B4EB8504F4
:10051000B4EB4604241A2000C0B2F2BD38B5042062
:1005200000F098FB002805D0DFF8C014B1F90000F6
:10053000002808D1DFF8AC04D0E90023DFF8A804D4
:10054000C0E9002350E0DFF8D404DFF8B4241368D6
:100550000468A3420FDB00681168401A01F064FCD4
:10056000DFF8BC44D4E9002300F0EAFFDFF8B4244C
:10057000C2E9000111E0B1F90000DFF87814096860
:10058000401A01F051FCDFF8A044D4E9002300F048
:10059000D7FFDFF89024C2E90001DFF84C44D4E92A
:1005A0000023DFF88054D5E9000101F0EDFAC4E939
:1005B0000001DFF83054D4E90001D5E9002301F04F
:1005C00045FC04D2D5E90001C4E900010CE0DFF8E4
:1005D0000854D5E90001D4E9002301F037FC03D227
:1005E000D5E90001C4E90001DFF8FC43D4E90001CA
:1005F000DFF8E453D5E9002301F042FC0022DFF8E4
:100600002C3400F09DFFDFF82824C2E90001D4E972
:10061000000101F0E9FB80B200F019FF31BDDFF805
:10062000D003D0E90023DFF80C04C0E900237047B1
:10063000DFF8BC03D0E90023DFF8FC03C0E90023A6
:100640007047DFF8B803D0E90023DFF8F003C0E912
:1006500000237047DFF8A403D0E90023DFF8E003AC
:10066000C0E90023704780B5172000F0F3FADFF8E7
:10067000AC13086001BD2DE9F0470E2000F0EAFA46
:100680000400200080B2012846D10B2000F0E2FADD
:1006900007000A2000F0DEFA8246CA4DE54EBFB2DE
:1006A000380001F011FD804689461FFA8AFA50464B
:1006B00001F00AFD02000B004046494601F022FB12
:1006C00080468946DC4AD2E90001D6E9002301F0E0
:1006D00019FB02000B004046494601F0D1FB01F036
:1006E00001FD28600A2000F0B5FA80B201F0ECFCB0
:1006F00080468946286801F023FAD6E9002300F0F5
:100700001FFF02000B004046494601F0FBFA01F0D2
:10071000E9FCAD49086062E0200080B202284AD1BD
:100720000D2000F097FA07000C2000F093FA8246A3
:10073000A64DC24EBFB2380001F0C6FC80468946C5
:100740001FFA8AFA504601F0BFFC02000B00404637
:10075000494601F0D7FA01F0C5FC01F0F1F98046F5
:100760008946B74AD2E90001D6E9002301F0CAFA66
:1007700002000B004046494601F082FB01F0B2FC4A
:1007800028600C2000F066FA80B201F09DFC8046E3
:100790008946286801F0D4F9D6E9002300F0D0FE9C
:1007A00002000B004046494601F0ACFA01F09AFC09
:1007B0008749086013E0200080B203280FD1A148C8
:1007C000006880490860A04800687F4908609F4829
:1007D00000687E4908609E4800687D49086000F016
:1007E00093F8774D7748006828600F21288800F03B
:1007F00023FA1021688800F01FFA73480068286007
:100800001121288800F018FA1221688800F014FAE3
:100810006E48006828601321288800F00DFA142122
:10082000688800F009FA6A4800682860152128885D
:1008300000F002FA1621688800F0FEF9654D2021CB
:10084000280000F05FFD1021280000F05BFD4FF450
:100850007A7000F050FE2021280000F04FFD10219A
:10086000280000F04BFDBDE8F08710B5794C002062
:1008700000F054FC2070012000F050FC6070022059
:1008800000F04CFCA070032000F048FCE0702068F1
:100890004C490860042000F041FC2070052000F065
:1008A0003DFC6070062000F039FCA070072000F0CD
:1008B00035FCE070206844490860082000F02EFCF8
:1008C0002070092000F02AFC60700A2000F026FC4D
:1008D000A0700B2000F022FCE07020683B4908600B
:1008E0000C2000F01BFC20700D2000F017FC607045
:1008F0000E2000F013FCA0700F2000F00FFCE07041
:1009000020683349086010BD10B5524C2D4800686E
:1009100020600021207800F0BCFB0121607800F00D
:10092000B8FB0221A07800F0B4FB0321E07800F0CE
:10093000B0FB2548006820600421207800F0A9FB66
:100940000521607800F0A5FB0621A07800F0A1FB4E
:100950000721E07800F09DFB1C480068206008211A
:10096000207800F096FB0921607800F092FB0A21C4
:10097000A07800F08EFB0B21E07800F08AFB144891
:10098000006820600C21207800F083FB0D21607846
:1009900000F07FFB0E21A07800F07BFB0F21E078B8
:1009A00000F077FB10BD000000E400E018ED00E06F
:1009B00014E000E018E000E010E000E07502002024
:1009C0002C0200201C020020200200202402002013
:1009D0002802002000140140100000209A999999E3
:1009E0009999D93FB8010020B00100207002002081
:1009F000C8010020A801002077020020E0010020AB
:100A000010020020000C0140740200204800002069
:100A100014020020340200201802002018000020D8
:100A200000000020C0010020080000200000444019
:100A3000F8010020D0010020D8010020E8010020AA
:100A4000F00100201C0000202000002024000020D5
:100A500028000020300200202DE9F04F0100002284
:100A60000025002000264E4FD7F800C01CF00C0CCB
:100A70006346002B04D0042B05D0082B06D023E0BE
:100A8000484A0A6022E0484A0A601FE03A6812F4C5
:100A900070123B6813F480331800920C921C1500FE
:100AA000002804D1414A02FB05F20A600BE03A68D3
:100AB000920304D53B4A02FB05F20A6003E03A4A7E
:100AC00002FB05F20A6001E0364A0A603C6814F055
:100AD000F0042409DFF8D89019F804E00A6832FA23
:100AE0000EF24A603B6813F4E0631B0A19F80380B6
:100AF0004A6832FA08F28A603A6812F46052D20AFE
:100B000019F80290D1F804A03AFA09FAC1F80CA039
:100B10003F6817F44047BF0BDFF898A01AF807A00A
:100B2000D1F80CB0BBFBFAFBC1F810B0BDE8F08FF8
:100B30000A00D2B2002A04D01F4A1368034313608C
:100B400003E01D4A13688343136070470A00D2B262
:100B5000002A04D0194A13680343136003E0174ABC
:100B600013688343136070470A00D2B2002A04D08E
:100B7000134A13680343136003E0114A1368834365
:100B8000136070470A00D2B2002A04D00D4A1368DD
:100B90000343136003E00B4A1368834313607047F9
:100BA0000410024000127A000024F40000093D0005
:100BB00034000020440000201410024018100240AD
:100BC0001C10024010100240DFF87C130870DFF8A0
:100BD0007C1340F201420A8000224A8000228A806F
:100BE0000022CA8000220A8100224A81C8228A810A
:100BF0006422CA810A220A8200224A8200228A8250
:100C00000022CA8200220A8300224A8300228A83A9
:100C10000022CA8300220A8400224A8400228A8495
:100C20000022CA8400220A8500224A8500228A8581
:100C30004FF49672CA85704702000800C0B21828A7
:100C400001DB012005E0C1480B00DBB220F81320D6
:100C50000020704701000800C0B2182801DB002006
:100C600003E0BA48C9B230F81100704710B5B8496E
:100C70000878082803DA0020087001203AE0B54A15
:100C80001078B14B1B78984221D0107802281AD1E5
:100C9000D07A137B13EB0023547B240214EB034420
:100CA000907B0419AC480460D07D137E13EB0023C5
:100CB000507E927E12EB00220A2092FBF0F010EBA5
:100CC0000340A64A106000200870012012E050780E
:100CD000032802D100F00FF80CE05078062802D16A
:100CE00000F06DF806E05078102802D100F0CFF83F
:100CF00000E0012010BD70B5002095490870984CA7
:100D0000944D0621280000F031F92080207800F071
:100D1000FF00A979884250D1208880B2000A80B2B1
:100D2000E979884249D1A878002844D16979E878DE
:100D3000411819293FDA8B4E834800783070032020
:100D4000707068794000B07000206979884212DACA
:100D50007E49EA78121831F8122092B2120A06EB94
:100D60004003DA70EA78121831F8121006EB4002EC
:100D70001171401CE9E768794000C01C010089B28C
:100D8000300000F0F3F82080687906EB40002188FD
:100D9000C170687906EB4000218889B2090A0171A7
:100DA00069794900491D300000F099FE01206E4923
:100DB0000870002002E0012000E0012070BD70B545
:100DC000002063490870674C5F4800782070062057
:100DD0006070634D5F4E0621300000F0C7F8288038
:100DE000287800F0FF00B179884237D1288880B296
:100DF000000A80B2F179884230D1B078A070F078E2
:100E0000E0703079207170796071F078182807DA15
:100E10003079717951EA00214C48F27820F81210AB
:100E2000F0780A2802D1FFF7FAFB1FE0F0780B28D0
:100E300002D1FFF7FDFB19E0F0780C2802D1FFF793
:100E400000FC13E0F0780D2802D1FFF703FC0DE061
:100E5000F07817280AD1FFF706FC07E00020A07001
:100E60000020E07000202071002060710621200029
:100E700000F07CF828802888A071288880B2000AB9
:100E8000E0710821200000F02AFE002070BDF8B5B6
:100E90002F480478A41E00210170314D2D4E2000F2
:100EA000010089B2300000F061F828802D4F2648FB
:100EB0000078387010207870B078B870F078F870DA
:100EC00030793871287800F0FF00315D884228D1F0
:100ED000288880B2000A80B206EB04014978884273
:100EE0001FD10020F178182919DA00217279914276
:100EF00015DAF2788A18182A11DA144AF378CB181E
:100F000006EB410C9CF807C006EB410E9EF808E08A
:100F10001EEB0C2E22F813E0401C491CE6E778710A
:100F200001E0002078710621380000F01FF82880C9
:100F30002888B871288880B2000AF8710821380022
:100F400000F0CDFD0020F2BD7602002078010020E7
:100F5000780200204C0000203402002038020020DB
:100F600072020020B00000204800002030B40300CE
:100F70004FF6FF7000240A0092B2944213DA1A5D11
:100F800050400022082A0CDAC50706D580B20500B9
:100F90004AF2010090EA550001E080B24008521C7C
:100FA000F0E7641CE7E780B230BC704780B50121F0
:100FB0000820FFF7CBFD01212020FFF7C7FD3020DF
:100FC000ADF8000003208DF8020010208DF803001A
:100FD0006946064800F00EF94FF40050ADF80000E5
:100FE0006946034800F006F901BD00BF0014014046
:100FF000000C014018B585B001215FF40010FFF727
:10100000B3FD01210920FFF7A1FDC020ADF80000CC
:1010100003208DF802001C208DF803006E4C6946F9
:10102000200000F0E7F82020ADF8000003208DF844
:10103000020010208DF803006946200000F0DAF865
:1010400000222021200000F061F9644C200001F012
:101050007DF80020ADF808004FF48040ADF80A009C
:101060000121ADF80C104FF48061ADF80E10ADF811
:1010700010005B4801900121200001F0F9F801A95E
:10108000200001F07EF80121200001F01EF906B0D9
:1010900010BDF8B504000D00504E0121300001F0E4
:1010A000F6F85049300001F033F90028F9D0002259
:1010B000A021300001F01FF94B49300001F028F960
:1010C0000028F9D0290089B2090AC9B2300001F01C
:1010D0000BF9464F3900300001F01AF90028F8D01A
:1010E0002900C9B2300001F0FFF83900300001F0EA
:1010F0000FF90028F9D02100C9B2300001F0F4F84E
:101100003900300001F004F90028F9D00121300045
:1011100001F0CCF8052000F0EEF9F1BDF8B50400BF
:101120002E4E5FF40031300001F00AF90028F7D1AB
:101130000121300001F0ABF82A4D2900300001F008
:10114000E7F80028F8D00022A021300001F0D3F801
:101150002549300001F0DCF80028F9D0210089B2DF
:10116000090AC9B2300001F0BFF8204F3900300041
:1011700001F0CEF80028F8D02100C9B2300001F00B
:10118000B3F83900300001F0C3F80028F9D001218C
:10119000300001F07CF82900300001F0B9F8002897
:1011A000F9D00122A021300001F0A5F8104930004B
:1011B00001F0AEF80028F9D0300001F099F80500F0
:1011C0000021300001F081F80121300001F06EF8BB
:1011D0002800C0B2F2BD0000000C014000540040E5
:1011E000A0860100010003008200070084000700C0
:1011F00040000300F0B50022002300240025002653
:10120000002791F803C01CF00F0C91F803E05FEA8F
:10121000CE6E02D58A7852EA0C0C0A88D2B2002A25
:101220002AD00268160000221400082C23D25FF096
:10123000010E1EFA04F215000A882A401300AB4280
:1012400017D1A20015000F22AA401700BE431CFAB6
:1012500005F21643CA78282A04D11EFA04FEC0F803
:1012600014E006E0CA78482A03D11EFA04FEC0F84A
:1012700010E0641CD9E706600A88B2F5807F2EDB97
:101280004268160000221400082C27D25FF0010EDD
:1012900014F108021EFA02F215000A882A4013000F
:1012A000AB4219D1A20015000F22AA401700BE437D
:1012B0001CFA05F21643CA78282A04D114F1080250
:1012C0001EFA02F24261CA78482A05D114F10802D6
:1012D0001EFA02FEC0F810E0641CD5E74660F0BDBF
:1012E00010B40200002390680C00A4B2204201D088
:1012F000012000E00020C0B210BC70470A0092B28A
:10130000026170470A0092B2426170471300DBB27B
:10131000002B03D00B009BB2036102E00B009BB2D9
:1013200043617047010049B2002909D4012210F03D
:101330001F018A40784903005BB25B0941F8232012
:10134000704710B4020052B2002A05D40A01734B50
:10135000040064B21A5508E00A01714B040064B23B
:1013600014F00F04234403F8042C10BC7047E0B5BC
:1013700001210120FFF7F8FB684601F095F80020F5
:10138000ADF802004720ADF8000040F2E730ADF8BC
:10139000040069465FF0804000F0F4FF0122012163
:1013A0005FF0804001F09BF800211C20FFF7C9FF8F
:1013B0001C20FFF7B7FF07BD38B588B00400012136
:1013C0000220FFF7D1FB01A801F06EF80020ADF874
:1013D00006000720ADF804005348210089B290FBB5
:1013E000F1F0ADF808004F4D01A9280000F0CAFF48
:1013F0006020ADF810000120ADF812000020ADF81B
:1014000016000220ADF8180004A9280000F0FFFF24
:101410000821280001F07EF80121280001F06BF876
:101420000121280001F04CF801210520FFF78EFB77
:101430008020ADF8000018208DF8030003208DF8FF
:10144000020069463948FFF7D5FE09B030BD38497A
:10145000088070471FB501210420FFF785FB68460F
:1014600001F022F80020ADF8020041F61F40ADF86F
:101470000000C720ADF804002E4C6946200000F0A3
:1014800081FF01220121200001F029F80121200023
:1014900001F016F800211E20FFF753FF1E20FFF772
:1014A00041FF1FBD1FB501210820FFF75DFB684606
:1014B00000F0FAFF0020ADF8020041F61F40ADF841
:1014C000000041F28730ADF804001B4C6946200053
:1014D00000F058FF01220121200001F000F8012155
:1014E000200000F0EDFF00213220FFF72AFF32201C
:1014F000FFF718FF1FBD01B4104900980860086885
:101500000028FCD101B070470C490868002802D0BF
:101510000868401E0860704700E100E000E400E059
:1015200018ED00E00004004040548900000801402C
:101530003804004000080040000C00406002002019
:1015400030B540F2FF7C1CEA11541DBF1CEA135554
:10155000644565453FE0641981EA030C6FF35F530E
:101560000CF0004C43F48013C90241F0004141EA01
:10157000505EC5021100A5FB020200284FF00000DA
:10158000EEFB01204FF00001E3FB052118BF42F004
:101590000102401800214941E3FB0E01A4F58064DB
:1015A0000D0302D292184041494154F1010470DD0B
:1015B000450872F1004250F1000051EB0451A1F5D1
:1015C000801102D441EA0C0130BD40F2FF7E4CEAAA
:1015D0000E51002030BD0CEA1355644518BF654517
:1015E00081EA030C0CF0004C41D050EA410E1CBFC4
:1015F00052EA430E02E06146002030BD24422C44F2
:101600001BD15FEA050EF6D0090302BF0146002098
:10161000AEF1140EB1FA81F5AEEB050401FA05FE48
:101620000C35C5F1200100FA05F5C8404EEA000E60
:101630006FF35F5343F480139CE733F00043B3FA36
:1016400083F504BFB2FA82FE75440B3D641BB5F10D
:10165000200E2FBF02FA0EF3AB40C5F1200E22FA86
:101660000EFE38BF43EA0E03AA40641C7CE750EA32
:10167000410E14BF52EA430E6FF000014FF4001503
:1016800015EB430F8EBF194615EB410F9DE7B4D8FC
:1016900030BDD4F10104B4F120050FDAC4F1200506
:1016A000520828BF42F0010210FA05FE01FA05F5C2
:1016B0007244E2BFE0402843E1400FE0352C9ADC61
:1016C000C5F1200452EA400220FA05F218BF42F0A8
:1016D000010231FA05F0A1400A43002172F10042F3
:1016E00050F1000051EB0C0130BD0EE00268436880
:1016F000024408305FEAC37C44BF4B445B1E52F88F
:1017000004CB43F804CB091FF9D150F8041B00297E
:10171000ECD17047010049B2002909D4012210F030
:101720001F018A408D4903005BB25B0941F8232009
:10173000704710B4020052B2002A05D40A01884B47
:10174000040064B21A5508E00A01864B040064B232
:1017500014F00F04234403F8042C10BC704718B590
:1017600091B001210120FFF7E3F901214FF401704D
:10177000FFF7ECF90420ADF8000000208DF803001D
:1017800069467948FFF736FD784C200000F0E0FE0E
:10179000774806907748079000200890012009902C
:1017A00000200A9000200B904FF480700C904FF4B2
:1017B00080600D9020200E904FF400500F9000207C
:1017C000109006A9200000F03CFF0121200000F04D
:1017D00056FF00210B20FFF7ACFF0B20FFF79AFF0D
:1017E00001220221200000F059FF0020019000207A
:1017F0008DF8080001208DF809005FF46020039047
:101800000020049001208DF814005B4C01A92000F9
:1018100000F08AFF072301220221200000F0F2FFDE
:101820000121200000F0B4FF0121200000F0A2FF00
:10183000200000F0BBFF200000F0BDFF0028FAD11F
:10184000200000F0C2FF200000F0C4FF0028FAD101
:101850000121200000F0C8FF12B010BD18B591B0F2
:1018600001210220FFF764F9012148F20400FFF78B
:101870006DF90820ADF8000000208DF803006946DE
:101880003948FFF7B7FC3D4C200000F061FE3C48B2
:1018900006903C4807900020089001200990002005
:1018A0000A9000200B904FF480700C904FF48060F1
:1018B0000D9020200E904FF400500F9000201090BB
:1018C00006A9200000F0BDFE0121200000F0D7FE97
:1018D00000213B20FFF72DFF3B20FFF71BFF0122DC
:1018E0000221200000F0DAFE0020019000208DF897
:1018F000080001208DF809005FF4602003900020AB
:10190000049001208DF814001F4C01A9200000F064
:101910000BFF072301220321200000F073FF0121A8
:10192000200000F035FF0121200000F023FF2000FF
:1019300000F03CFF200000F03EFF0028FAD120001C
:1019400000F043FF200000F045FF0028FAD10121FC
:10195000200000F049FF12B010BD000000E100E0DF
:1019600000E400E018ED00E000080140080002403B
:101970004C24014058020020002401405804024039
:101980004C3C01405C020020003C014010B586B098
:10199000012144F20400FFF7D9F85948016851F0D9
:1019A000010101604FF40070ADF8000018208DF8BF
:1019B000030003208DF80200524C69462000FFF717
:1019C00019FC4FF48060ADF8000003208DF8020090
:1019D00004208DF8030069462000FFF70BFC20204F
:1019E000ADF8000003208DF8020010208DF80300F0
:1019F00069462000FFF7FEFB5FF4E1300290002013
:101A0000ADF80C000020ADF80E000020ADF810007D
:101A10000020ADF814000C20ADF812003A4C02A9D9
:101A2000200000F07DFF0121200000F0E7FF0122EF
:101A300040F22551200000F0F0FF25208DF8040031
:101A400000208DF8050000208DF8060001208DF89B
:101A5000070001A801F078F806B010BD01002B487E
:101A60000278642A07DA2A4A0378D1540278521C91
:101A70000270002000E001207047F8B50400254DF9
:101A800028686428FBD0204E40F2277700223900D6
:101A9000300000F0C2FF2868002805D18021300006
:101AA00000F0FBFF002813D11B4801684A1C0260AC
:101AB0001A4A54540168642901D100210160286840
:101AC000401C286001223900300000F0A6FF05E02C
:101AD0002100C9B289B2300000F0D7FFF1BD38B59E
:101AE00005000C0020210748FFF708FC002C05D05A
:101AF0002878FFF7C2FF6D1C641EF7E731BD0000B8
:101B0000181002400008014000380140780200200F
:101B10004C0000206C020020640200201401002010
:101B2000904205D1994204D041EA030C50EA4C0C92
:101B300070474FF4001C1CEB410F38BF89427047BF
:101B4000C0F3C75181B1FF2906D0C110400721F071
:101B5000E04101F16051704741020CBF40F4E001E7
:101B60006FF000410020704700F0004100020AD0F1
:101B7000B0FA80FC00FA0CF001F16051A1EB0C51BD
:101B800001EBD0214005704770B491EA030F4FF08C
:101B9000004540F1BF806B40841A71EB030604D20C
:101BA0006E40001BB141121973414FF4001C1CEB35
:101BB000410F34BF7CEB430683E00C0DA4EB1356BE
:101BC000362E00F37C80012E45EAC32341DC43EA34
:101BD000525312BFD20292025B08240545EAC1218A
:101BE00041EA5051D2EBC020994125D407D1B0FA37
:101BF00080F610FA06F162D00020203608E0B1FA33
:101C000081F6B140C6F1200220FA02F21143B04041
:101C10004FEAF474B4EB465434F001064FEA74040E
:101C20000AD8D6F50016760D04F00044F04061FAAB
:101C300006F25040F1404840C00A40EA415021F0CD
:101C4000004128BF5FEA500550F1000044EBD1216C
:101C500035E0DB0A45EAC121C90AB6F120050EDDEF
:101C600042EA0242120CC5F1200603FA06F6EB40E6
:101C700042EA06056D42984161F100010DE062FA09
:101C800006F5F240554063FA06FC82EA0C02F34086
:101C90005A406D42904161EB030111F4801F05D160
:101CA000641E620502D06D004041494121F480115B
:101CB000430875F1004350F1000041EB045170BC42
:101CC00070471CEB410F15D223F0004352EA430644
:101CD0000BD04FEA4C0CBCEB410F04D80C0D661E28
:101CE000342EB7DDEBE7801A994150EA410608BF70
:101CF0000021E4E708BF1CEB430F28BF6FF0000191
:101D0000DDE7000070B491EA030F4FF000457FF566
:101D100043AF6B40841A71EB030603D2001BB14141
:101D2000121973414FF4001C1CEB410F34BF7CEBC4
:101D3000430442E00C0DA4EB1356352E4FDC45EA6C
:101D4000C323DB0A45EAC121C912B6F120050DDD26
:101D500063FA05F6EB4086EA0305124218BF45F028
:101D60000105C01851F100010CD213E062FA06F52A
:101D7000F2405540F3415A40B340F3405A40801876
:101D8000594107D349085FEA30005FEA350528BFAB
:101D900045F0010501F58011420875F1004250F14E
:101DA000000041EB04514E0016F5001F70BC38BF17
:101DB00070470020090D090570471CEB410F10D238
:101DC00052EA43060BD0BCEB410F05D80C0DAB43D8
:101DD000661E342EB6DD02E0AB438018594170BC5C
:101DE000704770BC70470000C1F30A5340F21E42B6
:101DF000D31A0CDDCA0283F3070342EA505242F0C1
:101E00000042DA4002EBE17282EAE17070476FEA69
:101E1000E17203F2E13008B182F00040704700281F
:101E200048BF40427047000010F0004160B148BF19
:101E30004042B0FA80F29040D21CC2F5846241EA7E
:101E4000025202EBD02140057047000041EA030C2A
:101E500050EA4C0C52EA0C0C4FF4001C09D307D08A
:101E60001CEB410F9CBF1CEB430F8B4208BF82420F
:101E700070471CEB430FFBD8994208BF9042704754
:101E8000F0B540F2FF7581EA030C0CF0004C15EA46
:101E900011541DBF15EA1357AC42AF42E5E0BC41F7
:101EA000C1F31301C3F31303801A994143F4801360
:101EB00004D2641E0018494180185941C90241EA00
:101EC0005051B1FBF3F603FB1611A2FB0675D7EBDD
:101ED000C020A94102D2761E80185941C90241EAA8
:101EE0005051B1FBF3FE03FB1E11A2FB0E75D7EBA5
:101EF000C020A94103D2AEF1010E801859418902D8
:101F000041EA9051760546EA8E2EB1FBF3F603FBCB
:101F10001611A2FB0675D7EB8020A94102D2761ECE
:101F200080185941C90241EA50514EEA060EB1FBF0
:101F3000F3F603FB1611A2FB0675D7EBC020A941EF
:101F400002D2761E80185941C90241EA5051B1FBB4
:101F5000F3F703FB1711A2FB0735D3EBC020A94110
:101F600067F100070CBF004247F0010766F3D52771
:101F70004FEA1E31B80814F5806412DDBD0775F113
:101F8000004250EB0E5051EB045111F5801F5CBF25
:101F900041EA0C01F0BD4CF07F6141F0E0410020CE
:101FA000F0BDBD076D0840EA0E5041F48011D4F138
:101FB0000104B4F120060ADAC4F120060200E04070
:101FC00001FA06F3E1401843B24015430EE0342C09
:101FD00013DCC6F1200445EA40056D0820FA06F23C
:101FE000154321FA06F0A1400D43002175F100428E
:101FF00050F1000051EB0C01F0BD00205FEA0C0134
:10200000F0BDCFB992185B41B3FA83F704BFB2FABF
:1020100082F6BF190B3FB7F120062FBF02FA06F375
:10202000BB40C7F1200622FA06F638BF3343BA4058
:102030001CB1E419641E33E77F4231F00041B1FA6C
:1020400081F404BFB0FA80F6A4190B3CB4F1200669
:102050002FBF00FA06F1A140C4F1200620FA06F6CF
:1020600038BF3143A0403C1B1AE7AC421ABF05EA17
:102070001357AF4212E050EA41061CBF52EA430632
:10208000BFE750EA4107304661461CBF41EA0551AF
:10209000F0BD52EA430C08BFC143F0BD00204FF42D
:1020A000001616EB410F98BF16EB430F08BF16EB57
:1020B000410F24BFC14305E016EB430F0CBF61463F
:1020C0004CEA0551F0BD000050B1B0FA80F18840F3
:1020D000C91CC1F58461090501EBD0214005704799
:1020E0000146704701F000428B1AA3F16051B1F52F
:1020F000801F0ADBB1F17F6F1FD242EAC102C1002B
:1021000071F1004142EB507070470B15C3F10903A8
:10211000212B10D2890241EA9051800201284941C5
:1021200041F0004121FA03F0C3F12003994071F11D
:10213000004150417047100070476FF0000013EBF2
:10214000103F5CBF000E42EAC050704710B504005B
:10215000434884420AD101215FF40010FEF712FDCA
:1021600000215FF40010FEF70DFD09E001215FF48E
:102170008000FEF707FD00215FF48000FEF702FDFE
:1021800010BD2DE9F84785B005000E0000275FF06F
:1021900000085FF00409DFF8CCA0AC884FF6C070EF
:1021A00004406846FEF758FC02992F48B1FBF0F254
:1021B0001443AC802B884FF6FE7003402B80002325
:1021C0003068DFF8A8C060450DD230684000B1FB30
:1021D000F0F4200080B2042801DA04200400234334
:1021E000501C288423E0F0884BF6FF74A04205D1F0
:1021F000346803204443B1FBF4F406E0346819204A
:102200004443B1FBF4F454F48044200501D154F06C
:102210000104234353F400431700BFB24FF49670F8
:1022200047434FF47A7097FBF0F0401C2884AB834F
:10223000288850F0010028802F884FF6F53007409D
:10224000B0880743708907432F80B6F80CC03089E7
:1022500050EA0C0CA5F808C006B0BDE8F0870000F5
:102260000054004000127A0040420F00A186010095
:102270000A00D2B2002A04D0028852F00102028081
:1022800004E003884FF6FE721340038070470A0093
:10229000D2B2002A04D0028852F48072028004E094
:1022A00003884FF6FF621340038070470A00D2B2E2
:1022B000002A04D0028852F40072028004E00388ED
:1022C0004FF6FF521340038070470A00D2B2002A33
:1022D00004D0028852F48062028004E003884FF642
:1022E000FF321340038070470A00D2B20282704767
:1022F000008AC0B270471300DBB2002B02D051F04D
:10230000010101E011F0FE010B00DBB20382704716
:10231000F0B502000020002500270023968AB2F8BD
:1023200018C05FEA0C4C5CEA060424F07F4411EA12
:10233000040E8E4501D1012000E00020C0B2F0BDA6
:1023400082B0020000230020019000200090009243
:102350000800000F019021F07F410198002803D070
:1023600000981430009003E0090C00981830009099
:1023700000980068084201D0012000E00020C0B2AF
:1023800002B0704710B400220488434B98420FD02B
:10239000DFF8A82190420BD0B0F1804F08D03F4A1F
:1023A000904205D03E4A904202D03E4A904204D12B
:1023B0004FF68F7214404A881443DFF87821904218
:1023C00008D0DFF87421904204D04FF6FF42144049
:1023D000CA88144304808A8882850A8802859842C4
:1023E0000FD0DFF8582190420BD0DFF854219042F3
:1023F00007D0DFF85021904203D0DFF84C21904203
:1024000001D10A7A02860122828210BC7047F0B4A0
:10241000002600275FF0000C038C4FF6EF7213408C
:102420000384038C8488058B48F6FF7215404FF6B1
:10243000FF4215400A8855EA02254FF6DF72134025
:102440000A8953EA02134A8853EA0213124A904255
:1024500003D0DFF8F820904217D14FF67F72134077
:102460004A8953EA02134FF6BF7213408A8853EA2F
:1024700002134FF6FF3214404FF2FF7214408A8964
:1024800054EA8204CA8954EA820484800583CA8893
:1024900002870384F0BC7047002C01400004004018
:1024A00000080040000C00404FF6FF7181800021C1
:1024B00001800021C180002141800021017270470C
:1024C0000A00D2B2002A04D0028852F0010202802F
:1024D00004E003884FF6FE72134003807047130038
:1024E000DBB2002B03D083890B43838102E0838915
:1024F0008B43838170470A00D2B2002A04D002883D
:1025000052F08002028004E003884FF67F7213408D
:102510000380704710B40023048B4FF2FF72144005
:1025200054EA0124048310BC70470A0092B2D243DB
:102530000282704700100040001400400034014047
:102540000040014000440140004801400034014087
:1025500002684FF6FE710A4002600021016000210E
:102560004160002181600021C1605F49884205D13E
:102570005E490A6852F00F020A6061E05C498842D5
:1025800005D15A490A6852F0F0020A6058E05949E8
:10259000884205D155490A6852F470620A604FE0DA
:1025A0005549884205D151490A6852F470420A607F
:1025B00046E05249884205D14C490A6852F47022DB
:1025C0000A603DE04E49884205D148490A6852F404
:1025D00070020A6034E04B49884205D143490A68D9
:1025E00052F070620A602BE04749884205D14749A2
:1025F0000A6852F00F020A6022E04549884205D17C
:1026000042490A6852F0F0020A6019E041498842E2
:1026100005D13E490A6852F470620A6010E03E49F2
:10262000884205D139490A6852F470420A6007E0CD
:102630003A49884204D135490A6852F470220A6046
:10264000704710B4002304686FF30E148A681443B3
:102650000A6A14430A6914434A6914438A69144391
:10266000CA6914434A6A14438A6A14430460CA68F4
:1026700042600A6882604A68C26010BC70470A0003
:10268000D2B2002A04D0026852F00102026004E0D3
:1026900003684FF6FE721340036070471300DBB20D
:1026A000002B03D003680B43036002E003688B43F5
:1026B00003607047010000220020CB0002D5184BB8
:1026C0001B6801E0174B1B680B4201D0012000E0A2
:1026D0000020C0B27047C10002D50C49086001E07B
:1026E00002490860704700000800024004000240F0
:1026F0001C000240300002404400024058000240EA
:102700006C000240800002400804024004040240C1
:102710001C040240300402404404024058040240B9
:102720000004024000000240F0B400230024456889
:10273000DFF8E42115400A6815430A7955EA0225B5
:1027400045608668DFF8D4211640CA6816438A6857
:1027500016434A7956EA42068660C76A37F470071C
:102760000A7C521E14432200D2B257EA0257C762B3
:10277000F0BC70470A00D2B2002A04D0826852F03E
:102780000102826003E08268520852008260704752
:102790000A00D2B2002A04D0826852F480728260A9
:1027A00003E0826832F4807282607047816851F081
:1027B000080181607047010000228868000701D588
:1027C000012000E00020C0B27047816851F0040190
:1027D00081607047010000228868400701D5012010
:1027E00000E00020C0B270470A00D2B2002A04D034
:1027F000826852F4A002826003E0826832F4A00290
:10280000826070472DE9F04100275FF0000C0C005A
:10281000E4B20A2C16DBC5680726B1F10A0E0324C0
:1028200004FB0EFE16FA0EFE35EA0E0598465FFA18
:1028300088F8B1F10A060324664318FA06F6354310
:10284000C56011E005690726032404FB01F416FAAC
:1028500004F4A5439E465FFA8EFE032606FB01F6AE
:102860001EFA06F6354305611400E4B2072C19DAA6
:10287000476B5FF01F0CB2F1010E052404FB0EFE46
:102880001CFA0EFE37EA0E0788465FFA88F8B2F1A6
:10289000010C052404FB0CFC18FA0CFC5CEA07078D
:1028A000476336E01400E4B20D2C19DA076B5FF0D1
:1028B0001F0CB2F1070E052404FB0EFE1CFA0EFEDF
:1028C00037EA0E0788465FFA88F8B2F1070C05244C
:1028D00004FB0CFC18FA0CFC5CEA0707076318E021
:1028E000C76A5FF01F0CB2F10D0E052404FB0EFE4B
:1028F0001CFA0EFE37EA0E0788465FFA88F8B2F136
:102900000D0C052404FB0CFC18FA0CFC5CEA070710
:10291000C762BDE8F0810000FFFEF0FFFDF7F1FFA8
:102920002DE9F84F86B004000D00002600275FF067
:1029300000085FF000095FF0000AA8890028A3469C
:10294000218A4CF6FF700140E8880143009100980D
:102950002082A1894EF6F3100140A88801432889FE
:1029600001436889014300910098A081A18A4FF634
:10297000FF400140A889014300910098A08201A86E
:10298000FEF76AF81C48834501D1049900E00399D9
:10299000A089000407D5192000FB01F02A68520025
:1029A000B0FBF2F206E0192000FB01F02A68920069
:1029B000B0FBF2F26420B2FBF0F6360133001B09E3
:1029C0007FF0630000FB0323A089000408D5D80032
:1029D00032306427B0FBF7F010F00700064307E041
:1029E000180132306427B0FBF7F010F00F000643F7
:1029F000268107B0BDE8F08F003801400A00D2B24E
:102A0000002A04D0828952F40052828104E0838932
:102A10004DF6FF721340838170472DE9F04100238A
:102A2000002500275FF0000E0C0040F66A16A4B2E5
:102A3000B44280460C00E4B26409E4B20E00B6B2BF
:102A400016F01F065FF0010C1CFA06FC012C02D1E7
:102A500018F10C0806E0022C02D118F1100801E070
:102A600018F114081300DBB2002B06D0D8F80030A0
:102A70005CEA0303C8F8003005E0D8F8003033EA18
:102A80000C03C8F80030BDE8F081CA05D20D828081
:102A900070478088C005C00D704702000023080001
:102AA00080B2B0F5007F1088084201D0012000E01C
:102AB0000020C0B27047F0B40400002700200022BC
:102AC00000260B0040F66A159BB2AB420D00EDB23A
:102AD0006D09EDB20B009BB213F01F035FF0010C08
:102AE0001CFA03F3012D02D1A089034006E0022D58
:102AF00002D1208A034001E0A08A03400A0092B27A
:102B0000120A92B21CFA02F220880240002B03D073
:102B1000002A01D0012000E00020C0B2F0BC7047C4
:102B200070B4002200240B0040F66A159BB2AB4241
:102B30000B009BB21B0A01259D402E00B6B2F64346
:102B4000068070BC70470000F0B4002200230F2400
:102B5000C17800291FD01649096811F4E061D1F548
:102B6000E061090AD1F104052B00CC4045789D4075
:102B70008678264035432D012A000E4D0678AA5549
:102B80000125067816F01F06B5400B4E07787F1119
:102B900046F8275009E00121057815F01F05A940E6
:102BA000064D0678761145F82610F0BC70470000F7
:102BB0000CED00E000E400E000E100E080E100E076
:102BC000FEE7FEE7FEE780B5FEF79EFC844801685D
:102BD000491C016001BD80B501215FF08040FFF715
:102BE000A4FC00215FF08040FFF76AFCFEF73EF88E
:102BF00001BD80B501217B48FFF797FC01BD80B581
:102C000001217948FFF791FCFDF788FC01BD80B5F3
:102C100001217648FFF789FC754801780A290DDB08
:102C200005210020FEF708F804210020FEF704F833
:102C30007048016891F01001016002E00178491CC0
:102C4000017001BD70B50220FFF734FD01282DD1C0
:102C5000694C21686948006841182160684D2868FE
:102C6000401C286067482968026891421ED3664E5E
:102C700021680068B1FBF0F0FFF726FAC6E9000111
:102C8000D6E90001FDF72FFB00202860002020601E
:102C90005E480168491C016001684FF47A70414345
:102CA0004F480068B1FBF0F0594908600220FFF777
:102CB00012FD70BD2DE9F047564C2000FFF7FAFCDD
:102CC00001282ED1544D29685448006841182960C4
:102CD000534E3068401C3060DFF848A13068DAF8A5
:102CE000001088421DD3504F2868FFF7EDF9804649
:102CF0008946DAF80000FFF7E7F900224B4BFFF7AF
:102D0000BFF802000B0040464946FFF7B9F8C7E993
:102D10000001D7E90001FDF738FB002030600020FA
:102D200028602000FFF7D7FCBDE8F08738B5404C9D
:102D30002088800610D500203E49088001215FF0E0
:102D40008040FFF7BDFB2000FFF7A3FEC0B2FEF7F7
:102D500085FE00202649087040F2277529002000D2
:102D6000FFF7A9FE012825D129002000FFF7D8FE92
:102D700031490868002812D00868401E08602F4DAD
:102D80002868411C29602E49095C89B22000FFF7A0
:102D90007CFE286864280DD1002028600AE000220B
:102DA00029002000FFF739FE012240F226612000B1
:102DB000FFF733FE40F2266529002000FFF77BFE77
:102DC00000280CD029002000FFF7AAFE20211D4872
:102DD000FEF798FA002229002000FFF71EFE31BD01
:102DE000540200200004004000080040000C004095
:102DF000770200200C1401404402002058020020F9
:102E0000480200202C000020000200203C0200208C
:102E100040020020000002104C0200205C02002052
:102E20005002002030000020080200200000244052
:102E300000380140240000406C020020680200209D
:102E4000140100200008014080B54249086850F094
:102E500001000860404A13684048034013600B6853
:102E60003F4803400B60086830F480200860106819
:102E700030F4FE0010605FF41F003A49086000F073
:102E800005F85FF000603849086001BD80B500F0CA
:102E900001F801BD82B000200190002000902D4972
:102EA000086850F480300860086810F40030009022
:102EB0000198401C01900098002803D10198B0F5BA
:102EC000A06FF1D10868800302D50120009001E0D5
:102ED000002000900098012839D12448026852F05F
:102EE000100202600268920892000260026852F0CA
:102EF000020202601848026802600268026002680A
:102F000052F480620260026832F480420260026819
:102F100052F400420260026832F47C1202600268DD
:102F200052F4F81202600A6852F080720A600A686D
:102F30009201FCD50168890889000160016851F09F
:102F400002010160016811F00C010829FAD102B0F8
:102F50007047000000100240041002400000FFF81B
:102F6000FFFFF6FE0810024008ED00E000200240DE
:102F70009A9999999999B93FB81E85EB51B89E3F96
:102F8000000000000094D1402C0100000000803FB0
:102F900000004842295C8F3D00004040AC03000027
:102FA000AC0300000000000001020304010203045E
:102FB00006070809020406080100000030B40025D5
:102FC00012E050F8042BD30744BF4A44521E091F95
:102FD000042942F8045BFAD213468C0744BF1580DB
:102FE0009B1CC90748BF1D7050F8041B0029E8D17D
:102FF00030BC704710B5074979441831064C7C4401
:10300000163404E00A68081D114488470146A142AD
:10301000F8D110BD0800000028000000A1FFFFFF4C
:10302000300200004C00002000000000BFE6FFFF5F
:103030004C0000003CFFFFFF0000002000000000EB
:1030400000F00DF8002801D0FFF7D4FFAFF30080A7
:103050000020AFF30080FDF79EF800F002F8012099
:10306000704700F001B800000746384600F002F84B
:10307000FBE7000080B5AFF30080024A1100182082
:10308000ABBEFBE7260002000548014603B46846D4
:1030900080F30988AFF30080AFF30080FFF7D0FF23
:1030A000A5EDF5FE0148804701480047492E00087C
:1030B00089300008FFF7FEBFFFF7FEBFFFF7FEBF36
:1030C000FFF7FEBFFFF7FEBFFFF7FEBFFFF7FEBF34
:1030D000FFF7FEBFFFF7FEBFFFF7FEBFFFF7FEBF24
:1030E000FFF7FEBFFFF7FEBFFFF7FEBFFFF7FEBF14
:1030F000FFF7FEBFFFF7FEBFFFF7FEBFFFF7FEBF04
:10310000FFF7FEBFFFF7FEBFFFF7FEBFFFF7FEBFF3
:10311000FFF7FEBFFFF7FEBFFFF7FEBFFFF7FEBFE3
:10312000FFF7FEBFFFF7FEBFFFF7FEBFFFF7FEBFD3
:10313000FFF7FEBFFFF7FEBFFFF7FEBFFFF7FEBFC3
:10314000FFF7FEBFFFF7FEBFFFF7FEBFFFF7FEBFB3
:10315000FFF7FEBFFFF7FEBFFFF7FEBFFFF7FEBFA3
:10316000FFF7FEBFFFF7FEBFFFF7FEBFFFF7FEBF93
:10317000FFF7FEBFFFF7FEBFFFF7FEBFFFF7FEBF83
:10318000FFF7FEBFFFF7FEBFFFF7FEBFFFF7FEBF73
:0C319000FFF7FEBFFFF7FEBFFFF7FEBF1A
:040000050800308936
:00000001FF
